{
  "contractName": "VendingMachine",
  "abi": [
    {
      "inputs": [],
      "stateMutability": "nonpayable",
      "type": "constructor"
    },
    {
      "anonymous": false,
      "inputs": [
        {
          "indexed": true,
          "internalType": "address",
          "name": "account",
          "type": "address"
        },
        {
          "indexed": true,
          "internalType": "address",
          "name": "operator",
          "type": "address"
        },
        {
          "indexed": false,
          "internalType": "bool",
          "name": "approved",
          "type": "bool"
        }
      ],
      "name": "ApprovalForAll",
      "type": "event"
    },
    {
      "anonymous": false,
      "inputs": [
        {
          "indexed": true,
          "internalType": "address",
          "name": "previousOwner",
          "type": "address"
        },
        {
          "indexed": true,
          "internalType": "address",
          "name": "newOwner",
          "type": "address"
        }
      ],
      "name": "OwnershipTransferred",
      "type": "event"
    },
    {
      "anonymous": false,
      "inputs": [
        {
          "indexed": false,
          "internalType": "address",
          "name": "account",
          "type": "address"
        }
      ],
      "name": "Paused",
      "type": "event"
    },
    {
      "anonymous": false,
      "inputs": [
        {
          "indexed": true,
          "internalType": "address",
          "name": "operator",
          "type": "address"
        },
        {
          "indexed": true,
          "internalType": "address",
          "name": "from",
          "type": "address"
        },
        {
          "indexed": true,
          "internalType": "address",
          "name": "to",
          "type": "address"
        },
        {
          "indexed": false,
          "internalType": "uint256[]",
          "name": "ids",
          "type": "uint256[]"
        },
        {
          "indexed": false,
          "internalType": "uint256[]",
          "name": "values",
          "type": "uint256[]"
        }
      ],
      "name": "TransferBatch",
      "type": "event"
    },
    {
      "anonymous": false,
      "inputs": [
        {
          "indexed": true,
          "internalType": "address",
          "name": "operator",
          "type": "address"
        },
        {
          "indexed": true,
          "internalType": "address",
          "name": "from",
          "type": "address"
        },
        {
          "indexed": true,
          "internalType": "address",
          "name": "to",
          "type": "address"
        },
        {
          "indexed": false,
          "internalType": "uint256",
          "name": "id",
          "type": "uint256"
        },
        {
          "indexed": false,
          "internalType": "uint256",
          "name": "value",
          "type": "uint256"
        }
      ],
      "name": "TransferSingle",
      "type": "event"
    },
    {
      "anonymous": false,
      "inputs": [
        {
          "indexed": false,
          "internalType": "string",
          "name": "value",
          "type": "string"
        },
        {
          "indexed": true,
          "internalType": "uint256",
          "name": "id",
          "type": "uint256"
        }
      ],
      "name": "URI",
      "type": "event"
    },
    {
      "anonymous": false,
      "inputs": [
        {
          "indexed": false,
          "internalType": "address",
          "name": "account",
          "type": "address"
        }
      ],
      "name": "Unpaused",
      "type": "event"
    },
    {
      "inputs": [
        {
          "internalType": "address",
          "name": "account",
          "type": "address"
        },
        {
          "internalType": "uint256",
          "name": "id",
          "type": "uint256"
        }
      ],
      "name": "balanceOf",
      "outputs": [
        {
          "internalType": "uint256",
          "name": "",
          "type": "uint256"
        }
      ],
      "stateMutability": "view",
      "type": "function",
      "constant": true
    },
    {
      "inputs": [
        {
          "internalType": "address[]",
          "name": "accounts",
          "type": "address[]"
        },
        {
          "internalType": "uint256[]",
          "name": "ids",
          "type": "uint256[]"
        }
      ],
      "name": "balanceOfBatch",
      "outputs": [
        {
          "internalType": "uint256[]",
          "name": "",
          "type": "uint256[]"
        }
      ],
      "stateMutability": "view",
      "type": "function",
      "constant": true
    },
    {
      "inputs": [
        {
          "internalType": "address",
          "name": "account",
          "type": "address"
        },
        {
          "internalType": "uint256",
          "name": "id",
          "type": "uint256"
        },
        {
          "internalType": "uint256",
          "name": "value",
          "type": "uint256"
        }
      ],
      "name": "burn",
      "outputs": [],
      "stateMutability": "nonpayable",
      "type": "function"
    },
    {
      "inputs": [
        {
          "internalType": "address",
          "name": "account",
          "type": "address"
        },
        {
          "internalType": "uint256[]",
          "name": "ids",
          "type": "uint256[]"
        },
        {
          "internalType": "uint256[]",
          "name": "values",
          "type": "uint256[]"
        }
      ],
      "name": "burnBatch",
      "outputs": [],
      "stateMutability": "nonpayable",
      "type": "function"
    },
    {
      "inputs": [
        {
          "internalType": "uint256",
          "name": "id",
          "type": "uint256"
        }
      ],
      "name": "exists",
      "outputs": [
        {
          "internalType": "bool",
          "name": "",
          "type": "bool"
        }
      ],
      "stateMutability": "view",
      "type": "function",
      "constant": true
    },
    {
      "inputs": [
        {
          "internalType": "address",
          "name": "account",
          "type": "address"
        },
        {
          "internalType": "address",
          "name": "operator",
          "type": "address"
        }
      ],
      "name": "isApprovedForAll",
      "outputs": [
        {
          "internalType": "bool",
          "name": "",
          "type": "bool"
        }
      ],
      "stateMutability": "view",
      "type": "function",
      "constant": true
    },
    {
      "inputs": [],
      "name": "maxTokens",
      "outputs": [
        {
          "internalType": "uint256",
          "name": "",
          "type": "uint256"
        }
      ],
      "stateMutability": "view",
      "type": "function",
      "constant": true
    },
    {
      "inputs": [],
      "name": "owner",
      "outputs": [
        {
          "internalType": "address",
          "name": "",
          "type": "address"
        }
      ],
      "stateMutability": "view",
      "type": "function",
      "constant": true
    },
    {
      "inputs": [],
      "name": "paused",
      "outputs": [
        {
          "internalType": "bool",
          "name": "",
          "type": "bool"
        }
      ],
      "stateMutability": "view",
      "type": "function",
      "constant": true
    },
    {
      "inputs": [],
      "name": "price",
      "outputs": [
        {
          "internalType": "uint256",
          "name": "",
          "type": "uint256"
        }
      ],
      "stateMutability": "view",
      "type": "function",
      "constant": true
    },
    {
      "inputs": [],
      "name": "renounceOwnership",
      "outputs": [],
      "stateMutability": "nonpayable",
      "type": "function"
    },
    {
      "inputs": [
        {
          "internalType": "address",
          "name": "from",
          "type": "address"
        },
        {
          "internalType": "address",
          "name": "to",
          "type": "address"
        },
        {
          "internalType": "uint256[]",
          "name": "ids",
          "type": "uint256[]"
        },
        {
          "internalType": "uint256[]",
          "name": "amounts",
          "type": "uint256[]"
        },
        {
          "internalType": "bytes",
          "name": "data",
          "type": "bytes"
        }
      ],
      "name": "safeBatchTransferFrom",
      "outputs": [],
      "stateMutability": "nonpayable",
      "type": "function"
    },
    {
      "inputs": [
        {
          "internalType": "address",
          "name": "from",
          "type": "address"
        },
        {
          "internalType": "address",
          "name": "to",
          "type": "address"
        },
        {
          "internalType": "uint256",
          "name": "id",
          "type": "uint256"
        },
        {
          "internalType": "uint256",
          "name": "amount",
          "type": "uint256"
        },
        {
          "internalType": "bytes",
          "name": "data",
          "type": "bytes"
        }
      ],
      "name": "safeTransferFrom",
      "outputs": [],
      "stateMutability": "nonpayable",
      "type": "function"
    },
    {
      "inputs": [
        {
          "internalType": "address",
          "name": "operator",
          "type": "address"
        },
        {
          "internalType": "bool",
          "name": "approved",
          "type": "bool"
        }
      ],
      "name": "setApprovalForAll",
      "outputs": [],
      "stateMutability": "nonpayable",
      "type": "function"
    },
    {
      "inputs": [
        {
          "internalType": "bytes4",
          "name": "interfaceId",
          "type": "bytes4"
        }
      ],
      "name": "supportsInterface",
      "outputs": [
        {
          "internalType": "bool",
          "name": "",
          "type": "bool"
        }
      ],
      "stateMutability": "view",
      "type": "function",
      "constant": true
    },
    {
      "inputs": [],
      "name": "tokenId",
      "outputs": [
        {
          "internalType": "uint256",
          "name": "",
          "type": "uint256"
        }
      ],
      "stateMutability": "view",
      "type": "function",
      "constant": true
    },
    {
      "inputs": [
        {
          "internalType": "uint256",
          "name": "id",
          "type": "uint256"
        }
      ],
      "name": "totalSupply",
      "outputs": [
        {
          "internalType": "uint256",
          "name": "",
          "type": "uint256"
        }
      ],
      "stateMutability": "view",
      "type": "function",
      "constant": true
    },
    {
      "inputs": [
        {
          "internalType": "address",
          "name": "newOwner",
          "type": "address"
        }
      ],
      "name": "transferOwnership",
      "outputs": [],
      "stateMutability": "nonpayable",
      "type": "function"
    },
    {
      "inputs": [
        {
          "internalType": "uint256",
          "name": "",
          "type": "uint256"
        }
      ],
      "name": "uri",
      "outputs": [
        {
          "internalType": "string",
          "name": "",
          "type": "string"
        }
      ],
      "stateMutability": "view",
      "type": "function",
      "constant": true
    },
    {
      "inputs": [
        {
          "internalType": "string",
          "name": "newuri",
          "type": "string"
        }
      ],
      "name": "setURI",
      "outputs": [],
      "stateMutability": "nonpayable",
      "type": "function"
    },
    {
      "inputs": [],
      "name": "pause",
      "outputs": [],
      "stateMutability": "nonpayable",
      "type": "function"
    },
    {
      "inputs": [],
      "name": "unpause",
      "outputs": [],
      "stateMutability": "nonpayable",
      "type": "function"
    },
    {
      "inputs": [
        {
          "internalType": "uint256",
          "name": "id",
          "type": "uint256"
        }
      ],
      "name": "mint",
      "outputs": [],
      "stateMutability": "payable",
      "type": "function",
      "payable": true
    },
    {
      "inputs": [
        {
          "internalType": "uint256",
          "name": "_price",
          "type": "uint256"
        }
      ],
      "name": "setPrice",
      "outputs": [],
      "stateMutability": "nonpayable",
      "type": "function"
    },
    {
      "inputs": [
        {
          "internalType": "uint256",
          "name": "_amount",
          "type": "uint256"
        }
      ],
      "name": "withdraw",
      "outputs": [],
      "stateMutability": "payable",
      "type": "function",
      "payable": true
    },
    {
      "inputs": [],
      "name": "withdrawAll",
      "outputs": [],
      "stateMutability": "payable",
      "type": "function",
      "payable": true
    },
    {
      "inputs": [
        {
          "internalType": "uint256",
          "name": "_additionalTokens",
          "type": "uint256"
        }
      ],
      "name": "refill",
      "outputs": [],
      "stateMutability": "nonpayable",
      "type": "function"
    },
    {
      "inputs": [
        {
          "internalType": "uint256",
          "name": "id",
          "type": "uint256"
        }
      ],
      "name": "getTokenLeft",
      "outputs": [
        {
          "internalType": "uint256",
          "name": "",
          "type": "uint256"
        }
      ],
      "stateMutability": "view",
      "type": "function",
      "constant": true
    }
  ],
  "bytecode": "0x60806040526000600555603c60075560006008553480156200002057600080fd5b5060405180606001604052806040815260200162004ac4604091396200004c816200008e60201b60201c565b506200006d62000061620000aa60201b60201c565b620000b260201b60201c565b6000600360146101000a81548160ff0219169083151502179055506200028d565b8060029080519060200190620000a692919062000178565b5050565b600033905090565b6000600360009054906101000a900473ffffffffffffffffffffffffffffffffffffffff16905081600360006101000a81548173ffffffffffffffffffffffffffffffffffffffff021916908373ffffffffffffffffffffffffffffffffffffffff1602179055508173ffffffffffffffffffffffffffffffffffffffff168173ffffffffffffffffffffffffffffffffffffffff167f8be0079c531659141344cd1fd0a4f28419497f9722a3daafe3b4186f6b6457e060405160405180910390a35050565b828054620001869062000257565b90600052602060002090601f016020900481019282620001aa5760008555620001f6565b82601f10620001c557805160ff1916838001178555620001f6565b82800160010185558215620001f6579182015b82811115620001f5578251825591602001919060010190620001d8565b5b50905062000205919062000209565b5090565b5b80821115620002245760008160009055506001016200020a565b5090565b7f4e487b7100000000000000000000000000000000000000000000000000000000600052602260045260246000fd5b600060028204905060018216806200027057607f821691505b6020821081141562000287576200028662000228565b5b50919050565b614827806200029d6000396000f3fe6080604052600436106101b65760003560e01c8063853828b6116100ec578063bd85b0391161008a578063e985e9c511610064578063e985e9c5146105ba578063f242432a146105f7578063f2fde38b14610620578063f5298aca14610649576101b6565b8063bd85b03914610529578063ca9d07ba14610566578063e83157421461058f576101b6565b806391b7f5ed116100c657806391b7f5ed14610490578063a035b1fe146104b9578063a0712d68146104e4578063a22cb46514610500576101b6565b8063853828b61461041e57806387dbbb0e146104285780638da5cb5b14610465576101b6565b80633f4ba83a116101595780635c975abb116101335780635c975abb1461039c5780636b20c454146103c7578063715018a6146103f05780638456cb5914610407576101b6565b80633f4ba83a1461030b5780634e1273f4146103225780634f558e791461035f576101b6565b80630e89341c116101955780630e89341c1461025e57806317d70f7c1461029b5780632e1a7d4d146102c65780632eb2c2d6146102e2576101b6565b8062fdd58e146101bb57806301ffc9a7146101f857806302fe530514610235575b600080fd5b3480156101c757600080fd5b506101e260048036038101906101dd9190612d3d565b610672565b6040516101ef9190612d8c565b60405180910390f35b34801561020457600080fd5b5061021f600480360381019061021a9190612dff565b61073b565b60405161022c9190612e47565b60405180910390f35b34801561024157600080fd5b5061025c60048036038101906102579190612fa8565b61081d565b005b34801561026a57600080fd5b5061028560048036038101906102809190612ff1565b6108a5565b60405161029291906130a6565b60405180910390f35b3480156102a757600080fd5b506102b0610939565b6040516102bd9190612d8c565b60405180910390f35b6102e060048036038101906102db9190612ff1565b61093f565b005b3480156102ee57600080fd5b5061030960048036038101906103049190613231565b6109fc565b005b34801561031757600080fd5b50610320610a9d565b005b34801561032e57600080fd5b50610349600480360381019061034491906133c3565b610b23565b60405161035691906134f9565b60405180910390f35b34801561036b57600080fd5b5061038660048036038101906103819190612ff1565b610c3c565b6040516103939190612e47565b60405180910390f35b3480156103a857600080fd5b506103b1610c50565b6040516103be9190612e47565b60405180910390f35b3480156103d357600080fd5b506103ee60048036038101906103e9919061351b565b610c67565b005b3480156103fc57600080fd5b50610405610d04565b005b34801561041357600080fd5b5061041c610d8c565b005b610426610e12565b005b34801561043457600080fd5b5061044f600480360381019061044a9190612ff1565b610ece565b60405161045c9190612d8c565b60405180910390f35b34801561047157600080fd5b5061047a610eec565b60405161048791906135b5565b60405180910390f35b34801561049c57600080fd5b506104b760048036038101906104b29190612ff1565b610f16565b005b3480156104c557600080fd5b506104ce610f9c565b6040516104db9190612d8c565b60405180910390f35b6104fe60048036038101906104f99190612ff1565b610fa2565b005b34801561050c57600080fd5b50610527600480360381019061052291906135fc565b611189565b005b34801561053557600080fd5b50610550600480360381019061054b9190612ff1565b61119f565b60405161055d9190612d8c565b60405180910390f35b34801561057257600080fd5b5061058d60048036038101906105889190612ff1565b6111bc565b005b34801561059b57600080fd5b506105a46112e9565b6040516105b19190612d8c565b60405180910390f35b3480156105c657600080fd5b506105e160048036038101906105dc919061363c565b6112ef565b6040516105ee9190612e47565b60405180910390f35b34801561060357600080fd5b5061061e6004803603810190610619919061367c565b611383565b005b34801561062c57600080fd5b5061064760048036038101906106429190613713565b611424565b005b34801561065557600080fd5b50610670600480360381019061066b9190613740565b61151c565b005b60008073ffffffffffffffffffffffffffffffffffffffff168373ffffffffffffffffffffffffffffffffffffffff1614156106e3576040517f08c379a00000000000000000000000000000000000000000000000000000000081526004016106da90613805565b60405180910390fd5b60008083815260200190815260200160002060008473ffffffffffffffffffffffffffffffffffffffff1673ffffffffffffffffffffffffffffffffffffffff16815260200190815260200160002054905092915050565b60007fd9b67a26000000000000000000000000000000000000000000000000000000007bffffffffffffffffffffffffffffffffffffffffffffffffffffffff1916827bffffffffffffffffffffffffffffffffffffffffffffffffffffffff1916148061080657507f0e89341c000000000000000000000000000000000000000000000000000000007bffffffffffffffffffffffffffffffffffffffffffffffffffffffff1916827bffffffffffffffffffffffffffffffffffffffffffffffffffffffff1916145b806108165750610815826115b9565b5b9050919050565b610825611623565b73ffffffffffffffffffffffffffffffffffffffff16610843610eec565b73ffffffffffffffffffffffffffffffffffffffff1614610899576040517f08c379a000000000000000000000000000000000000000000000000000000000815260040161089090613871565b60405180910390fd5b6108a28161162b565b50565b6060600280546108b4906138c0565b80601f01602080910402602001604051908101604052809291908181526020018280546108e0906138c0565b801561092d5780601f106109025761010080835404028352916020019161092d565b820191906000526020600020905b81548152906001019060200180831161091057829003601f168201915b50505050509050919050565b60085481565b610947611623565b73ffffffffffffffffffffffffffffffffffffffff16610965610eec565b73ffffffffffffffffffffffffffffffffffffffff16146109bb576040517f08c379a00000000000000000000000000000000000000000000000000000000081526004016109b290613871565b60405180910390fd5b3373ffffffffffffffffffffffffffffffffffffffff166108fc829081150290604051600060405180830381858888f193505050506109f957600080fd5b50565b610a04611623565b73ffffffffffffffffffffffffffffffffffffffff168573ffffffffffffffffffffffffffffffffffffffff161480610a4a5750610a4985610a44611623565b6112ef565b5b610a89576040517f08c379a0000000000000000000000000000000000000000000000000000000008152600401610a8090613964565b60405180910390fd5b610a968585858585611645565b5050505050565b610aa5611623565b73ffffffffffffffffffffffffffffffffffffffff16610ac3610eec565b73ffffffffffffffffffffffffffffffffffffffff1614610b19576040517f08c379a0000000000000000000000000000000000000000000000000000000008152600401610b1090613871565b60405180910390fd5b610b21611959565b565b60608151835114610b69576040517f08c379a0000000000000000000000000000000000000000000000000000000008152600401610b60906139f6565b60405180910390fd5b6000835167ffffffffffffffff811115610b8657610b85612e7d565b5b604051908082528060200260200182016040528015610bb45781602001602082028036833780820191505090505b50905060005b8451811015610c3157610c01858281518110610bd957610bd8613a16565b5b6020026020010151858381518110610bf457610bf3613a16565b5b6020026020010151610672565b828281518110610c1457610c13613a16565b5b60200260200101818152505080610c2a90613a74565b9050610bba565b508091505092915050565b600080610c488361119f565b119050919050565b6000600360149054906101000a900460ff16905090565b610c6f611623565b73ffffffffffffffffffffffffffffffffffffffff168373ffffffffffffffffffffffffffffffffffffffff161480610cb55750610cb483610caf611623565b6112ef565b5b610cf4576040517f08c379a0000000000000000000000000000000000000000000000000000000008152600401610ceb90613b2f565b60405180910390fd5b610cff8383836119fb565b505050565b610d0c611623565b73ffffffffffffffffffffffffffffffffffffffff16610d2a610eec565b73ffffffffffffffffffffffffffffffffffffffff1614610d80576040517f08c379a0000000000000000000000000000000000000000000000000000000008152600401610d7790613871565b60405180910390fd5b610d8a6000611cac565b565b610d94611623565b73ffffffffffffffffffffffffffffffffffffffff16610db2610eec565b73ffffffffffffffffffffffffffffffffffffffff1614610e08576040517f08c379a0000000000000000000000000000000000000000000000000000000008152600401610dff90613871565b60405180910390fd5b610e10611d72565b565b610e1a611623565b73ffffffffffffffffffffffffffffffffffffffff16610e38610eec565b73ffffffffffffffffffffffffffffffffffffffff1614610e8e576040517f08c379a0000000000000000000000000000000000000000000000000000000008152600401610e8590613871565b60405180910390fd5b3373ffffffffffffffffffffffffffffffffffffffff166108fc479081150290604051600060405180830381858888f19350505050610ecc57600080fd5b565b6000610ed98261119f565b6005610ee59190613b4f565b9050919050565b6000600360009054906101000a900473ffffffffffffffffffffffffffffffffffffffff16905090565b610f1e611623565b73ffffffffffffffffffffffffffffffffffffffff16610f3c610eec565b73ffffffffffffffffffffffffffffffffffffffff1614610f92576040517f08c379a0000000000000000000000000000000000000000000000000000000008152600401610f8990613871565b60405180910390fd5b8060058190555050565b60055481565b600554341015610fe7576040517f08c379a0000000000000000000000000000000000000000000000000000000008152600401610fde90613bcf565b60405180910390fd5b6007546008541061102d576040517f08c379a000000000000000000000000000000000000000000000000000000000815260040161102490613c3b565b60405180910390fd5b6003600660003373ffffffffffffffffffffffffffffffffffffffff1673ffffffffffffffffffffffffffffffffffffffff1681526020019081526020016000205411156110b0576040517f08c379a00000000000000000000000000000000000000000000000000000000081526004016110a790613ca7565b60405180910390fd5b60056110bb8261119f565b106110fb576040517f08c379a00000000000000000000000000000000000000000000000000000000081526004016110f290613d13565b60405180910390fd5b6001600660003373ffffffffffffffffffffffffffffffffffffffff1673ffffffffffffffffffffffffffffffffffffffff168152602001908152602001600020600082825461114b9190613d33565b925050819055506008600081548092919061116590613a74565b91905055506111863382600160405180602001604052806000815250611e15565b50565b61119b611194611623565b8383611fab565b5050565b600060046000838152602001908152602001600020549050919050565b6111c4611623565b73ffffffffffffffffffffffffffffffffffffffff166111e2610eec565b73ffffffffffffffffffffffffffffffffffffffff1614611238576040517f08c379a000000000000000000000000000000000000000000000000000000000815260040161122f90613871565b60405180910390fd5b6000600c826112479190613db8565b14611287576040517f08c379a000000000000000000000000000000000000000000000000000000000815260040161127e90613e35565b60405180910390fd5b600754600854146112cd576040517f08c379a00000000000000000000000000000000000000000000000000000000081526004016112c490613ec7565b60405180910390fd5b80600760008282546112df9190613d33565b9250508190555050565b60075481565b6000600160008473ffffffffffffffffffffffffffffffffffffffff1673ffffffffffffffffffffffffffffffffffffffff16815260200190815260200160002060008373ffffffffffffffffffffffffffffffffffffffff1673ffffffffffffffffffffffffffffffffffffffff16815260200190815260200160002060009054906101000a900460ff16905092915050565b61138b611623565b73ffffffffffffffffffffffffffffffffffffffff168573ffffffffffffffffffffffffffffffffffffffff1614806113d157506113d0856113cb611623565b6112ef565b5b611410576040517f08c379a000000000000000000000000000000000000000000000000000000000815260040161140790613b2f565b60405180910390fd5b61141d8585858585612118565b5050505050565b61142c611623565b73ffffffffffffffffffffffffffffffffffffffff1661144a610eec565b73ffffffffffffffffffffffffffffffffffffffff16146114a0576040517f08c379a000000000000000000000000000000000000000000000000000000000815260040161149790613871565b60405180910390fd5b600073ffffffffffffffffffffffffffffffffffffffff168173ffffffffffffffffffffffffffffffffffffffff161415611510576040517f08c379a000000000000000000000000000000000000000000000000000000000815260040161150790613f59565b60405180910390fd5b61151981611cac565b50565b611524611623565b73ffffffffffffffffffffffffffffffffffffffff168373ffffffffffffffffffffffffffffffffffffffff16148061156a575061156983611564611623565b6112ef565b5b6115a9576040517f08c379a00000000000000000000000000000000000000000000000000000000081526004016115a090613b2f565b60405180910390fd5b6115b483838361239a565b505050565b60007f01ffc9a7000000000000000000000000000000000000000000000000000000007bffffffffffffffffffffffffffffffffffffffffffffffffffffffff1916827bffffffffffffffffffffffffffffffffffffffffffffffffffffffff1916149050919050565b600033905090565b8060029080519060200190611641929190612bf2565b5050565b8151835114611689576040517f08c379a000000000000000000000000000000000000000000000000000000000815260040161168090613feb565b60405180910390fd5b600073ffffffffffffffffffffffffffffffffffffffff168473ffffffffffffffffffffffffffffffffffffffff1614156116f9576040517f08c379a00000000000000000000000000000000000000000000000000000000081526004016116f09061407d565b60405180910390fd5b6000611703611623565b90506117138187878787876125b7565b60005b84518110156118c457600085828151811061173457611733613a16565b5b60200260200101519050600085838151811061175357611752613a16565b5b60200260200101519050600080600084815260200190815260200160002060008b73ffffffffffffffffffffffffffffffffffffffff1673ffffffffffffffffffffffffffffffffffffffff168152602001908152602001600020549050818110156117f4576040517f08c379a00000000000000000000000000000000000000000000000000000000081526004016117eb9061410f565b60405180910390fd5b81810360008085815260200190815260200160002060008c73ffffffffffffffffffffffffffffffffffffffff1673ffffffffffffffffffffffffffffffffffffffff168152602001908152602001600020819055508160008085815260200190815260200160002060008b73ffffffffffffffffffffffffffffffffffffffff1673ffffffffffffffffffffffffffffffffffffffff16815260200190815260200160002060008282546118a99190613d33565b92505081905550505050806118bd90613a74565b9050611716565b508473ffffffffffffffffffffffffffffffffffffffff168673ffffffffffffffffffffffffffffffffffffffff168273ffffffffffffffffffffffffffffffffffffffff167f4a39dc06d4c0dbc64b70af90fd698a233a518aa5d07e595d983b8c0526c8f7fb878760405161193b92919061412f565b60405180910390a4611951818787878787612615565b505050505050565b611961610c50565b6119a0576040517f08c379a0000000000000000000000000000000000000000000000000000000008152600401611997906141b2565b60405180910390fd5b6000600360146101000a81548160ff0219169083151502179055507f5db9ee0a495bf2e6ff9c91a7834c1ba4fdd244a5e8aa4e537bd38aeae4b073aa6119e4611623565b6040516119f191906135b5565b60405180910390a1565b600073ffffffffffffffffffffffffffffffffffffffff168373ffffffffffffffffffffffffffffffffffffffff161415611a6b576040517f08c379a0000000000000000000000000000000000000000000000000000000008152600401611a6290614244565b60405180910390fd5b8051825114611aaf576040517f08c379a0000000000000000000000000000000000000000000000000000000008152600401611aa690613feb565b60405180910390fd5b6000611ab9611623565b9050611ad9818560008686604051806020016040528060008152506125b7565b60005b8351811015611c26576000848281518110611afa57611af9613a16565b5b602002602001015190506000848381518110611b1957611b18613a16565b5b60200260200101519050600080600084815260200190815260200160002060008973ffffffffffffffffffffffffffffffffffffffff1673ffffffffffffffffffffffffffffffffffffffff16815260200190815260200160002054905081811015611bba576040517f08c379a0000000000000000000000000000000000000000000000000000000008152600401611bb1906142d6565b60405180910390fd5b81810360008085815260200190815260200160002060008a73ffffffffffffffffffffffffffffffffffffffff1673ffffffffffffffffffffffffffffffffffffffff168152602001908152602001600020819055505050508080611c1e90613a74565b915050611adc565b50600073ffffffffffffffffffffffffffffffffffffffff168473ffffffffffffffffffffffffffffffffffffffff168273ffffffffffffffffffffffffffffffffffffffff167f4a39dc06d4c0dbc64b70af90fd698a233a518aa5d07e595d983b8c0526c8f7fb8686604051611c9e92919061412f565b60405180910390a450505050565b6000600360009054906101000a900473ffffffffffffffffffffffffffffffffffffffff16905081600360006101000a81548173ffffffffffffffffffffffffffffffffffffffff021916908373ffffffffffffffffffffffffffffffffffffffff1602179055508173ffffffffffffffffffffffffffffffffffffffff168173ffffffffffffffffffffffffffffffffffffffff167f8be0079c531659141344cd1fd0a4f28419497f9722a3daafe3b4186f6b6457e060405160405180910390a35050565b611d7a610c50565b15611dba576040517f08c379a0000000000000000000000000000000000000000000000000000000008152600401611db190614342565b60405180910390fd5b6001600360146101000a81548160ff0219169083151502179055507f62e78cea01bee320cd4e420270b5ea74000d11b0c9f74754ebdbfc544b05a258611dfe611623565b604051611e0b91906135b5565b60405180910390a1565b600073ffffffffffffffffffffffffffffffffffffffff168473ffffffffffffffffffffffffffffffffffffffff161415611e85576040517f08c379a0000000000000000000000000000000000000000000000000000000008152600401611e7c906143d4565b60405180910390fd5b6000611e8f611623565b9050611eb081600087611ea1886127fc565b611eaa886127fc565b876125b7565b8260008086815260200190815260200160002060008773ffffffffffffffffffffffffffffffffffffffff1673ffffffffffffffffffffffffffffffffffffffff1681526020019081526020016000206000828254611f0f9190613d33565b925050819055508473ffffffffffffffffffffffffffffffffffffffff16600073ffffffffffffffffffffffffffffffffffffffff168273ffffffffffffffffffffffffffffffffffffffff167fc3d58168c5ae7397731d063d5bbf3d657854427343f4c083240f7aacaa2d0f628787604051611f8d9291906143f4565b60405180910390a4611fa481600087878787612876565b5050505050565b8173ffffffffffffffffffffffffffffffffffffffff168373ffffffffffffffffffffffffffffffffffffffff16141561201a576040517f08c379a00000000000000000000000000000000000000000000000000000000081526004016120119061448f565b60405180910390fd5b80600160008573ffffffffffffffffffffffffffffffffffffffff1673ffffffffffffffffffffffffffffffffffffffff16815260200190815260200160002060008473ffffffffffffffffffffffffffffffffffffffff1673ffffffffffffffffffffffffffffffffffffffff16815260200190815260200160002060006101000a81548160ff0219169083151502179055508173ffffffffffffffffffffffffffffffffffffffff168373ffffffffffffffffffffffffffffffffffffffff167f17307eab39ab6107e8899845ad3d59bd9653f200f220920489ca2b5937696c318360405161210b9190612e47565b60405180910390a3505050565b600073ffffffffffffffffffffffffffffffffffffffff168473ffffffffffffffffffffffffffffffffffffffff161415612188576040517f08c379a000000000000000000000000000000000000000000000000000000000815260040161217f9061407d565b60405180910390fd5b6000612192611623565b90506121b28187876121a3886127fc565b6121ac886127fc565b876125b7565b600080600086815260200190815260200160002060008873ffffffffffffffffffffffffffffffffffffffff1673ffffffffffffffffffffffffffffffffffffffff16815260200190815260200160002054905083811015612249576040517f08c379a00000000000000000000000000000000000000000000000000000000081526004016122409061410f565b60405180910390fd5b83810360008087815260200190815260200160002060008973ffffffffffffffffffffffffffffffffffffffff1673ffffffffffffffffffffffffffffffffffffffff168152602001908152602001600020819055508360008087815260200190815260200160002060008873ffffffffffffffffffffffffffffffffffffffff1673ffffffffffffffffffffffffffffffffffffffff16815260200190815260200160002060008282546122fe9190613d33565b925050819055508573ffffffffffffffffffffffffffffffffffffffff168773ffffffffffffffffffffffffffffffffffffffff168373ffffffffffffffffffffffffffffffffffffffff167fc3d58168c5ae7397731d063d5bbf3d657854427343f4c083240f7aacaa2d0f62888860405161237b9291906143f4565b60405180910390a4612391828888888888612876565b50505050505050565b600073ffffffffffffffffffffffffffffffffffffffff168373ffffffffffffffffffffffffffffffffffffffff16141561240a576040517f08c379a000000000000000000000000000000000000000000000000000000000815260040161240190614244565b60405180910390fd5b6000612414611623565b905061244481856000612426876127fc565b61242f876127fc565b604051806020016040528060008152506125b7565b600080600085815260200190815260200160002060008673ffffffffffffffffffffffffffffffffffffffff1673ffffffffffffffffffffffffffffffffffffffff168152602001908152602001600020549050828110156124db576040517f08c379a00000000000000000000000000000000000000000000000000000000081526004016124d2906142d6565b60405180910390fd5b82810360008086815260200190815260200160002060008773ffffffffffffffffffffffffffffffffffffffff1673ffffffffffffffffffffffffffffffffffffffff16815260200190815260200160002081905550600073ffffffffffffffffffffffffffffffffffffffff168573ffffffffffffffffffffffffffffffffffffffff168373ffffffffffffffffffffffffffffffffffffffff167fc3d58168c5ae7397731d063d5bbf3d657854427343f4c083240f7aacaa2d0f6287876040516125a89291906143f4565b60405180910390a45050505050565b6125bf610c50565b156125ff576040517f08c379a00000000000000000000000000000000000000000000000000000000081526004016125f690614342565b60405180910390fd5b61260d868686868686612a5d565b505050505050565b6126348473ffffffffffffffffffffffffffffffffffffffff16612bd7565b156127f4578373ffffffffffffffffffffffffffffffffffffffff1663bc197c8187878686866040518663ffffffff1660e01b815260040161267a959493929190614504565b602060405180830381600087803b15801561269457600080fd5b505af19250505080156126c557506040513d601f19601f820116820180604052508101906126c29190614581565b60015b61276b576126d16145bb565b806308c379a0141561272e57506126e66145dd565b806126f15750612730565b806040517f08c379a000000000000000000000000000000000000000000000000000000000815260040161272591906130a6565b60405180910390fd5b505b6040517f08c379a0000000000000000000000000000000000000000000000000000000008152600401612762906146e5565b60405180910390fd5b63bc197c8160e01b7bffffffffffffffffffffffffffffffffffffffffffffffffffffffff1916817bffffffffffffffffffffffffffffffffffffffffffffffffffffffff1916146127f2576040517f08c379a00000000000000000000000000000000000000000000000000000000081526004016127e990614777565b60405180910390fd5b505b505050505050565b60606000600167ffffffffffffffff81111561281b5761281a612e7d565b5b6040519080825280602002602001820160405280156128495781602001602082028036833780820191505090505b509050828160008151811061286157612860613a16565b5b60200260200101818152505080915050919050565b6128958473ffffffffffffffffffffffffffffffffffffffff16612bd7565b15612a55578373ffffffffffffffffffffffffffffffffffffffff1663f23a6e6187878686866040518663ffffffff1660e01b81526004016128db959493929190614797565b602060405180830381600087803b1580156128f557600080fd5b505af192505050801561292657506040513d601f19601f820116820180604052508101906129239190614581565b60015b6129cc576129326145bb565b806308c379a0141561298f57506129476145dd565b806129525750612991565b806040517f08c379a000000000000000000000000000000000000000000000000000000000815260040161298691906130a6565b60405180910390fd5b505b6040517f08c379a00000000000000000000000000000000000000000000000000000000081526004016129c3906146e5565b60405180910390fd5b63f23a6e6160e01b7bffffffffffffffffffffffffffffffffffffffffffffffffffffffff1916817bffffffffffffffffffffffffffffffffffffffffffffffffffffffff191614612a53576040517f08c379a0000000000000000000000000000000000000000000000000000000008152600401612a4a90614777565b60405180910390fd5b505b505050505050565b612a6b868686868686612bea565b600073ffffffffffffffffffffffffffffffffffffffff168573ffffffffffffffffffffffffffffffffffffffff161415612b1d5760005b8351811015612b1b57828181518110612abf57612abe613a16565b5b602002602001015160046000868481518110612ade57612add613a16565b5b602002602001015181526020019081526020016000206000828254612b039190613d33565b9250508190555080612b1490613a74565b9050612aa3565b505b600073ffffffffffffffffffffffffffffffffffffffff168473ffffffffffffffffffffffffffffffffffffffff161415612bcf5760005b8351811015612bcd57828181518110612b7157612b70613a16565b5b602002602001015160046000868481518110612b9057612b8f613a16565b5b602002602001015181526020019081526020016000206000828254612bb59190613b4f565b9250508190555080612bc690613a74565b9050612b55565b505b505050505050565b600080823b905060008111915050919050565b505050505050565b828054612bfe906138c0565b90600052602060002090601f016020900481019282612c205760008555612c67565b82601f10612c3957805160ff1916838001178555612c67565b82800160010185558215612c67579182015b82811115612c66578251825591602001919060010190612c4b565b5b509050612c749190612c78565b5090565b5b80821115612c91576000816000905550600101612c79565b5090565b6000604051905090565b600080fd5b600080fd5b600073ffffffffffffffffffffffffffffffffffffffff82169050919050565b6000612cd482612ca9565b9050919050565b612ce481612cc9565b8114612cef57600080fd5b50565b600081359050612d0181612cdb565b92915050565b6000819050919050565b612d1a81612d07565b8114612d2557600080fd5b50565b600081359050612d3781612d11565b92915050565b60008060408385031215612d5457612d53612c9f565b5b6000612d6285828601612cf2565b9250506020612d7385828601612d28565b9150509250929050565b612d8681612d07565b82525050565b6000602082019050612da16000830184612d7d565b92915050565b60007fffffffff0000000000000000000000000000000000000000000000000000000082169050919050565b612ddc81612da7565b8114612de757600080fd5b50565b600081359050612df981612dd3565b92915050565b600060208284031215612e1557612e14612c9f565b5b6000612e2384828501612dea565b91505092915050565b60008115159050919050565b612e4181612e2c565b82525050565b6000602082019050612e5c6000830184612e38565b92915050565b600080fd5b600080fd5b6000601f19601f8301169050919050565b7f4e487b7100000000000000000000000000000000000000000000000000000000600052604160045260246000fd5b612eb582612e6c565b810181811067ffffffffffffffff82111715612ed457612ed3612e7d565b5b80604052505050565b6000612ee7612c95565b9050612ef38282612eac565b919050565b600067ffffffffffffffff821115612f1357612f12612e7d565b5b612f1c82612e6c565b9050602081019050919050565b82818337600083830152505050565b6000612f4b612f4684612ef8565b612edd565b905082815260208101848484011115612f6757612f66612e67565b5b612f72848285612f29565b509392505050565b600082601f830112612f8f57612f8e612e62565b5b8135612f9f848260208601612f38565b91505092915050565b600060208284031215612fbe57612fbd612c9f565b5b600082013567ffffffffffffffff811115612fdc57612fdb612ca4565b5b612fe884828501612f7a565b91505092915050565b60006020828403121561300757613006612c9f565b5b600061301584828501612d28565b91505092915050565b600081519050919050565b600082825260208201905092915050565b60005b8381101561305857808201518184015260208101905061303d565b83811115613067576000848401525b50505050565b60006130788261301e565b6130828185613029565b935061309281856020860161303a565b61309b81612e6c565b840191505092915050565b600060208201905081810360008301526130c0818461306d565b905092915050565b600067ffffffffffffffff8211156130e3576130e2612e7d565b5b602082029050602081019050919050565b600080fd5b600061310c613107846130c8565b612edd565b9050808382526020820190506020840283018581111561312f5761312e6130f4565b5b835b8181101561315857806131448882612d28565b845260208401935050602081019050613131565b5050509392505050565b600082601f83011261317757613176612e62565b5b81356131878482602086016130f9565b91505092915050565b600067ffffffffffffffff8211156131ab576131aa612e7d565b5b6131b482612e6c565b9050602081019050919050565b60006131d46131cf84613190565b612edd565b9050828152602081018484840111156131f0576131ef612e67565b5b6131fb848285612f29565b509392505050565b600082601f83011261321857613217612e62565b5b81356132288482602086016131c1565b91505092915050565b600080600080600060a0868803121561324d5761324c612c9f565b5b600061325b88828901612cf2565b955050602061326c88828901612cf2565b945050604086013567ffffffffffffffff81111561328d5761328c612ca4565b5b61329988828901613162565b935050606086013567ffffffffffffffff8111156132ba576132b9612ca4565b5b6132c688828901613162565b925050608086013567ffffffffffffffff8111156132e7576132e6612ca4565b5b6132f388828901613203565b9150509295509295909350565b600067ffffffffffffffff82111561331b5761331a612e7d565b5b602082029050602081019050919050565b600061333f61333a84613300565b612edd565b90508083825260208201905060208402830185811115613362576133616130f4565b5b835b8181101561338b57806133778882612cf2565b845260208401935050602081019050613364565b5050509392505050565b600082601f8301126133aa576133a9612e62565b5b81356133ba84826020860161332c565b91505092915050565b600080604083850312156133da576133d9612c9f565b5b600083013567ffffffffffffffff8111156133f8576133f7612ca4565b5b61340485828601613395565b925050602083013567ffffffffffffffff81111561342557613424612ca4565b5b61343185828601613162565b9150509250929050565b600081519050919050565b600082825260208201905092915050565b6000819050602082019050919050565b61347081612d07565b82525050565b60006134828383613467565b60208301905092915050565b6000602082019050919050565b60006134a68261343b565b6134b08185613446565b93506134bb83613457565b8060005b838110156134ec5781516134d38882613476565b97506134de8361348e565b9250506001810190506134bf565b5085935050505092915050565b60006020820190508181036000830152613513818461349b565b905092915050565b60008060006060848603121561353457613533612c9f565b5b600061354286828701612cf2565b935050602084013567ffffffffffffffff81111561356357613562612ca4565b5b61356f86828701613162565b925050604084013567ffffffffffffffff8111156135905761358f612ca4565b5b61359c86828701613162565b9150509250925092565b6135af81612cc9565b82525050565b60006020820190506135ca60008301846135a6565b92915050565b6135d981612e2c565b81146135e457600080fd5b50565b6000813590506135f6816135d0565b92915050565b6000806040838503121561361357613612612c9f565b5b600061362185828601612cf2565b9250506020613632858286016135e7565b9150509250929050565b6000806040838503121561365357613652612c9f565b5b600061366185828601612cf2565b925050602061367285828601612cf2565b9150509250929050565b600080600080600060a0868803121561369857613697612c9f565b5b60006136a688828901612cf2565b95505060206136b788828901612cf2565b94505060406136c888828901612d28565b93505060606136d988828901612d28565b925050608086013567ffffffffffffffff8111156136fa576136f9612ca4565b5b61370688828901613203565b9150509295509295909350565b60006020828403121561372957613728612c9f565b5b600061373784828501612cf2565b91505092915050565b60008060006060848603121561375957613758612c9f565b5b600061376786828701612cf2565b935050602061377886828701612d28565b925050604061378986828701612d28565b9150509250925092565b7f455243313135353a2062616c616e636520717565727920666f7220746865207a60008201527f65726f2061646472657373000000000000000000000000000000000000000000602082015250565b60006137ef602b83613029565b91506137fa82613793565b604082019050919050565b6000602082019050818103600083015261381e816137e2565b9050919050565b7f4f776e61626c653a2063616c6c6572206973206e6f7420746865206f776e6572600082015250565b600061385b602083613029565b915061386682613825565b602082019050919050565b6000602082019050818103600083015261388a8161384e565b9050919050565b7f4e487b7100000000000000000000000000000000000000000000000000000000600052602260045260246000fd5b600060028204905060018216806138d857607f821691505b602082108114156138ec576138eb613891565b5b50919050565b7f455243313135353a207472616e736665722063616c6c6572206973206e6f742060008201527f6f776e6572206e6f7220617070726f7665640000000000000000000000000000602082015250565b600061394e603283613029565b9150613959826138f2565b604082019050919050565b6000602082019050818103600083015261397d81613941565b9050919050565b7f455243313135353a206163636f756e747320616e6420696473206c656e67746860008201527f206d69736d617463680000000000000000000000000000000000000000000000602082015250565b60006139e0602983613029565b91506139eb82613984565b604082019050919050565b60006020820190508181036000830152613a0f816139d3565b9050919050565b7f4e487b7100000000000000000000000000000000000000000000000000000000600052603260045260246000fd5b7f4e487b7100000000000000000000000000000000000000000000000000000000600052601160045260246000fd5b6000613a7f82612d07565b91507fffffffffffffffffffffffffffffffffffffffffffffffffffffffffffffffff821415613ab257613ab1613a45565b5b600182019050919050565b7f455243313135353a2063616c6c6572206973206e6f74206f776e6572206e6f7260008201527f20617070726f7665640000000000000000000000000000000000000000000000602082015250565b6000613b19602983613029565b9150613b2482613abd565b604082019050919050565b60006020820190508181036000830152613b4881613b0c565b9050919050565b6000613b5a82612d07565b9150613b6583612d07565b925082821015613b7857613b77613a45565b5b828203905092915050565b7f496e73756666696369656e742062616c616e636520746f204d696e7400000000600082015250565b6000613bb9601c83613029565b9150613bc482613b83565b602082019050919050565b60006020820190508181036000830152613be881613bac565b9050919050565b7f4f7574206f6620546f6b656e7300000000000000000000000000000000000000600082015250565b6000613c25600d83613029565b9150613c3082613bef565b602082019050919050565b60006020820190508181036000830152613c5481613c18565b9050919050565b7f596f752063616e206d696e74206f6e6c79203300000000000000000000000000600082015250565b6000613c91601383613029565b9150613c9c82613c5b565b602082019050919050565b60006020820190508181036000830152613cc081613c84565b9050919050565b7f596f752063616e206d696e74206f6e6c79203500000000000000000000000000600082015250565b6000613cfd601383613029565b9150613d0882613cc7565b602082019050919050565b60006020820190508181036000830152613d2c81613cf0565b9050919050565b6000613d3e82612d07565b9150613d4983612d07565b9250827fffffffffffffffffffffffffffffffffffffffffffffffffffffffffffffffff03821115613d7e57613d7d613a45565b5b828201905092915050565b7f4e487b7100000000000000000000000000000000000000000000000000000000600052601260045260246000fd5b6000613dc382612d07565b9150613dce83612d07565b925082613dde57613ddd613d89565b5b828206905092915050565b7f526566696c6c206d757374206265206d756c7469706c65206f66203132000000600082015250565b6000613e1f601d83613029565b9150613e2a82613de9565b602082019050919050565b60006020820190508181036000830152613e4e81613e12565b9050919050565b7f526566696c6c2063616e206f6e6c7920626520646f6e65207768656e20616c6c60008201527f20746f6b656e7320617265206d696e7465640000000000000000000000000000602082015250565b6000613eb1603283613029565b9150613ebc82613e55565b604082019050919050565b60006020820190508181036000830152613ee081613ea4565b9050919050565b7f4f776e61626c653a206e6577206f776e657220697320746865207a65726f206160008201527f6464726573730000000000000000000000000000000000000000000000000000602082015250565b6000613f43602683613029565b9150613f4e82613ee7565b604082019050919050565b60006020820190508181036000830152613f7281613f36565b9050919050565b7f455243313135353a2069647320616e6420616d6f756e7473206c656e6774682060008201527f6d69736d61746368000000000000000000000000000000000000000000000000602082015250565b6000613fd5602883613029565b9150613fe082613f79565b604082019050919050565b6000602082019050818103600083015261400481613fc8565b9050919050565b7f455243313135353a207472616e7366657220746f20746865207a65726f20616460008201527f6472657373000000000000000000000000000000000000000000000000000000602082015250565b6000614067602583613029565b91506140728261400b565b604082019050919050565b600060208201905081810360008301526140968161405a565b9050919050565b7f455243313135353a20696e73756666696369656e742062616c616e636520666f60008201527f72207472616e7366657200000000000000000000000000000000000000000000602082015250565b60006140f9602a83613029565b91506141048261409d565b604082019050919050565b60006020820190508181036000830152614128816140ec565b9050919050565b60006040820190508181036000830152614149818561349b565b9050818103602083015261415d818461349b565b90509392505050565b7f5061757361626c653a206e6f7420706175736564000000000000000000000000600082015250565b600061419c601483613029565b91506141a782614166565b602082019050919050565b600060208201905081810360008301526141cb8161418f565b9050919050565b7f455243313135353a206275726e2066726f6d20746865207a65726f206164647260008201527f6573730000000000000000000000000000000000000000000000000000000000602082015250565b600061422e602383613029565b9150614239826141d2565b604082019050919050565b6000602082019050818103600083015261425d81614221565b9050919050565b7f455243313135353a206275726e20616d6f756e7420657863656564732062616c60008201527f616e636500000000000000000000000000000000000000000000000000000000602082015250565b60006142c0602483613029565b91506142cb82614264565b604082019050919050565b600060208201905081810360008301526142ef816142b3565b9050919050565b7f5061757361626c653a2070617573656400000000000000000000000000000000600082015250565b600061432c601083613029565b9150614337826142f6565b602082019050919050565b6000602082019050818103600083015261435b8161431f565b9050919050565b7f455243313135353a206d696e7420746f20746865207a65726f2061646472657360008201527f7300000000000000000000000000000000000000000000000000000000000000602082015250565b60006143be602183613029565b91506143c982614362565b604082019050919050565b600060208201905081810360008301526143ed816143b1565b9050919050565b60006040820190506144096000830185612d7d565b6144166020830184612d7d565b9392505050565b7f455243313135353a2073657474696e6720617070726f76616c2073746174757360008201527f20666f722073656c660000000000000000000000000000000000000000000000602082015250565b6000614479602983613029565b91506144848261441d565b604082019050919050565b600060208201905081810360008301526144a88161446c565b9050919050565b600081519050919050565b600082825260208201905092915050565b60006144d6826144af565b6144e081856144ba565b93506144f081856020860161303a565b6144f981612e6c565b840191505092915050565b600060a08201905061451960008301886135a6565b61452660208301876135a6565b8181036040830152614538818661349b565b9050818103606083015261454c818561349b565b9050818103608083015261456081846144cb565b90509695505050505050565b60008151905061457b81612dd3565b92915050565b60006020828403121561459757614596612c9f565b5b60006145a58482850161456c565b91505092915050565b60008160e01c9050919050565b600060033d11156145da5760046000803e6145d76000516145ae565b90505b90565b600060443d10156145ed57614670565b6145f5612c95565b60043d036004823e80513d602482011167ffffffffffffffff8211171561461d575050614670565b808201805167ffffffffffffffff81111561463b5750505050614670565b80602083010160043d038501811115614658575050505050614670565b61466782602001850186612eac565b82955050505050505b90565b7f455243313135353a207472616e7366657220746f206e6f6e204552433131353560008201527f526563656976657220696d706c656d656e746572000000000000000000000000602082015250565b60006146cf603483613029565b91506146da82614673565b604082019050919050565b600060208201905081810360008301526146fe816146c2565b9050919050565b7f455243313135353a204552433131353552656365697665722072656a6563746560008201527f6420746f6b656e73000000000000000000000000000000000000000000000000602082015250565b6000614761602883613029565b915061476c82614705565b604082019050919050565b6000602082019050818103600083015261479081614754565b9050919050565b600060a0820190506147ac60008301886135a6565b6147b960208301876135a6565b6147c66040830186612d7d565b6147d36060830185612d7d565b81810360808301526147e581846144cb565b9050969550505050505056fea2646970667358221220b0af9c3c7de912bb882601bda4b98e4ccd4068f3bf8537b6aa1a5d09e9c5515964736f6c6343000809003320697066733a2f2f516d524a4e4751776f57737077386e4b4c79624172666d6268674e614455366d6b5068523975676f454d4d367a342f7b69647d2e6a736f6e",
  "immutableReferences": {},
  "source": "// SPDX-License-Identifier: MIT\npragma solidity ^0.8.7;\n\nimport \"@openzeppelin/contracts/token/ERC1155/ERC1155.sol\";\nimport \"@openzeppelin/contracts/access/Ownable.sol\";\nimport \"@openzeppelin/contracts/security/Pausable.sol\";\nimport \"@openzeppelin/contracts/token/ERC1155/extensions/ERC1155Burnable.sol\";\nimport \"@openzeppelin/contracts/token/ERC1155/extensions/ERC1155Supply.sol\";\n\n/// @custom:security-contact rahuljaguste@gmail.com\ncontract VendingMachine is\n    ERC1155,\n    Ownable,\n    Pausable,\n    ERC1155Burnable,\n    ERC1155Supply\n{\n    uint256 public price = 0 ether;\n\n    mapping(address => uint256) addressBalances;\n    uint256 public maxTokens = 60;\n    uint256 public tokenId = 0;\n\n    constructor()\n        ERC1155(\n            \" ipfs://QmRJNGQwoWspw8nKLybArfmbhgNaDU6mkPhR9ugoEMM6z4/{id}.json\"\n        )\n    {}\n\n    function setURI(string memory newuri) public onlyOwner {\n        _setURI(newuri);\n    }\n\n    function pause() public onlyOwner {\n        _pause();\n    }\n\n    function unpause() public onlyOwner {\n        _unpause();\n    }\n\n    function mint(uint256 id) public payable {\n        require(msg.value >= price, \"Insufficient balance to Mint\");\n        require(tokenId < maxTokens, \"Out of Tokens\");\n        require(addressBalances[msg.sender] <= 3, \"You can mint only 3\");\n        require(totalSupply(id) < 5, \"You can mint only 5\");\n\n        addressBalances[msg.sender] += 1;\n        tokenId++;\n        _mint(msg.sender, id, 1, \"\");\n    }\n\n    function _beforeTokenTransfer(\n        address operator,\n        address from,\n        address to,\n        uint256[] memory ids,\n        uint256[] memory amounts,\n        bytes memory data\n    ) internal override(ERC1155, ERC1155Supply) whenNotPaused {\n        super._beforeTokenTransfer(operator, from, to, ids, amounts, data);\n    }\n\n    function setPrice(uint256 _price) public onlyOwner {\n        price = _price;\n    }\n\n    function withdraw(uint256 _amount) public payable onlyOwner {\n        require(payable(msg.sender).send(_amount));\n    }\n\n    function withdrawAll() public payable onlyOwner {\n        require(payable(msg.sender).send(address(this).balance));\n    }\n\n    function refill(uint256 _additionalTokens) public onlyOwner {\n        require(_additionalTokens % 12 == 0, \"Refill must be multiple of 12\");\n        require(\n            tokenId == maxTokens,\n            \"Refill can only be done when all tokens are minted\"\n        );\n        maxTokens += _additionalTokens;\n    }\n\n    function getTokenLeft(uint256 id) public view returns (uint256) {\n        return 5 - totalSupply(id);\n    }\n}\n",
  "sourcePath": "/Users/rj/2021Projects/blockchain/EthGlobal-Hackathon/Truffle/contracts/VendingMachine.sol",
  "compiler": {
    "name": "solc",
    "version": "0.8.9+commit.e5eed63a.Emscripten.clang"
  },
  "schemaVersion": "3.4.4",
  "updatedAt": "2022-01-15T12:37:26.900Z",
  "networkType": "ethereum",
  "devdoc": {
    "custom:security-contact": "rahuljaguste@gmail.com",
    "kind": "dev",
    "methods": {
      "balanceOf(address,uint256)": {
        "details": "See {IERC1155-balanceOf}. Requirements: - `account` cannot be the zero address."
      },
      "balanceOfBatch(address[],uint256[])": {
        "details": "See {IERC1155-balanceOfBatch}. Requirements: - `accounts` and `ids` must have the same length."
      },
      "exists(uint256)": {
        "details": "Indicates whether any token exist with a given id, or not."
      },
      "isApprovedForAll(address,address)": {
        "details": "See {IERC1155-isApprovedForAll}."
      },
      "owner()": {
        "details": "Returns the address of the current owner."
      },
      "paused()": {
        "details": "Returns true if the contract is paused, and false otherwise."
      },
      "renounceOwnership()": {
        "details": "Leaves the contract without owner. It will not be possible to call `onlyOwner` functions anymore. Can only be called by the current owner. NOTE: Renouncing ownership will leave the contract without an owner, thereby removing any functionality that is only available to the owner."
      },
      "safeBatchTransferFrom(address,address,uint256[],uint256[],bytes)": {
        "details": "See {IERC1155-safeBatchTransferFrom}."
      },
      "safeTransferFrom(address,address,uint256,uint256,bytes)": {
        "details": "See {IERC1155-safeTransferFrom}."
      },
      "setApprovalForAll(address,bool)": {
        "details": "See {IERC1155-setApprovalForAll}."
      },
      "supportsInterface(bytes4)": {
        "details": "See {IERC165-supportsInterface}."
      },
      "totalSupply(uint256)": {
        "details": "Total amount of tokens in with a given id."
      },
      "transferOwnership(address)": {
        "details": "Transfers ownership of the contract to a new account (`newOwner`). Can only be called by the current owner."
      },
      "uri(uint256)": {
        "details": "See {IERC1155MetadataURI-uri}. This implementation returns the same URI for *all* token types. It relies on the token type ID substitution mechanism https://eips.ethereum.org/EIPS/eip-1155#metadata[defined in the EIP]. Clients calling this function must replace the `\\{id\\}` substring with the actual token type ID."
      }
    },
    "version": 1
  },
  "userdoc": {
    "kind": "user",
    "methods": {},
    "version": 1
  }
}