{
  "contractName": "VendingMachine",
  "abi": [
    {
      "inputs": [],
      "stateMutability": "nonpayable",
      "type": "constructor"
    },
    {
      "anonymous": false,
      "inputs": [
        {
          "indexed": true,
          "internalType": "address",
          "name": "account",
          "type": "address"
        },
        {
          "indexed": true,
          "internalType": "address",
          "name": "operator",
          "type": "address"
        },
        {
          "indexed": false,
          "internalType": "bool",
          "name": "approved",
          "type": "bool"
        }
      ],
      "name": "ApprovalForAll",
      "type": "event"
    },
    {
      "anonymous": false,
      "inputs": [
        {
          "indexed": true,
          "internalType": "address",
          "name": "to",
          "type": "address"
        },
        {
          "indexed": true,
          "internalType": "uint256",
          "name": "tokenId",
          "type": "uint256"
        },
        {
          "indexed": true,
          "internalType": "uint256",
          "name": "amount",
          "type": "uint256"
        }
      ],
      "name": "Minted",
      "type": "event"
    },
    {
      "anonymous": false,
      "inputs": [
        {
          "indexed": true,
          "internalType": "address",
          "name": "previousOwner",
          "type": "address"
        },
        {
          "indexed": true,
          "internalType": "address",
          "name": "newOwner",
          "type": "address"
        }
      ],
      "name": "OwnershipTransferred",
      "type": "event"
    },
    {
      "anonymous": false,
      "inputs": [
        {
          "indexed": false,
          "internalType": "address",
          "name": "account",
          "type": "address"
        }
      ],
      "name": "Paused",
      "type": "event"
    },
    {
      "anonymous": false,
      "inputs": [
        {
          "indexed": true,
          "internalType": "address",
          "name": "operator",
          "type": "address"
        },
        {
          "indexed": true,
          "internalType": "address",
          "name": "from",
          "type": "address"
        },
        {
          "indexed": true,
          "internalType": "address",
          "name": "to",
          "type": "address"
        },
        {
          "indexed": false,
          "internalType": "uint256[]",
          "name": "ids",
          "type": "uint256[]"
        },
        {
          "indexed": false,
          "internalType": "uint256[]",
          "name": "values",
          "type": "uint256[]"
        }
      ],
      "name": "TransferBatch",
      "type": "event"
    },
    {
      "anonymous": false,
      "inputs": [
        {
          "indexed": true,
          "internalType": "address",
          "name": "operator",
          "type": "address"
        },
        {
          "indexed": true,
          "internalType": "address",
          "name": "from",
          "type": "address"
        },
        {
          "indexed": true,
          "internalType": "address",
          "name": "to",
          "type": "address"
        },
        {
          "indexed": false,
          "internalType": "uint256",
          "name": "id",
          "type": "uint256"
        },
        {
          "indexed": false,
          "internalType": "uint256",
          "name": "value",
          "type": "uint256"
        }
      ],
      "name": "TransferSingle",
      "type": "event"
    },
    {
      "anonymous": false,
      "inputs": [
        {
          "indexed": false,
          "internalType": "string",
          "name": "value",
          "type": "string"
        },
        {
          "indexed": true,
          "internalType": "uint256",
          "name": "id",
          "type": "uint256"
        }
      ],
      "name": "URI",
      "type": "event"
    },
    {
      "anonymous": false,
      "inputs": [
        {
          "indexed": false,
          "internalType": "address",
          "name": "account",
          "type": "address"
        }
      ],
      "name": "Unpaused",
      "type": "event"
    },
    {
      "inputs": [
        {
          "internalType": "address",
          "name": "account",
          "type": "address"
        },
        {
          "internalType": "uint256",
          "name": "id",
          "type": "uint256"
        }
      ],
      "name": "balanceOf",
      "outputs": [
        {
          "internalType": "uint256",
          "name": "",
          "type": "uint256"
        }
      ],
      "stateMutability": "view",
      "type": "function",
      "constant": true
    },
    {
      "inputs": [
        {
          "internalType": "address[]",
          "name": "accounts",
          "type": "address[]"
        },
        {
          "internalType": "uint256[]",
          "name": "ids",
          "type": "uint256[]"
        }
      ],
      "name": "balanceOfBatch",
      "outputs": [
        {
          "internalType": "uint256[]",
          "name": "",
          "type": "uint256[]"
        }
      ],
      "stateMutability": "view",
      "type": "function",
      "constant": true
    },
    {
      "inputs": [
        {
          "internalType": "address",
          "name": "account",
          "type": "address"
        },
        {
          "internalType": "uint256",
          "name": "id",
          "type": "uint256"
        },
        {
          "internalType": "uint256",
          "name": "value",
          "type": "uint256"
        }
      ],
      "name": "burn",
      "outputs": [],
      "stateMutability": "nonpayable",
      "type": "function"
    },
    {
      "inputs": [
        {
          "internalType": "address",
          "name": "account",
          "type": "address"
        },
        {
          "internalType": "uint256[]",
          "name": "ids",
          "type": "uint256[]"
        },
        {
          "internalType": "uint256[]",
          "name": "values",
          "type": "uint256[]"
        }
      ],
      "name": "burnBatch",
      "outputs": [],
      "stateMutability": "nonpayable",
      "type": "function"
    },
    {
      "inputs": [],
      "name": "countPerSlot",
      "outputs": [
        {
          "internalType": "uint256",
          "name": "",
          "type": "uint256"
        }
      ],
      "stateMutability": "view",
      "type": "function",
      "constant": true
    },
    {
      "inputs": [
        {
          "internalType": "uint256",
          "name": "id",
          "type": "uint256"
        }
      ],
      "name": "exists",
      "outputs": [
        {
          "internalType": "bool",
          "name": "",
          "type": "bool"
        }
      ],
      "stateMutability": "view",
      "type": "function",
      "constant": true
    },
    {
      "inputs": [
        {
          "internalType": "address",
          "name": "account",
          "type": "address"
        },
        {
          "internalType": "address",
          "name": "operator",
          "type": "address"
        }
      ],
      "name": "isApprovedForAll",
      "outputs": [
        {
          "internalType": "bool",
          "name": "",
          "type": "bool"
        }
      ],
      "stateMutability": "view",
      "type": "function",
      "constant": true
    },
    {
      "inputs": [],
      "name": "maxTokens",
      "outputs": [
        {
          "internalType": "uint256",
          "name": "",
          "type": "uint256"
        }
      ],
      "stateMutability": "view",
      "type": "function",
      "constant": true
    },
    {
      "inputs": [],
      "name": "owner",
      "outputs": [
        {
          "internalType": "address",
          "name": "",
          "type": "address"
        }
      ],
      "stateMutability": "view",
      "type": "function",
      "constant": true
    },
    {
      "inputs": [],
      "name": "paused",
      "outputs": [
        {
          "internalType": "bool",
          "name": "",
          "type": "bool"
        }
      ],
      "stateMutability": "view",
      "type": "function",
      "constant": true
    },
    {
      "inputs": [],
      "name": "price",
      "outputs": [
        {
          "internalType": "uint256",
          "name": "",
          "type": "uint256"
        }
      ],
      "stateMutability": "view",
      "type": "function",
      "constant": true
    },
    {
      "inputs": [],
      "name": "renounceOwnership",
      "outputs": [],
      "stateMutability": "nonpayable",
      "type": "function"
    },
    {
      "inputs": [
        {
          "internalType": "address",
          "name": "from",
          "type": "address"
        },
        {
          "internalType": "address",
          "name": "to",
          "type": "address"
        },
        {
          "internalType": "uint256[]",
          "name": "ids",
          "type": "uint256[]"
        },
        {
          "internalType": "uint256[]",
          "name": "amounts",
          "type": "uint256[]"
        },
        {
          "internalType": "bytes",
          "name": "data",
          "type": "bytes"
        }
      ],
      "name": "safeBatchTransferFrom",
      "outputs": [],
      "stateMutability": "nonpayable",
      "type": "function"
    },
    {
      "inputs": [
        {
          "internalType": "address",
          "name": "from",
          "type": "address"
        },
        {
          "internalType": "address",
          "name": "to",
          "type": "address"
        },
        {
          "internalType": "uint256",
          "name": "id",
          "type": "uint256"
        },
        {
          "internalType": "uint256",
          "name": "amount",
          "type": "uint256"
        },
        {
          "internalType": "bytes",
          "name": "data",
          "type": "bytes"
        }
      ],
      "name": "safeTransferFrom",
      "outputs": [],
      "stateMutability": "nonpayable",
      "type": "function"
    },
    {
      "inputs": [
        {
          "internalType": "address",
          "name": "operator",
          "type": "address"
        },
        {
          "internalType": "bool",
          "name": "approved",
          "type": "bool"
        }
      ],
      "name": "setApprovalForAll",
      "outputs": [],
      "stateMutability": "nonpayable",
      "type": "function"
    },
    {
      "inputs": [
        {
          "internalType": "bytes4",
          "name": "interfaceId",
          "type": "bytes4"
        }
      ],
      "name": "supportsInterface",
      "outputs": [
        {
          "internalType": "bool",
          "name": "",
          "type": "bool"
        }
      ],
      "stateMutability": "view",
      "type": "function",
      "constant": true
    },
    {
      "inputs": [],
      "name": "tokenId",
      "outputs": [
        {
          "internalType": "uint256",
          "name": "",
          "type": "uint256"
        }
      ],
      "stateMutability": "view",
      "type": "function",
      "constant": true
    },
    {
      "inputs": [
        {
          "internalType": "uint256",
          "name": "id",
          "type": "uint256"
        }
      ],
      "name": "totalSupply",
      "outputs": [
        {
          "internalType": "uint256",
          "name": "",
          "type": "uint256"
        }
      ],
      "stateMutability": "view",
      "type": "function",
      "constant": true
    },
    {
      "inputs": [
        {
          "internalType": "address",
          "name": "newOwner",
          "type": "address"
        }
      ],
      "name": "transferOwnership",
      "outputs": [],
      "stateMutability": "nonpayable",
      "type": "function"
    },
    {
      "inputs": [
        {
          "internalType": "uint256",
          "name": "",
          "type": "uint256"
        }
      ],
      "name": "uri",
      "outputs": [
        {
          "internalType": "string",
          "name": "",
          "type": "string"
        }
      ],
      "stateMutability": "view",
      "type": "function",
      "constant": true
    },
    {
      "inputs": [
        {
          "internalType": "string",
          "name": "newuri",
          "type": "string"
        }
      ],
      "name": "setURI",
      "outputs": [],
      "stateMutability": "nonpayable",
      "type": "function"
    },
    {
      "inputs": [],
      "name": "pause",
      "outputs": [],
      "stateMutability": "nonpayable",
      "type": "function"
    },
    {
      "inputs": [],
      "name": "unpause",
      "outputs": [],
      "stateMutability": "nonpayable",
      "type": "function"
    },
    {
      "inputs": [
        {
          "internalType": "uint256",
          "name": "id",
          "type": "uint256"
        }
      ],
      "name": "mint",
      "outputs": [],
      "stateMutability": "payable",
      "type": "function",
      "payable": true
    },
    {
      "inputs": [
        {
          "internalType": "uint256",
          "name": "_price",
          "type": "uint256"
        }
      ],
      "name": "setPrice",
      "outputs": [],
      "stateMutability": "nonpayable",
      "type": "function"
    },
    {
      "inputs": [
        {
          "internalType": "uint256",
          "name": "_amount",
          "type": "uint256"
        }
      ],
      "name": "withdraw",
      "outputs": [],
      "stateMutability": "payable",
      "type": "function",
      "payable": true
    },
    {
      "inputs": [],
      "name": "withdrawAll",
      "outputs": [],
      "stateMutability": "payable",
      "type": "function",
      "payable": true
    },
    {
      "inputs": [
        {
          "internalType": "uint256",
          "name": "_additionalTokens",
          "type": "uint256"
        },
        {
          "internalType": "uint256",
          "name": "_countPerSlot",
          "type": "uint256"
        }
      ],
      "name": "refill",
      "outputs": [],
      "stateMutability": "nonpayable",
      "type": "function"
    },
    {
      "inputs": [],
      "name": "reset",
      "outputs": [],
      "stateMutability": "nonpayable",
      "type": "function"
    },
    {
      "inputs": [],
      "name": "isOutOfTokens",
      "outputs": [
        {
          "internalType": "bool",
          "name": "",
          "type": "bool"
        }
      ],
      "stateMutability": "view",
      "type": "function",
      "constant": true
    },
    {
      "inputs": [],
      "name": "getCurrentTokenCount",
      "outputs": [
        {
          "internalType": "uint256",
          "name": "",
          "type": "uint256"
        }
      ],
      "stateMutability": "view",
      "type": "function",
      "constant": true
    },
    {
      "inputs": [
        {
          "internalType": "uint256",
          "name": "id",
          "type": "uint256"
        }
      ],
      "name": "getTokenLeft",
      "outputs": [
        {
          "internalType": "uint256",
          "name": "",
          "type": "uint256"
        }
      ],
      "stateMutability": "view",
      "type": "function",
      "constant": true
    }
  ],
  "bytecode": "0x60806040526000600555603c600755600060085560056009553480156200002557600080fd5b506040518060600160405280603f815260200162004da9603f913962000051816200009360201b60201c565b506200007262000066620000af60201b60201c565b620000b760201b60201c565b6000600360146101000a81548160ff02191690831515021790555062000292565b8060029080519060200190620000ab9291906200017d565b5050565b600033905090565b6000600360009054906101000a900473ffffffffffffffffffffffffffffffffffffffff16905081600360006101000a81548173ffffffffffffffffffffffffffffffffffffffff021916908373ffffffffffffffffffffffffffffffffffffffff1602179055508173ffffffffffffffffffffffffffffffffffffffff168173ffffffffffffffffffffffffffffffffffffffff167f8be0079c531659141344cd1fd0a4f28419497f9722a3daafe3b4186f6b6457e060405160405180910390a35050565b8280546200018b906200025c565b90600052602060002090601f016020900481019282620001af5760008555620001fb565b82601f10620001ca57805160ff1916838001178555620001fb565b82800160010185558215620001fb579182015b82811115620001fa578251825591602001919060010190620001dd565b5b5090506200020a91906200020e565b5090565b5b80821115620002295760008160009055506001016200020f565b5090565b7f4e487b7100000000000000000000000000000000000000000000000000000000600052602260045260246000fd5b600060028204905060018216806200027557607f821691505b602082108114156200028c576200028b6200022d565b5b50919050565b614b0780620002a26000396000f3fe6080604052600436106101e25760003560e01c8063853828b611610102578063bd85b03911610095578063e985e9c511610064578063e985e9c51461067e578063f242432a146106bb578063f2fde38b146106e4578063f5298aca1461070d576101e2565b8063bd85b039146105d4578063c6cf868a14610611578063d826f88f1461063c578063e831574214610653576101e2565b806398ebf85d116100d157806398ebf85d1461053b578063a035b1fe14610564578063a0712d681461058f578063a22cb465146105ab576101e2565b8063853828b6146104a057806387dbbb0e146104aa5780638da5cb5b146104e757806391b7f5ed14610512576101e2565b80633f4ba83a1161017a5780635c975abb116101495780635c975abb1461041e5780636b20c45414610449578063715018a6146104725780638456cb5914610489576101e2565b80633f4ba83a146103625780634e1273f4146103795780634f558e79146103b65780635b24fb6a146103f3576101e2565b806317d70f7c116101b657806317d70f7c146102c75780632e1a7d4d146102f25780632eb2c2d61461030e5780633845c48114610337576101e2565b8062fdd58e146101e757806301ffc9a71461022457806302fe5305146102615780630e89341c1461028a575b600080fd5b3480156101f357600080fd5b5061020e60048036038101906102099190612f17565b610736565b60405161021b9190612f66565b60405180910390f35b34801561023057600080fd5b5061024b60048036038101906102469190612fd9565b6107ff565b6040516102589190613021565b60405180910390f35b34801561026d57600080fd5b5061028860048036038101906102839190613182565b6108e1565b005b34801561029657600080fd5b506102b160048036038101906102ac91906131cb565b610969565b6040516102be9190613280565b60405180910390f35b3480156102d357600080fd5b506102dc6109fd565b6040516102e99190612f66565b60405180910390f35b61030c600480360381019061030791906131cb565b610a03565b005b34801561031a57600080fd5b506103356004803603810190610330919061340b565b610ac0565b005b34801561034357600080fd5b5061034c610b61565b6040516103599190612f66565b60405180910390f35b34801561036e57600080fd5b50610377610b67565b005b34801561038557600080fd5b506103a0600480360381019061039b919061359d565b610bed565b6040516103ad91906136d3565b60405180910390f35b3480156103c257600080fd5b506103dd60048036038101906103d891906131cb565b610d06565b6040516103ea9190613021565b60405180910390f35b3480156103ff57600080fd5b50610408610d1a565b6040516104159190613021565b60405180910390f35b34801561042a57600080fd5b50610433610d28565b6040516104409190613021565b60405180910390f35b34801561045557600080fd5b50610470600480360381019061046b91906136f5565b610d3f565b005b34801561047e57600080fd5b50610487610ddc565b005b34801561049557600080fd5b5061049e610e64565b005b6104a8610eea565b005b3480156104b657600080fd5b506104d160048036038101906104cc91906131cb565b610fa6565b6040516104de9190612f66565b60405180910390f35b3480156104f357600080fd5b506104fc610fc5565b604051610509919061378f565b60405180910390f35b34801561051e57600080fd5b50610539600480360381019061053491906131cb565b610fef565b005b34801561054757600080fd5b50610562600480360381019061055d91906137aa565b611075565b005b34801561057057600080fd5b506105796111ed565b6040516105869190612f66565b60405180910390f35b6105a960048036038101906105a491906131cb565b6111f3565b005b3480156105b757600080fd5b506105d260048036038101906105cd9190613816565b6113ff565b005b3480156105e057600080fd5b506105fb60048036038101906105f691906131cb565b611415565b6040516106089190612f66565b60405180910390f35b34801561061d57600080fd5b50610626611432565b6040516106339190612f66565b60405180910390f35b34801561064857600080fd5b5061065161143c565b005b34801561065f57600080fd5b506106686114c3565b6040516106759190612f66565b60405180910390f35b34801561068a57600080fd5b506106a560048036038101906106a09190613856565b6114c9565b6040516106b29190613021565b60405180910390f35b3480156106c757600080fd5b506106e260048036038101906106dd9190613896565b61155d565b005b3480156106f057600080fd5b5061070b6004803603810190610706919061392d565b6115fe565b005b34801561071957600080fd5b50610734600480360381019061072f919061395a565b6116f6565b005b60008073ffffffffffffffffffffffffffffffffffffffff168373ffffffffffffffffffffffffffffffffffffffff1614156107a7576040517f08c379a000000000000000000000000000000000000000000000000000000000815260040161079e90613a1f565b60405180910390fd5b60008083815260200190815260200160002060008473ffffffffffffffffffffffffffffffffffffffff1673ffffffffffffffffffffffffffffffffffffffff16815260200190815260200160002054905092915050565b60007fd9b67a26000000000000000000000000000000000000000000000000000000007bffffffffffffffffffffffffffffffffffffffffffffffffffffffff1916827bffffffffffffffffffffffffffffffffffffffffffffffffffffffff191614806108ca57507f0e89341c000000000000000000000000000000000000000000000000000000007bffffffffffffffffffffffffffffffffffffffffffffffffffffffff1916827bffffffffffffffffffffffffffffffffffffffffffffffffffffffff1916145b806108da57506108d982611793565b5b9050919050565b6108e96117fd565b73ffffffffffffffffffffffffffffffffffffffff16610907610fc5565b73ffffffffffffffffffffffffffffffffffffffff161461095d576040517f08c379a000000000000000000000000000000000000000000000000000000000815260040161095490613a8b565b60405180910390fd5b61096681611805565b50565b60606002805461097890613ada565b80601f01602080910402602001604051908101604052809291908181526020018280546109a490613ada565b80156109f15780601f106109c6576101008083540402835291602001916109f1565b820191906000526020600020905b8154815290600101906020018083116109d457829003601f168201915b50505050509050919050565b60085481565b610a0b6117fd565b73ffffffffffffffffffffffffffffffffffffffff16610a29610fc5565b73ffffffffffffffffffffffffffffffffffffffff1614610a7f576040517f08c379a0000000000000000000000000000000000000000000000000000000008152600401610a7690613a8b565b60405180910390fd5b3373ffffffffffffffffffffffffffffffffffffffff166108fc829081150290604051600060405180830381858888f19350505050610abd57600080fd5b50565b610ac86117fd565b73ffffffffffffffffffffffffffffffffffffffff168573ffffffffffffffffffffffffffffffffffffffff161480610b0e5750610b0d85610b086117fd565b6114c9565b5b610b4d576040517f08c379a0000000000000000000000000000000000000000000000000000000008152600401610b4490613b7e565b60405180910390fd5b610b5a858585858561181f565b5050505050565b60095481565b610b6f6117fd565b73ffffffffffffffffffffffffffffffffffffffff16610b8d610fc5565b73ffffffffffffffffffffffffffffffffffffffff1614610be3576040517f08c379a0000000000000000000000000000000000000000000000000000000008152600401610bda90613a8b565b60405180910390fd5b610beb611b33565b565b60608151835114610c33576040517f08c379a0000000000000000000000000000000000000000000000000000000008152600401610c2a90613c10565b60405180910390fd5b6000835167ffffffffffffffff811115610c5057610c4f613057565b5b604051908082528060200260200182016040528015610c7e5781602001602082028036833780820191505090505b50905060005b8451811015610cfb57610ccb858281518110610ca357610ca2613c30565b5b6020026020010151858381518110610cbe57610cbd613c30565b5b6020026020010151610736565b828281518110610cde57610cdd613c30565b5b60200260200101818152505080610cf490613c8e565b9050610c84565b508091505092915050565b600080610d1283611415565b119050919050565b600060075460085414905090565b6000600360149054906101000a900460ff16905090565b610d476117fd565b73ffffffffffffffffffffffffffffffffffffffff168373ffffffffffffffffffffffffffffffffffffffff161480610d8d5750610d8c83610d876117fd565b6114c9565b5b610dcc576040517f08c379a0000000000000000000000000000000000000000000000000000000008152600401610dc390613d49565b60405180910390fd5b610dd7838383611bd5565b505050565b610de46117fd565b73ffffffffffffffffffffffffffffffffffffffff16610e02610fc5565b73ffffffffffffffffffffffffffffffffffffffff1614610e58576040517f08c379a0000000000000000000000000000000000000000000000000000000008152600401610e4f90613a8b565b60405180910390fd5b610e626000611e86565b565b610e6c6117fd565b73ffffffffffffffffffffffffffffffffffffffff16610e8a610fc5565b73ffffffffffffffffffffffffffffffffffffffff1614610ee0576040517f08c379a0000000000000000000000000000000000000000000000000000000008152600401610ed790613a8b565b60405180910390fd5b610ee8611f4c565b565b610ef26117fd565b73ffffffffffffffffffffffffffffffffffffffff16610f10610fc5565b73ffffffffffffffffffffffffffffffffffffffff1614610f66576040517f08c379a0000000000000000000000000000000000000000000000000000000008152600401610f5d90613a8b565b60405180910390fd5b3373ffffffffffffffffffffffffffffffffffffffff166108fc479081150290604051600060405180830381858888f19350505050610fa457600080fd5b565b6000610fb182611415565b600954610fbe9190613d69565b9050919050565b6000600360009054906101000a900473ffffffffffffffffffffffffffffffffffffffff16905090565b610ff76117fd565b73ffffffffffffffffffffffffffffffffffffffff16611015610fc5565b73ffffffffffffffffffffffffffffffffffffffff161461106b576040517f08c379a000000000000000000000000000000000000000000000000000000000815260040161106290613a8b565b60405180910390fd5b8060058190555050565b61107d6117fd565b73ffffffffffffffffffffffffffffffffffffffff1661109b610fc5565b73ffffffffffffffffffffffffffffffffffffffff16146110f1576040517f08c379a00000000000000000000000000000000000000000000000000000000081526004016110e890613a8b565b60405180910390fd5b6000600c836111009190613dcc565b14611140576040517f08c379a000000000000000000000000000000000000000000000000000000000815260040161113790613e49565b60405180910390fd5b60075460085414611186576040517f08c379a000000000000000000000000000000000000000000000000000000000815260040161117d90613edb565b60405180910390fd5b600081116111c9576040517f08c379a00000000000000000000000000000000000000000000000000000000081526004016111c090613f47565b60405180910390fd5b8060098190555081600760008282546111e29190613f67565b925050819055505050565b60055481565b60056111fe82611415565b1061123e576040517f08c379a000000000000000000000000000000000000000000000000000000000815260040161123590614009565b60405180910390fd5b600554341015611283576040517f08c379a000000000000000000000000000000000000000000000000000000000815260040161127a90614075565b60405180910390fd5b600754600854106112c9576040517f08c379a00000000000000000000000000000000000000000000000000000000081526004016112c0906140e1565b60405180910390fd5b6003600660003373ffffffffffffffffffffffffffffffffffffffff1673ffffffffffffffffffffffffffffffffffffffff16815260200190815260200160002054111561134c576040517f08c379a00000000000000000000000000000000000000000000000000000000081526004016113439061414d565b60405180910390fd5b600081600c61135a84611415565b611364919061416d565b61136e9190613f67565b90506001600660003373ffffffffffffffffffffffffffffffffffffffff1673ffffffffffffffffffffffffffffffffffffffff16815260200190815260200160002060008282546113c09190613f67565b92505081905550600860008154809291906113da90613c8e565b91905055506113fb3382600160405180602001604052806000815250611fef565b5050565b61141161140a6117fd565b8383612185565b5050565b600060046000838152602001908152602001600020549050919050565b6000600854905090565b6114446117fd565b73ffffffffffffffffffffffffffffffffffffffff16611462610fc5565b73ffffffffffffffffffffffffffffffffffffffff16146114b8576040517f08c379a00000000000000000000000000000000000000000000000000000000081526004016114af90613a8b565b60405180910390fd5b600754600881905550565b60075481565b6000600160008473ffffffffffffffffffffffffffffffffffffffff1673ffffffffffffffffffffffffffffffffffffffff16815260200190815260200160002060008373ffffffffffffffffffffffffffffffffffffffff1673ffffffffffffffffffffffffffffffffffffffff16815260200190815260200160002060009054906101000a900460ff16905092915050565b6115656117fd565b73ffffffffffffffffffffffffffffffffffffffff168573ffffffffffffffffffffffffffffffffffffffff1614806115ab57506115aa856115a56117fd565b6114c9565b5b6115ea576040517f08c379a00000000000000000000000000000000000000000000000000000000081526004016115e190613d49565b60405180910390fd5b6115f785858585856122f2565b5050505050565b6116066117fd565b73ffffffffffffffffffffffffffffffffffffffff16611624610fc5565b73ffffffffffffffffffffffffffffffffffffffff161461167a576040517f08c379a000000000000000000000000000000000000000000000000000000000815260040161167190613a8b565b60405180910390fd5b600073ffffffffffffffffffffffffffffffffffffffff168173ffffffffffffffffffffffffffffffffffffffff1614156116ea576040517f08c379a00000000000000000000000000000000000000000000000000000000081526004016116e190614239565b60405180910390fd5b6116f381611e86565b50565b6116fe6117fd565b73ffffffffffffffffffffffffffffffffffffffff168373ffffffffffffffffffffffffffffffffffffffff16148061174457506117438361173e6117fd565b6114c9565b5b611783576040517f08c379a000000000000000000000000000000000000000000000000000000000815260040161177a90613d49565b60405180910390fd5b61178e838383612574565b505050565b60007f01ffc9a7000000000000000000000000000000000000000000000000000000007bffffffffffffffffffffffffffffffffffffffffffffffffffffffff1916827bffffffffffffffffffffffffffffffffffffffffffffffffffffffff1916149050919050565b600033905090565b806002908051906020019061181b929190612dcc565b5050565b8151835114611863576040517f08c379a000000000000000000000000000000000000000000000000000000000815260040161185a906142cb565b60405180910390fd5b600073ffffffffffffffffffffffffffffffffffffffff168473ffffffffffffffffffffffffffffffffffffffff1614156118d3576040517f08c379a00000000000000000000000000000000000000000000000000000000081526004016118ca9061435d565b60405180910390fd5b60006118dd6117fd565b90506118ed818787878787612791565b60005b8451811015611a9e57600085828151811061190e5761190d613c30565b5b60200260200101519050600085838151811061192d5761192c613c30565b5b60200260200101519050600080600084815260200190815260200160002060008b73ffffffffffffffffffffffffffffffffffffffff1673ffffffffffffffffffffffffffffffffffffffff168152602001908152602001600020549050818110156119ce576040517f08c379a00000000000000000000000000000000000000000000000000000000081526004016119c5906143ef565b60405180910390fd5b81810360008085815260200190815260200160002060008c73ffffffffffffffffffffffffffffffffffffffff1673ffffffffffffffffffffffffffffffffffffffff168152602001908152602001600020819055508160008085815260200190815260200160002060008b73ffffffffffffffffffffffffffffffffffffffff1673ffffffffffffffffffffffffffffffffffffffff1681526020019081526020016000206000828254611a839190613f67565b9250508190555050505080611a9790613c8e565b90506118f0565b508473ffffffffffffffffffffffffffffffffffffffff168673ffffffffffffffffffffffffffffffffffffffff168273ffffffffffffffffffffffffffffffffffffffff167f4a39dc06d4c0dbc64b70af90fd698a233a518aa5d07e595d983b8c0526c8f7fb8787604051611b1592919061440f565b60405180910390a4611b2b8187878787876127ef565b505050505050565b611b3b610d28565b611b7a576040517f08c379a0000000000000000000000000000000000000000000000000000000008152600401611b7190614492565b60405180910390fd5b6000600360146101000a81548160ff0219169083151502179055507f5db9ee0a495bf2e6ff9c91a7834c1ba4fdd244a5e8aa4e537bd38aeae4b073aa611bbe6117fd565b604051611bcb919061378f565b60405180910390a1565b600073ffffffffffffffffffffffffffffffffffffffff168373ffffffffffffffffffffffffffffffffffffffff161415611c45576040517f08c379a0000000000000000000000000000000000000000000000000000000008152600401611c3c90614524565b60405180910390fd5b8051825114611c89576040517f08c379a0000000000000000000000000000000000000000000000000000000008152600401611c80906142cb565b60405180910390fd5b6000611c936117fd565b9050611cb381856000868660405180602001604052806000815250612791565b60005b8351811015611e00576000848281518110611cd457611cd3613c30565b5b602002602001015190506000848381518110611cf357611cf2613c30565b5b60200260200101519050600080600084815260200190815260200160002060008973ffffffffffffffffffffffffffffffffffffffff1673ffffffffffffffffffffffffffffffffffffffff16815260200190815260200160002054905081811015611d94576040517f08c379a0000000000000000000000000000000000000000000000000000000008152600401611d8b906145b6565b60405180910390fd5b81810360008085815260200190815260200160002060008a73ffffffffffffffffffffffffffffffffffffffff1673ffffffffffffffffffffffffffffffffffffffff168152602001908152602001600020819055505050508080611df890613c8e565b915050611cb6565b50600073ffffffffffffffffffffffffffffffffffffffff168473ffffffffffffffffffffffffffffffffffffffff168273ffffffffffffffffffffffffffffffffffffffff167f4a39dc06d4c0dbc64b70af90fd698a233a518aa5d07e595d983b8c0526c8f7fb8686604051611e7892919061440f565b60405180910390a450505050565b6000600360009054906101000a900473ffffffffffffffffffffffffffffffffffffffff16905081600360006101000a81548173ffffffffffffffffffffffffffffffffffffffff021916908373ffffffffffffffffffffffffffffffffffffffff1602179055508173ffffffffffffffffffffffffffffffffffffffff168173ffffffffffffffffffffffffffffffffffffffff167f8be0079c531659141344cd1fd0a4f28419497f9722a3daafe3b4186f6b6457e060405160405180910390a35050565b611f54610d28565b15611f94576040517f08c379a0000000000000000000000000000000000000000000000000000000008152600401611f8b90614622565b60405180910390fd5b6001600360146101000a81548160ff0219169083151502179055507f62e78cea01bee320cd4e420270b5ea74000d11b0c9f74754ebdbfc544b05a258611fd86117fd565b604051611fe5919061378f565b60405180910390a1565b600073ffffffffffffffffffffffffffffffffffffffff168473ffffffffffffffffffffffffffffffffffffffff16141561205f576040517f08c379a0000000000000000000000000000000000000000000000000000000008152600401612056906146b4565b60405180910390fd5b60006120696117fd565b905061208a8160008761207b886129d6565b612084886129d6565b87612791565b8260008086815260200190815260200160002060008773ffffffffffffffffffffffffffffffffffffffff1673ffffffffffffffffffffffffffffffffffffffff16815260200190815260200160002060008282546120e99190613f67565b925050819055508473ffffffffffffffffffffffffffffffffffffffff16600073ffffffffffffffffffffffffffffffffffffffff168273ffffffffffffffffffffffffffffffffffffffff167fc3d58168c5ae7397731d063d5bbf3d657854427343f4c083240f7aacaa2d0f6287876040516121679291906146d4565b60405180910390a461217e81600087878787612a50565b5050505050565b8173ffffffffffffffffffffffffffffffffffffffff168373ffffffffffffffffffffffffffffffffffffffff1614156121f4576040517f08c379a00000000000000000000000000000000000000000000000000000000081526004016121eb9061476f565b60405180910390fd5b80600160008573ffffffffffffffffffffffffffffffffffffffff1673ffffffffffffffffffffffffffffffffffffffff16815260200190815260200160002060008473ffffffffffffffffffffffffffffffffffffffff1673ffffffffffffffffffffffffffffffffffffffff16815260200190815260200160002060006101000a81548160ff0219169083151502179055508173ffffffffffffffffffffffffffffffffffffffff168373ffffffffffffffffffffffffffffffffffffffff167f17307eab39ab6107e8899845ad3d59bd9653f200f220920489ca2b5937696c31836040516122e59190613021565b60405180910390a3505050565b600073ffffffffffffffffffffffffffffffffffffffff168473ffffffffffffffffffffffffffffffffffffffff161415612362576040517f08c379a00000000000000000000000000000000000000000000000000000000081526004016123599061435d565b60405180910390fd5b600061236c6117fd565b905061238c81878761237d886129d6565b612386886129d6565b87612791565b600080600086815260200190815260200160002060008873ffffffffffffffffffffffffffffffffffffffff1673ffffffffffffffffffffffffffffffffffffffff16815260200190815260200160002054905083811015612423576040517f08c379a000000000000000000000000000000000000000000000000000000000815260040161241a906143ef565b60405180910390fd5b83810360008087815260200190815260200160002060008973ffffffffffffffffffffffffffffffffffffffff1673ffffffffffffffffffffffffffffffffffffffff168152602001908152602001600020819055508360008087815260200190815260200160002060008873ffffffffffffffffffffffffffffffffffffffff1673ffffffffffffffffffffffffffffffffffffffff16815260200190815260200160002060008282546124d89190613f67565b925050819055508573ffffffffffffffffffffffffffffffffffffffff168773ffffffffffffffffffffffffffffffffffffffff168373ffffffffffffffffffffffffffffffffffffffff167fc3d58168c5ae7397731d063d5bbf3d657854427343f4c083240f7aacaa2d0f6288886040516125559291906146d4565b60405180910390a461256b828888888888612a50565b50505050505050565b600073ffffffffffffffffffffffffffffffffffffffff168373ffffffffffffffffffffffffffffffffffffffff1614156125e4576040517f08c379a00000000000000000000000000000000000000000000000000000000081526004016125db90614524565b60405180910390fd5b60006125ee6117fd565b905061261e81856000612600876129d6565b612609876129d6565b60405180602001604052806000815250612791565b600080600085815260200190815260200160002060008673ffffffffffffffffffffffffffffffffffffffff1673ffffffffffffffffffffffffffffffffffffffff168152602001908152602001600020549050828110156126b5576040517f08c379a00000000000000000000000000000000000000000000000000000000081526004016126ac906145b6565b60405180910390fd5b82810360008086815260200190815260200160002060008773ffffffffffffffffffffffffffffffffffffffff1673ffffffffffffffffffffffffffffffffffffffff16815260200190815260200160002081905550600073ffffffffffffffffffffffffffffffffffffffff168573ffffffffffffffffffffffffffffffffffffffff168373ffffffffffffffffffffffffffffffffffffffff167fc3d58168c5ae7397731d063d5bbf3d657854427343f4c083240f7aacaa2d0f6287876040516127829291906146d4565b60405180910390a45050505050565b612799610d28565b156127d9576040517f08c379a00000000000000000000000000000000000000000000000000000000081526004016127d090614622565b60405180910390fd5b6127e7868686868686612c37565b505050505050565b61280e8473ffffffffffffffffffffffffffffffffffffffff16612db1565b156129ce578373ffffffffffffffffffffffffffffffffffffffff1663bc197c8187878686866040518663ffffffff1660e01b81526004016128549594939291906147e4565b602060405180830381600087803b15801561286e57600080fd5b505af192505050801561289f57506040513d601f19601f8201168201806040525081019061289c9190614861565b60015b612945576128ab61489b565b806308c379a0141561290857506128c06148bd565b806128cb575061290a565b806040517f08c379a00000000000000000000000000000000000000000000000000000000081526004016128ff9190613280565b60405180910390fd5b505b6040517f08c379a000000000000000000000000000000000000000000000000000000000815260040161293c906149c5565b60405180910390fd5b63bc197c8160e01b7bffffffffffffffffffffffffffffffffffffffffffffffffffffffff1916817bffffffffffffffffffffffffffffffffffffffffffffffffffffffff1916146129cc576040517f08c379a00000000000000000000000000000000000000000000000000000000081526004016129c390614a57565b60405180910390fd5b505b505050505050565b60606000600167ffffffffffffffff8111156129f5576129f4613057565b5b604051908082528060200260200182016040528015612a235781602001602082028036833780820191505090505b5090508281600081518110612a3b57612a3a613c30565b5b60200260200101818152505080915050919050565b612a6f8473ffffffffffffffffffffffffffffffffffffffff16612db1565b15612c2f578373ffffffffffffffffffffffffffffffffffffffff1663f23a6e6187878686866040518663ffffffff1660e01b8152600401612ab5959493929190614a77565b602060405180830381600087803b158015612acf57600080fd5b505af1925050508015612b0057506040513d601f19601f82011682018060405250810190612afd9190614861565b60015b612ba657612b0c61489b565b806308c379a01415612b695750612b216148bd565b80612b2c5750612b6b565b806040517f08c379a0000000000000000000000000000000000000000000000000000000008152600401612b609190613280565b60405180910390fd5b505b6040517f08c379a0000000000000000000000000000000000000000000000000000000008152600401612b9d906149c5565b60405180910390fd5b63f23a6e6160e01b7bffffffffffffffffffffffffffffffffffffffffffffffffffffffff1916817bffffffffffffffffffffffffffffffffffffffffffffffffffffffff191614612c2d576040517f08c379a0000000000000000000000000000000000000000000000000000000008152600401612c2490614a57565b60405180910390fd5b505b505050505050565b612c45868686868686612dc4565b600073ffffffffffffffffffffffffffffffffffffffff168573ffffffffffffffffffffffffffffffffffffffff161415612cf75760005b8351811015612cf557828181518110612c9957612c98613c30565b5b602002602001015160046000868481518110612cb857612cb7613c30565b5b602002602001015181526020019081526020016000206000828254612cdd9190613f67565b9250508190555080612cee90613c8e565b9050612c7d565b505b600073ffffffffffffffffffffffffffffffffffffffff168473ffffffffffffffffffffffffffffffffffffffff161415612da95760005b8351811015612da757828181518110612d4b57612d4a613c30565b5b602002602001015160046000868481518110612d6a57612d69613c30565b5b602002602001015181526020019081526020016000206000828254612d8f9190613d69565b9250508190555080612da090613c8e565b9050612d2f565b505b505050505050565b600080823b905060008111915050919050565b505050505050565b828054612dd890613ada565b90600052602060002090601f016020900481019282612dfa5760008555612e41565b82601f10612e1357805160ff1916838001178555612e41565b82800160010185558215612e41579182015b82811115612e40578251825591602001919060010190612e25565b5b509050612e4e9190612e52565b5090565b5b80821115612e6b576000816000905550600101612e53565b5090565b6000604051905090565b600080fd5b600080fd5b600073ffffffffffffffffffffffffffffffffffffffff82169050919050565b6000612eae82612e83565b9050919050565b612ebe81612ea3565b8114612ec957600080fd5b50565b600081359050612edb81612eb5565b92915050565b6000819050919050565b612ef481612ee1565b8114612eff57600080fd5b50565b600081359050612f1181612eeb565b92915050565b60008060408385031215612f2e57612f2d612e79565b5b6000612f3c85828601612ecc565b9250506020612f4d85828601612f02565b9150509250929050565b612f6081612ee1565b82525050565b6000602082019050612f7b6000830184612f57565b92915050565b60007fffffffff0000000000000000000000000000000000000000000000000000000082169050919050565b612fb681612f81565b8114612fc157600080fd5b50565b600081359050612fd381612fad565b92915050565b600060208284031215612fef57612fee612e79565b5b6000612ffd84828501612fc4565b91505092915050565b60008115159050919050565b61301b81613006565b82525050565b60006020820190506130366000830184613012565b92915050565b600080fd5b600080fd5b6000601f19601f8301169050919050565b7f4e487b7100000000000000000000000000000000000000000000000000000000600052604160045260246000fd5b61308f82613046565b810181811067ffffffffffffffff821117156130ae576130ad613057565b5b80604052505050565b60006130c1612e6f565b90506130cd8282613086565b919050565b600067ffffffffffffffff8211156130ed576130ec613057565b5b6130f682613046565b9050602081019050919050565b82818337600083830152505050565b6000613125613120846130d2565b6130b7565b90508281526020810184848401111561314157613140613041565b5b61314c848285613103565b509392505050565b600082601f8301126131695761316861303c565b5b8135613179848260208601613112565b91505092915050565b60006020828403121561319857613197612e79565b5b600082013567ffffffffffffffff8111156131b6576131b5612e7e565b5b6131c284828501613154565b91505092915050565b6000602082840312156131e1576131e0612e79565b5b60006131ef84828501612f02565b91505092915050565b600081519050919050565b600082825260208201905092915050565b60005b83811015613232578082015181840152602081019050613217565b83811115613241576000848401525b50505050565b6000613252826131f8565b61325c8185613203565b935061326c818560208601613214565b61327581613046565b840191505092915050565b6000602082019050818103600083015261329a8184613247565b905092915050565b600067ffffffffffffffff8211156132bd576132bc613057565b5b602082029050602081019050919050565b600080fd5b60006132e66132e1846132a2565b6130b7565b90508083825260208201905060208402830185811115613309576133086132ce565b5b835b81811015613332578061331e8882612f02565b84526020840193505060208101905061330b565b5050509392505050565b600082601f8301126133515761335061303c565b5b81356133618482602086016132d3565b91505092915050565b600067ffffffffffffffff82111561338557613384613057565b5b61338e82613046565b9050602081019050919050565b60006133ae6133a98461336a565b6130b7565b9050828152602081018484840111156133ca576133c9613041565b5b6133d5848285613103565b509392505050565b600082601f8301126133f2576133f161303c565b5b813561340284826020860161339b565b91505092915050565b600080600080600060a0868803121561342757613426612e79565b5b600061343588828901612ecc565b955050602061344688828901612ecc565b945050604086013567ffffffffffffffff81111561346757613466612e7e565b5b6134738882890161333c565b935050606086013567ffffffffffffffff81111561349457613493612e7e565b5b6134a08882890161333c565b925050608086013567ffffffffffffffff8111156134c1576134c0612e7e565b5b6134cd888289016133dd565b9150509295509295909350565b600067ffffffffffffffff8211156134f5576134f4613057565b5b602082029050602081019050919050565b6000613519613514846134da565b6130b7565b9050808382526020820190506020840283018581111561353c5761353b6132ce565b5b835b8181101561356557806135518882612ecc565b84526020840193505060208101905061353e565b5050509392505050565b600082601f8301126135845761358361303c565b5b8135613594848260208601613506565b91505092915050565b600080604083850312156135b4576135b3612e79565b5b600083013567ffffffffffffffff8111156135d2576135d1612e7e565b5b6135de8582860161356f565b925050602083013567ffffffffffffffff8111156135ff576135fe612e7e565b5b61360b8582860161333c565b9150509250929050565b600081519050919050565b600082825260208201905092915050565b6000819050602082019050919050565b61364a81612ee1565b82525050565b600061365c8383613641565b60208301905092915050565b6000602082019050919050565b600061368082613615565b61368a8185613620565b935061369583613631565b8060005b838110156136c65781516136ad8882613650565b97506136b883613668565b925050600181019050613699565b5085935050505092915050565b600060208201905081810360008301526136ed8184613675565b905092915050565b60008060006060848603121561370e5761370d612e79565b5b600061371c86828701612ecc565b935050602084013567ffffffffffffffff81111561373d5761373c612e7e565b5b6137498682870161333c565b925050604084013567ffffffffffffffff81111561376a57613769612e7e565b5b6137768682870161333c565b9150509250925092565b61378981612ea3565b82525050565b60006020820190506137a46000830184613780565b92915050565b600080604083850312156137c1576137c0612e79565b5b60006137cf85828601612f02565b92505060206137e085828601612f02565b9150509250929050565b6137f381613006565b81146137fe57600080fd5b50565b600081359050613810816137ea565b92915050565b6000806040838503121561382d5761382c612e79565b5b600061383b85828601612ecc565b925050602061384c85828601613801565b9150509250929050565b6000806040838503121561386d5761386c612e79565b5b600061387b85828601612ecc565b925050602061388c85828601612ecc565b9150509250929050565b600080600080600060a086880312156138b2576138b1612e79565b5b60006138c088828901612ecc565b95505060206138d188828901612ecc565b94505060406138e288828901612f02565b93505060606138f388828901612f02565b925050608086013567ffffffffffffffff81111561391457613913612e7e565b5b613920888289016133dd565b9150509295509295909350565b60006020828403121561394357613942612e79565b5b600061395184828501612ecc565b91505092915050565b60008060006060848603121561397357613972612e79565b5b600061398186828701612ecc565b935050602061399286828701612f02565b92505060406139a386828701612f02565b9150509250925092565b7f455243313135353a2062616c616e636520717565727920666f7220746865207a60008201527f65726f2061646472657373000000000000000000000000000000000000000000602082015250565b6000613a09602b83613203565b9150613a14826139ad565b604082019050919050565b60006020820190508181036000830152613a38816139fc565b9050919050565b7f4f776e61626c653a2063616c6c6572206973206e6f7420746865206f776e6572600082015250565b6000613a75602083613203565b9150613a8082613a3f565b602082019050919050565b60006020820190508181036000830152613aa481613a68565b9050919050565b7f4e487b7100000000000000000000000000000000000000000000000000000000600052602260045260246000fd5b60006002820490506001821680613af257607f821691505b60208210811415613b0657613b05613aab565b5b50919050565b7f455243313135353a207472616e736665722063616c6c6572206973206e6f742060008201527f6f776e6572206e6f7220617070726f7665640000000000000000000000000000602082015250565b6000613b68603283613203565b9150613b7382613b0c565b604082019050919050565b60006020820190508181036000830152613b9781613b5b565b9050919050565b7f455243313135353a206163636f756e747320616e6420696473206c656e67746860008201527f206d69736d617463680000000000000000000000000000000000000000000000602082015250565b6000613bfa602983613203565b9150613c0582613b9e565b604082019050919050565b60006020820190508181036000830152613c2981613bed565b9050919050565b7f4e487b7100000000000000000000000000000000000000000000000000000000600052603260045260246000fd5b7f4e487b7100000000000000000000000000000000000000000000000000000000600052601160045260246000fd5b6000613c9982612ee1565b91507fffffffffffffffffffffffffffffffffffffffffffffffffffffffffffffffff821415613ccc57613ccb613c5f565b5b600182019050919050565b7f455243313135353a2063616c6c6572206973206e6f74206f776e6572206e6f7260008201527f20617070726f7665640000000000000000000000000000000000000000000000602082015250565b6000613d33602983613203565b9150613d3e82613cd7565b604082019050919050565b60006020820190508181036000830152613d6281613d26565b9050919050565b6000613d7482612ee1565b9150613d7f83612ee1565b925082821015613d9257613d91613c5f565b5b828203905092915050565b7f4e487b7100000000000000000000000000000000000000000000000000000000600052601260045260246000fd5b6000613dd782612ee1565b9150613de283612ee1565b925082613df257613df1613d9d565b5b828206905092915050565b7f526566696c6c206d757374206265206d756c7469706c65206f66203132000000600082015250565b6000613e33601d83613203565b9150613e3e82613dfd565b602082019050919050565b60006020820190508181036000830152613e6281613e26565b9050919050565b7f526566696c6c2063616e206f6e6c7920626520646f6e65207768656e20616c6c60008201527f20746f6b656e7320617265206d696e7465640000000000000000000000000000602082015250565b6000613ec5603283613203565b9150613ed082613e69565b604082019050919050565b60006020820190508181036000830152613ef481613eb8565b9050919050565b7f4e6565642061746c65617374203120746f6b656e2070657220736c6f74000000600082015250565b6000613f31601d83613203565b9150613f3c82613efb565b602082019050919050565b60006020820190508181036000830152613f6081613f24565b9050919050565b6000613f7282612ee1565b9150613f7d83612ee1565b9250827fffffffffffffffffffffffffffffffffffffffffffffffffffffffffffffffff03821115613fb257613fb1613c5f565b5b828201905092915050565b7f596f752063616e206d696e74206f6e6c79203500000000000000000000000000600082015250565b6000613ff3601383613203565b9150613ffe82613fbd565b602082019050919050565b6000602082019050818103600083015261402281613fe6565b9050919050565b7f496e73756666696369656e742062616c616e636520746f204d696e7400000000600082015250565b600061405f601c83613203565b915061406a82614029565b602082019050919050565b6000602082019050818103600083015261408e81614052565b9050919050565b7f4f7574206f6620546f6b656e7300000000000000000000000000000000000000600082015250565b60006140cb600d83613203565b91506140d682614095565b602082019050919050565b600060208201905081810360008301526140fa816140be565b9050919050565b7f596f752063616e206d696e74206f6e6c79203300000000000000000000000000600082015250565b6000614137601383613203565b915061414282614101565b602082019050919050565b600060208201905081810360008301526141668161412a565b9050919050565b600061417882612ee1565b915061418383612ee1565b9250817fffffffffffffffffffffffffffffffffffffffffffffffffffffffffffffffff04831182151516156141bc576141bb613c5f565b5b828202905092915050565b7f4f776e61626c653a206e6577206f776e657220697320746865207a65726f206160008201527f6464726573730000000000000000000000000000000000000000000000000000602082015250565b6000614223602683613203565b915061422e826141c7565b604082019050919050565b6000602082019050818103600083015261425281614216565b9050919050565b7f455243313135353a2069647320616e6420616d6f756e7473206c656e6774682060008201527f6d69736d61746368000000000000000000000000000000000000000000000000602082015250565b60006142b5602883613203565b91506142c082614259565b604082019050919050565b600060208201905081810360008301526142e4816142a8565b9050919050565b7f455243313135353a207472616e7366657220746f20746865207a65726f20616460008201527f6472657373000000000000000000000000000000000000000000000000000000602082015250565b6000614347602583613203565b9150614352826142eb565b604082019050919050565b600060208201905081810360008301526143768161433a565b9050919050565b7f455243313135353a20696e73756666696369656e742062616c616e636520666f60008201527f72207472616e7366657200000000000000000000000000000000000000000000602082015250565b60006143d9602a83613203565b91506143e48261437d565b604082019050919050565b60006020820190508181036000830152614408816143cc565b9050919050565b600060408201905081810360008301526144298185613675565b9050818103602083015261443d8184613675565b90509392505050565b7f5061757361626c653a206e6f7420706175736564000000000000000000000000600082015250565b600061447c601483613203565b915061448782614446565b602082019050919050565b600060208201905081810360008301526144ab8161446f565b9050919050565b7f455243313135353a206275726e2066726f6d20746865207a65726f206164647260008201527f6573730000000000000000000000000000000000000000000000000000000000602082015250565b600061450e602383613203565b9150614519826144b2565b604082019050919050565b6000602082019050818103600083015261453d81614501565b9050919050565b7f455243313135353a206275726e20616d6f756e7420657863656564732062616c60008201527f616e636500000000000000000000000000000000000000000000000000000000602082015250565b60006145a0602483613203565b91506145ab82614544565b604082019050919050565b600060208201905081810360008301526145cf81614593565b9050919050565b7f5061757361626c653a2070617573656400000000000000000000000000000000600082015250565b600061460c601083613203565b9150614617826145d6565b602082019050919050565b6000602082019050818103600083015261463b816145ff565b9050919050565b7f455243313135353a206d696e7420746f20746865207a65726f2061646472657360008201527f7300000000000000000000000000000000000000000000000000000000000000602082015250565b600061469e602183613203565b91506146a982614642565b604082019050919050565b600060208201905081810360008301526146cd81614691565b9050919050565b60006040820190506146e96000830185612f57565b6146f66020830184612f57565b9392505050565b7f455243313135353a2073657474696e6720617070726f76616c2073746174757360008201527f20666f722073656c660000000000000000000000000000000000000000000000602082015250565b6000614759602983613203565b9150614764826146fd565b604082019050919050565b600060208201905081810360008301526147888161474c565b9050919050565b600081519050919050565b600082825260208201905092915050565b60006147b68261478f565b6147c0818561479a565b93506147d0818560208601613214565b6147d981613046565b840191505092915050565b600060a0820190506147f96000830188613780565b6148066020830187613780565b81810360408301526148188186613675565b9050818103606083015261482c8185613675565b9050818103608083015261484081846147ab565b90509695505050505050565b60008151905061485b81612fad565b92915050565b60006020828403121561487757614876612e79565b5b60006148858482850161484c565b91505092915050565b60008160e01c9050919050565b600060033d11156148ba5760046000803e6148b760005161488e565b90505b90565b600060443d10156148cd57614950565b6148d5612e6f565b60043d036004823e80513d602482011167ffffffffffffffff821117156148fd575050614950565b808201805167ffffffffffffffff81111561491b5750505050614950565b80602083010160043d038501811115614938575050505050614950565b61494782602001850186613086565b82955050505050505b90565b7f455243313135353a207472616e7366657220746f206e6f6e204552433131353560008201527f526563656976657220696d706c656d656e746572000000000000000000000000602082015250565b60006149af603483613203565b91506149ba82614953565b604082019050919050565b600060208201905081810360008301526149de816149a2565b9050919050565b7f455243313135353a204552433131353552656365697665722072656a6563746560008201527f6420746f6b656e73000000000000000000000000000000000000000000000000602082015250565b6000614a41602883613203565b9150614a4c826149e5565b604082019050919050565b60006020820190508181036000830152614a7081614a34565b9050919050565b600060a082019050614a8c6000830188613780565b614a996020830187613780565b614aa66040830186612f57565b614ab36060830185612f57565b8181036080830152614ac581846147ab565b9050969550505050505056fea26469706673582212206cccb9eac15aded665016e7bc051e81adeb7ffa8b8dbc48255923f03e3edf66264736f6c63430008090033697066733a2f2f516d575952655466684d656e76413166545a357443613766596a4d676f3637326a396358415a397332786d7769652f7b69647d2e6a736f6e",
  "immutableReferences": {},
  "source": "// SPDX-License-Identifier: MIT\npragma solidity ^0.8.7;\n\nimport \"@openzeppelin/contracts/token/ERC1155/ERC1155.sol\";\nimport \"@openzeppelin/contracts/access/Ownable.sol\";\nimport \"@openzeppelin/contracts/security/Pausable.sol\";\nimport \"@openzeppelin/contracts/token/ERC1155/extensions/ERC1155Burnable.sol\";\nimport \"@openzeppelin/contracts/token/ERC1155/extensions/ERC1155Supply.sol\";\n\n/// @custom:security-contact rahuljaguste@gmail.com\ncontract VendingMachine is\n    ERC1155,\n    Ownable,\n    Pausable,\n    ERC1155Burnable,\n    ERC1155Supply\n{\n    uint256 public price = 0 ether;\n\n    mapping(address => uint256) addressBalances;\n    uint256 public maxTokens = 60;\n    uint256 public tokenId = 0;\n    uint256 public countPerSlot = 5;\n    event Minted(\n        address indexed to,\n        uint256 indexed tokenId,\n        uint256 indexed amount\n    );\n\n    constructor()\n        ERC1155(\n            \"ipfs://QmWYReTfhMenvA1fTZ5tCa7fYjMgo672j9cXAZ9s2xmwie/{id}.json\"\n        )\n    {}\n\n    function setURI(string memory newuri) public onlyOwner {\n        _setURI(newuri);\n    }\n\n    function pause() public onlyOwner {\n        _pause();\n    }\n\n    function unpause() public onlyOwner {\n        _unpause();\n    }\n\n    function mint(uint256 id) public payable {\n        require(totalSupply(id) < 5, \"You can mint only 5\");\n        require(msg.value >= price, \"Insufficient balance to Mint\");\n        require(tokenId < maxTokens, \"Out of Tokens\");\n        require(addressBalances[msg.sender] <= 3, \"You can mint only 3\");\n\n        uint256 newId = (totalSupply(id) * 12) + id;\n        addressBalances[msg.sender] += 1;\n        tokenId++;\n\n        _mint(msg.sender, newId, 1, \"\");\n    }\n\n    function _beforeTokenTransfer(\n        address operator,\n        address from,\n        address to,\n        uint256[] memory ids,\n        uint256[] memory amounts,\n        bytes memory data\n    ) internal override(ERC1155, ERC1155Supply) whenNotPaused {\n        super._beforeTokenTransfer(operator, from, to, ids, amounts, data);\n    }\n\n    function setPrice(uint256 _price) public onlyOwner {\n        price = _price;\n    }\n\n    function withdraw(uint256 _amount) public payable onlyOwner {\n        require(payable(msg.sender).send(_amount));\n    }\n\n    function withdrawAll() public payable onlyOwner {\n        require(payable(msg.sender).send(address(this).balance));\n    }\n\n    function refill(uint256 _additionalTokens, uint256 _countPerSlot)\n        public\n        onlyOwner\n    {\n        require(_additionalTokens % 12 == 0, \"Refill must be multiple of 12\");\n        require(\n            tokenId == maxTokens,\n            \"Refill can only be done when all tokens are minted\"\n        );\n        require(_countPerSlot > 0, \"Need atleast 1 token per slot\");\n        countPerSlot = _countPerSlot;\n        maxTokens += _additionalTokens;\n    }\n\n    function reset() public onlyOwner {\n        tokenId = maxTokens;\n    }\n\n    function isOutOfTokens() public view returns (bool) {\n        return tokenId == maxTokens;\n    }\n\n    function getCurrentTokenCount() public view returns (uint256) {\n        return tokenId;\n    }\n\n    function getTokenLeft(uint256 id) public view returns (uint256) {\n        return countPerSlot - totalSupply(id);\n    }\n}\n",
  "sourcePath": "/Users/rj/2021Projects/blockchain/EthGlobal-Hackathon/Truffle/contracts/VendingMachine.sol",
  "compiler": {
    "name": "solc",
    "version": "0.8.9+commit.e5eed63a.Emscripten.clang"
  },
  "schemaVersion": "3.4.4",
  "updatedAt": "2022-01-16T04:45:35.906Z",
  "networkType": "ethereum",
  "devdoc": {
    "custom:security-contact": "rahuljaguste@gmail.com",
    "kind": "dev",
    "methods": {
      "balanceOf(address,uint256)": {
        "details": "See {IERC1155-balanceOf}. Requirements: - `account` cannot be the zero address."
      },
      "balanceOfBatch(address[],uint256[])": {
        "details": "See {IERC1155-balanceOfBatch}. Requirements: - `accounts` and `ids` must have the same length."
      },
      "exists(uint256)": {
        "details": "Indicates whether any token exist with a given id, or not."
      },
      "isApprovedForAll(address,address)": {
        "details": "See {IERC1155-isApprovedForAll}."
      },
      "owner()": {
        "details": "Returns the address of the current owner."
      },
      "paused()": {
        "details": "Returns true if the contract is paused, and false otherwise."
      },
      "renounceOwnership()": {
        "details": "Leaves the contract without owner. It will not be possible to call `onlyOwner` functions anymore. Can only be called by the current owner. NOTE: Renouncing ownership will leave the contract without an owner, thereby removing any functionality that is only available to the owner."
      },
      "safeBatchTransferFrom(address,address,uint256[],uint256[],bytes)": {
        "details": "See {IERC1155-safeBatchTransferFrom}."
      },
      "safeTransferFrom(address,address,uint256,uint256,bytes)": {
        "details": "See {IERC1155-safeTransferFrom}."
      },
      "setApprovalForAll(address,bool)": {
        "details": "See {IERC1155-setApprovalForAll}."
      },
      "supportsInterface(bytes4)": {
        "details": "See {IERC165-supportsInterface}."
      },
      "totalSupply(uint256)": {
        "details": "Total amount of tokens in with a given id."
      },
      "transferOwnership(address)": {
        "details": "Transfers ownership of the contract to a new account (`newOwner`). Can only be called by the current owner."
      },
      "uri(uint256)": {
        "details": "See {IERC1155MetadataURI-uri}. This implementation returns the same URI for *all* token types. It relies on the token type ID substitution mechanism https://eips.ethereum.org/EIPS/eip-1155#metadata[defined in the EIP]. Clients calling this function must replace the `\\{id\\}` substring with the actual token type ID."
      }
    },
    "version": 1
  },
  "userdoc": {
    "kind": "user",
    "methods": {},
    "version": 1
  }
}