{
  "contractName": "VendingMachine",
  "abi": [
    {
      "inputs": [],
      "stateMutability": "nonpayable",
      "type": "constructor"
    },
    {
      "anonymous": false,
      "inputs": [
        {
          "indexed": true,
          "internalType": "address",
          "name": "account",
          "type": "address"
        },
        {
          "indexed": true,
          "internalType": "address",
          "name": "operator",
          "type": "address"
        },
        {
          "indexed": false,
          "internalType": "bool",
          "name": "approved",
          "type": "bool"
        }
      ],
      "name": "ApprovalForAll",
      "type": "event"
    },
    {
      "anonymous": false,
      "inputs": [
        {
          "indexed": true,
          "internalType": "address",
          "name": "previousOwner",
          "type": "address"
        },
        {
          "indexed": true,
          "internalType": "address",
          "name": "newOwner",
          "type": "address"
        }
      ],
      "name": "OwnershipTransferred",
      "type": "event"
    },
    {
      "anonymous": false,
      "inputs": [
        {
          "indexed": false,
          "internalType": "address",
          "name": "account",
          "type": "address"
        }
      ],
      "name": "Paused",
      "type": "event"
    },
    {
      "anonymous": false,
      "inputs": [
        {
          "indexed": true,
          "internalType": "address",
          "name": "operator",
          "type": "address"
        },
        {
          "indexed": true,
          "internalType": "address",
          "name": "from",
          "type": "address"
        },
        {
          "indexed": true,
          "internalType": "address",
          "name": "to",
          "type": "address"
        },
        {
          "indexed": false,
          "internalType": "uint256[]",
          "name": "ids",
          "type": "uint256[]"
        },
        {
          "indexed": false,
          "internalType": "uint256[]",
          "name": "values",
          "type": "uint256[]"
        }
      ],
      "name": "TransferBatch",
      "type": "event"
    },
    {
      "anonymous": false,
      "inputs": [
        {
          "indexed": true,
          "internalType": "address",
          "name": "operator",
          "type": "address"
        },
        {
          "indexed": true,
          "internalType": "address",
          "name": "from",
          "type": "address"
        },
        {
          "indexed": true,
          "internalType": "address",
          "name": "to",
          "type": "address"
        },
        {
          "indexed": false,
          "internalType": "uint256",
          "name": "id",
          "type": "uint256"
        },
        {
          "indexed": false,
          "internalType": "uint256",
          "name": "value",
          "type": "uint256"
        }
      ],
      "name": "TransferSingle",
      "type": "event"
    },
    {
      "anonymous": false,
      "inputs": [
        {
          "indexed": false,
          "internalType": "string",
          "name": "value",
          "type": "string"
        },
        {
          "indexed": true,
          "internalType": "uint256",
          "name": "id",
          "type": "uint256"
        }
      ],
      "name": "URI",
      "type": "event"
    },
    {
      "anonymous": false,
      "inputs": [
        {
          "indexed": false,
          "internalType": "address",
          "name": "account",
          "type": "address"
        }
      ],
      "name": "Unpaused",
      "type": "event"
    },
    {
      "inputs": [
        {
          "internalType": "address",
          "name": "account",
          "type": "address"
        },
        {
          "internalType": "uint256",
          "name": "id",
          "type": "uint256"
        }
      ],
      "name": "balanceOf",
      "outputs": [
        {
          "internalType": "uint256",
          "name": "",
          "type": "uint256"
        }
      ],
      "stateMutability": "view",
      "type": "function",
      "constant": true
    },
    {
      "inputs": [
        {
          "internalType": "address[]",
          "name": "accounts",
          "type": "address[]"
        },
        {
          "internalType": "uint256[]",
          "name": "ids",
          "type": "uint256[]"
        }
      ],
      "name": "balanceOfBatch",
      "outputs": [
        {
          "internalType": "uint256[]",
          "name": "",
          "type": "uint256[]"
        }
      ],
      "stateMutability": "view",
      "type": "function",
      "constant": true
    },
    {
      "inputs": [
        {
          "internalType": "address",
          "name": "account",
          "type": "address"
        },
        {
          "internalType": "uint256",
          "name": "id",
          "type": "uint256"
        },
        {
          "internalType": "uint256",
          "name": "value",
          "type": "uint256"
        }
      ],
      "name": "burn",
      "outputs": [],
      "stateMutability": "nonpayable",
      "type": "function"
    },
    {
      "inputs": [
        {
          "internalType": "address",
          "name": "account",
          "type": "address"
        },
        {
          "internalType": "uint256[]",
          "name": "ids",
          "type": "uint256[]"
        },
        {
          "internalType": "uint256[]",
          "name": "values",
          "type": "uint256[]"
        }
      ],
      "name": "burnBatch",
      "outputs": [],
      "stateMutability": "nonpayable",
      "type": "function"
    },
    {
      "inputs": [
        {
          "internalType": "uint256",
          "name": "id",
          "type": "uint256"
        }
      ],
      "name": "exists",
      "outputs": [
        {
          "internalType": "bool",
          "name": "",
          "type": "bool"
        }
      ],
      "stateMutability": "view",
      "type": "function",
      "constant": true
    },
    {
      "inputs": [
        {
          "internalType": "address",
          "name": "account",
          "type": "address"
        },
        {
          "internalType": "address",
          "name": "operator",
          "type": "address"
        }
      ],
      "name": "isApprovedForAll",
      "outputs": [
        {
          "internalType": "bool",
          "name": "",
          "type": "bool"
        }
      ],
      "stateMutability": "view",
      "type": "function",
      "constant": true
    },
    {
      "inputs": [],
      "name": "maxTokens",
      "outputs": [
        {
          "internalType": "uint256",
          "name": "",
          "type": "uint256"
        }
      ],
      "stateMutability": "view",
      "type": "function",
      "constant": true
    },
    {
      "inputs": [],
      "name": "owner",
      "outputs": [
        {
          "internalType": "address",
          "name": "",
          "type": "address"
        }
      ],
      "stateMutability": "view",
      "type": "function",
      "constant": true
    },
    {
      "inputs": [],
      "name": "paused",
      "outputs": [
        {
          "internalType": "bool",
          "name": "",
          "type": "bool"
        }
      ],
      "stateMutability": "view",
      "type": "function",
      "constant": true
    },
    {
      "inputs": [],
      "name": "price",
      "outputs": [
        {
          "internalType": "uint256",
          "name": "",
          "type": "uint256"
        }
      ],
      "stateMutability": "view",
      "type": "function",
      "constant": true
    },
    {
      "inputs": [],
      "name": "renounceOwnership",
      "outputs": [],
      "stateMutability": "nonpayable",
      "type": "function"
    },
    {
      "inputs": [
        {
          "internalType": "address",
          "name": "from",
          "type": "address"
        },
        {
          "internalType": "address",
          "name": "to",
          "type": "address"
        },
        {
          "internalType": "uint256[]",
          "name": "ids",
          "type": "uint256[]"
        },
        {
          "internalType": "uint256[]",
          "name": "amounts",
          "type": "uint256[]"
        },
        {
          "internalType": "bytes",
          "name": "data",
          "type": "bytes"
        }
      ],
      "name": "safeBatchTransferFrom",
      "outputs": [],
      "stateMutability": "nonpayable",
      "type": "function"
    },
    {
      "inputs": [
        {
          "internalType": "address",
          "name": "from",
          "type": "address"
        },
        {
          "internalType": "address",
          "name": "to",
          "type": "address"
        },
        {
          "internalType": "uint256",
          "name": "id",
          "type": "uint256"
        },
        {
          "internalType": "uint256",
          "name": "amount",
          "type": "uint256"
        },
        {
          "internalType": "bytes",
          "name": "data",
          "type": "bytes"
        }
      ],
      "name": "safeTransferFrom",
      "outputs": [],
      "stateMutability": "nonpayable",
      "type": "function"
    },
    {
      "inputs": [
        {
          "internalType": "address",
          "name": "operator",
          "type": "address"
        },
        {
          "internalType": "bool",
          "name": "approved",
          "type": "bool"
        }
      ],
      "name": "setApprovalForAll",
      "outputs": [],
      "stateMutability": "nonpayable",
      "type": "function"
    },
    {
      "inputs": [
        {
          "internalType": "bytes4",
          "name": "interfaceId",
          "type": "bytes4"
        }
      ],
      "name": "supportsInterface",
      "outputs": [
        {
          "internalType": "bool",
          "name": "",
          "type": "bool"
        }
      ],
      "stateMutability": "view",
      "type": "function",
      "constant": true
    },
    {
      "inputs": [],
      "name": "tokenId",
      "outputs": [
        {
          "internalType": "uint256",
          "name": "",
          "type": "uint256"
        }
      ],
      "stateMutability": "view",
      "type": "function",
      "constant": true
    },
    {
      "inputs": [
        {
          "internalType": "uint256",
          "name": "id",
          "type": "uint256"
        }
      ],
      "name": "totalSupply",
      "outputs": [
        {
          "internalType": "uint256",
          "name": "",
          "type": "uint256"
        }
      ],
      "stateMutability": "view",
      "type": "function",
      "constant": true
    },
    {
      "inputs": [
        {
          "internalType": "address",
          "name": "newOwner",
          "type": "address"
        }
      ],
      "name": "transferOwnership",
      "outputs": [],
      "stateMutability": "nonpayable",
      "type": "function"
    },
    {
      "inputs": [
        {
          "internalType": "uint256",
          "name": "",
          "type": "uint256"
        }
      ],
      "name": "uri",
      "outputs": [
        {
          "internalType": "string",
          "name": "",
          "type": "string"
        }
      ],
      "stateMutability": "view",
      "type": "function",
      "constant": true
    },
    {
      "inputs": [
        {
          "internalType": "string",
          "name": "newuri",
          "type": "string"
        }
      ],
      "name": "setURI",
      "outputs": [],
      "stateMutability": "nonpayable",
      "type": "function"
    },
    {
      "inputs": [],
      "name": "pause",
      "outputs": [],
      "stateMutability": "nonpayable",
      "type": "function"
    },
    {
      "inputs": [],
      "name": "unpause",
      "outputs": [],
      "stateMutability": "nonpayable",
      "type": "function"
    },
    {
      "inputs": [
        {
          "internalType": "address",
          "name": "account",
          "type": "address"
        }
      ],
      "name": "mint",
      "outputs": [],
      "stateMutability": "payable",
      "type": "function",
      "payable": true
    },
    {
      "inputs": [
        {
          "internalType": "uint256",
          "name": "_price",
          "type": "uint256"
        }
      ],
      "name": "setPrice",
      "outputs": [],
      "stateMutability": "nonpayable",
      "type": "function"
    },
    {
      "inputs": [
        {
          "internalType": "uint256",
          "name": "_amount",
          "type": "uint256"
        }
      ],
      "name": "withdraw",
      "outputs": [],
      "stateMutability": "payable",
      "type": "function",
      "payable": true
    },
    {
      "inputs": [],
      "name": "withdrawAll",
      "outputs": [],
      "stateMutability": "payable",
      "type": "function",
      "payable": true
    },
    {
      "inputs": [
        {
          "internalType": "uint256",
          "name": "_additionalTokens",
          "type": "uint256"
        }
      ],
      "name": "refill",
      "outputs": [],
      "stateMutability": "nonpayable",
      "type": "function"
    },
    {
      "inputs": [
        {
          "internalType": "uint256",
          "name": "id",
          "type": "uint256"
        }
      ],
      "name": "getTokenLeft",
      "outputs": [
        {
          "internalType": "uint256",
          "name": "",
          "type": "uint256"
        }
      ],
      "stateMutability": "view",
      "type": "function",
      "constant": true
    }
  ],
  "bytecode": "0x60806040526000600555603c60075560006008553480156200002057600080fd5b5060405180606001604052806040815260200162004aaa604091396200004c816200008e60201b60201c565b506200006d62000061620000aa60201b60201c565b620000b260201b60201c565b6000600360146101000a81548160ff0219169083151502179055506200028d565b8060029080519060200190620000a692919062000178565b5050565b600033905090565b6000600360009054906101000a900473ffffffffffffffffffffffffffffffffffffffff16905081600360006101000a81548173ffffffffffffffffffffffffffffffffffffffff021916908373ffffffffffffffffffffffffffffffffffffffff1602179055508173ffffffffffffffffffffffffffffffffffffffff168173ffffffffffffffffffffffffffffffffffffffff167f8be0079c531659141344cd1fd0a4f28419497f9722a3daafe3b4186f6b6457e060405160405180910390a35050565b828054620001869062000257565b90600052602060002090601f016020900481019282620001aa5760008555620001f6565b82601f10620001c557805160ff1916838001178555620001f6565b82800160010185558215620001f6579182015b82811115620001f5578251825591602001919060010190620001d8565b5b50905062000205919062000209565b5090565b5b80821115620002245760008160009055506001016200020a565b5090565b7f4e487b7100000000000000000000000000000000000000000000000000000000600052602260045260246000fd5b600060028204905060018216806200027057607f821691505b6020821081141562000287576200028662000228565b5b50919050565b61480d806200029d6000396000f3fe6080604052600436106101b65760003560e01c80638456cb59116100ec578063bd85b0391161008a578063e985e9c511610064578063e985e9c5146105ba578063f242432a146105f7578063f2fde38b14610620578063f5298aca14610649576101b6565b8063bd85b03914610529578063ca9d07ba14610566578063e83157421461058f576101b6565b80638da5cb5b116100c65780638da5cb5b1461048157806391b7f5ed146104ac578063a035b1fe146104d5578063a22cb46514610500576101b6565b80638456cb5914610423578063853828b61461043a57806387dbbb0e14610444576101b6565b80633f4ba83a116101595780635c975abb116101335780635c975abb1461039c5780636a627842146103c75780636b20c454146103e3578063715018a61461040c576101b6565b80633f4ba83a1461030b5780634e1273f4146103225780634f558e791461035f576101b6565b80630e89341c116101955780630e89341c1461025e57806317d70f7c1461029b5780632e1a7d4d146102c65780632eb2c2d6146102e2576101b6565b8062fdd58e146101bb57806301ffc9a7146101f857806302fe530514610235575b600080fd5b3480156101c757600080fd5b506101e260048036038101906101dd9190612d23565b610672565b6040516101ef9190612d72565b60405180910390f35b34801561020457600080fd5b5061021f600480360381019061021a9190612de5565b61073b565b60405161022c9190612e2d565b60405180910390f35b34801561024157600080fd5b5061025c60048036038101906102579190612f8e565b61081d565b005b34801561026a57600080fd5b5061028560048036038101906102809190612fd7565b6108a5565b604051610292919061308c565b60405180910390f35b3480156102a757600080fd5b506102b0610939565b6040516102bd9190612d72565b60405180910390f35b6102e060048036038101906102db9190612fd7565b61093f565b005b3480156102ee57600080fd5b5061030960048036038101906103049190613217565b6109fc565b005b34801561031757600080fd5b50610320610a9d565b005b34801561032e57600080fd5b50610349600480360381019061034491906133a9565b610b23565b60405161035691906134df565b60405180910390f35b34801561036b57600080fd5b5061038660048036038101906103819190612fd7565b610c3c565b6040516103939190612e2d565b60405180910390f35b3480156103a857600080fd5b506103b1610c50565b6040516103be9190612e2d565b60405180910390f35b6103e160048036038101906103dc9190613501565b610c67565b005b3480156103ef57600080fd5b5061040a6004803603810190610405919061352e565b610e52565b005b34801561041857600080fd5b50610421610eef565b005b34801561042f57600080fd5b50610438610f77565b005b610442610ffd565b005b34801561045057600080fd5b5061046b60048036038101906104669190612fd7565b6110b9565b6040516104789190612d72565b60405180910390f35b34801561048d57600080fd5b506104966110d7565b6040516104a391906135c8565b60405180910390f35b3480156104b857600080fd5b506104d360048036038101906104ce9190612fd7565b611101565b005b3480156104e157600080fd5b506104ea611187565b6040516104f79190612d72565b60405180910390f35b34801561050c57600080fd5b506105276004803603810190610522919061360f565b61118d565b005b34801561053557600080fd5b50610550600480360381019061054b9190612fd7565b6111a3565b60405161055d9190612d72565b60405180910390f35b34801561057257600080fd5b5061058d60048036038101906105889190612fd7565b6111c0565b005b34801561059b57600080fd5b506105a46112ed565b6040516105b19190612d72565b60405180910390f35b3480156105c657600080fd5b506105e160048036038101906105dc919061364f565b6112f3565b6040516105ee9190612e2d565b60405180910390f35b34801561060357600080fd5b5061061e6004803603810190610619919061368f565b611387565b005b34801561062c57600080fd5b5061064760048036038101906106429190613501565b611428565b005b34801561065557600080fd5b50610670600480360381019061066b9190613726565b611520565b005b60008073ffffffffffffffffffffffffffffffffffffffff168373ffffffffffffffffffffffffffffffffffffffff1614156106e3576040517f08c379a00000000000000000000000000000000000000000000000000000000081526004016106da906137eb565b60405180910390fd5b60008083815260200190815260200160002060008473ffffffffffffffffffffffffffffffffffffffff1673ffffffffffffffffffffffffffffffffffffffff16815260200190815260200160002054905092915050565b60007fd9b67a26000000000000000000000000000000000000000000000000000000007bffffffffffffffffffffffffffffffffffffffffffffffffffffffff1916827bffffffffffffffffffffffffffffffffffffffffffffffffffffffff1916148061080657507f0e89341c000000000000000000000000000000000000000000000000000000007bffffffffffffffffffffffffffffffffffffffffffffffffffffffff1916827bffffffffffffffffffffffffffffffffffffffffffffffffffffffff1916145b806108165750610815826115bd565b5b9050919050565b610825611627565b73ffffffffffffffffffffffffffffffffffffffff166108436110d7565b73ffffffffffffffffffffffffffffffffffffffff1614610899576040517f08c379a000000000000000000000000000000000000000000000000000000000815260040161089090613857565b60405180910390fd5b6108a28161162f565b50565b6060600280546108b4906138a6565b80601f01602080910402602001604051908101604052809291908181526020018280546108e0906138a6565b801561092d5780601f106109025761010080835404028352916020019161092d565b820191906000526020600020905b81548152906001019060200180831161091057829003601f168201915b50505050509050919050565b60085481565b610947611627565b73ffffffffffffffffffffffffffffffffffffffff166109656110d7565b73ffffffffffffffffffffffffffffffffffffffff16146109bb576040517f08c379a00000000000000000000000000000000000000000000000000000000081526004016109b290613857565b60405180910390fd5b3373ffffffffffffffffffffffffffffffffffffffff166108fc829081150290604051600060405180830381858888f193505050506109f957600080fd5b50565b610a04611627565b73ffffffffffffffffffffffffffffffffffffffff168573ffffffffffffffffffffffffffffffffffffffff161480610a4a5750610a4985610a44611627565b6112f3565b5b610a89576040517f08c379a0000000000000000000000000000000000000000000000000000000008152600401610a809061394a565b60405180910390fd5b610a968585858585611649565b5050505050565b610aa5611627565b73ffffffffffffffffffffffffffffffffffffffff16610ac36110d7565b73ffffffffffffffffffffffffffffffffffffffff1614610b19576040517f08c379a0000000000000000000000000000000000000000000000000000000008152600401610b1090613857565b60405180910390fd5b610b2161195d565b565b60608151835114610b69576040517f08c379a0000000000000000000000000000000000000000000000000000000008152600401610b60906139dc565b60405180910390fd5b6000835167ffffffffffffffff811115610b8657610b85612e63565b5b604051908082528060200260200182016040528015610bb45781602001602082028036833780820191505090505b50905060005b8451811015610c3157610c01858281518110610bd957610bd86139fc565b5b6020026020010151858381518110610bf457610bf36139fc565b5b6020026020010151610672565b828281518110610c1457610c136139fc565b5b60200260200101818152505080610c2a90613a5a565b9050610bba565b508091505092915050565b600080610c48836111a3565b119050919050565b6000600360149054906101000a900460ff16905090565b600554341015610cac576040517f08c379a0000000000000000000000000000000000000000000000000000000008152600401610ca390613aef565b60405180910390fd5b60075460085410610cf2576040517f08c379a0000000000000000000000000000000000000000000000000000000008152600401610ce990613b5b565b60405180910390fd5b6003600660003373ffffffffffffffffffffffffffffffffffffffff1673ffffffffffffffffffffffffffffffffffffffff168152602001908152602001600020541115610d75576040517f08c379a0000000000000000000000000000000000000000000000000000000008152600401610d6c90613bc7565b60405180910390fd5b6005610d826008546111a3565b10610dc2576040517f08c379a0000000000000000000000000000000000000000000000000000000008152600401610db990613c33565b60405180910390fd5b6001600660003373ffffffffffffffffffffffffffffffffffffffff1673ffffffffffffffffffffffffffffffffffffffff1681526020019081526020016000206000828254610e129190613c53565b9250508190555060086000815480929190610e2c90613a5a565b9190505550610e4f816008546001604051806020016040528060008152506119ff565b50565b610e5a611627565b73ffffffffffffffffffffffffffffffffffffffff168373ffffffffffffffffffffffffffffffffffffffff161480610ea05750610e9f83610e9a611627565b6112f3565b5b610edf576040517f08c379a0000000000000000000000000000000000000000000000000000000008152600401610ed690613d1b565b60405180910390fd5b610eea838383611b95565b505050565b610ef7611627565b73ffffffffffffffffffffffffffffffffffffffff16610f156110d7565b73ffffffffffffffffffffffffffffffffffffffff1614610f6b576040517f08c379a0000000000000000000000000000000000000000000000000000000008152600401610f6290613857565b60405180910390fd5b610f756000611e46565b565b610f7f611627565b73ffffffffffffffffffffffffffffffffffffffff16610f9d6110d7565b73ffffffffffffffffffffffffffffffffffffffff1614610ff3576040517f08c379a0000000000000000000000000000000000000000000000000000000008152600401610fea90613857565b60405180910390fd5b610ffb611f0c565b565b611005611627565b73ffffffffffffffffffffffffffffffffffffffff166110236110d7565b73ffffffffffffffffffffffffffffffffffffffff1614611079576040517f08c379a000000000000000000000000000000000000000000000000000000000815260040161107090613857565b60405180910390fd5b3373ffffffffffffffffffffffffffffffffffffffff166108fc479081150290604051600060405180830381858888f193505050506110b757600080fd5b565b60006110c4826111a3565b60056110d09190613d3b565b9050919050565b6000600360009054906101000a900473ffffffffffffffffffffffffffffffffffffffff16905090565b611109611627565b73ffffffffffffffffffffffffffffffffffffffff166111276110d7565b73ffffffffffffffffffffffffffffffffffffffff161461117d576040517f08c379a000000000000000000000000000000000000000000000000000000000815260040161117490613857565b60405180910390fd5b8060058190555050565b60055481565b61119f611198611627565b8383611faf565b5050565b600060046000838152602001908152602001600020549050919050565b6111c8611627565b73ffffffffffffffffffffffffffffffffffffffff166111e66110d7565b73ffffffffffffffffffffffffffffffffffffffff161461123c576040517f08c379a000000000000000000000000000000000000000000000000000000000815260040161123390613857565b60405180910390fd5b6000600c8261124b9190613d9e565b1461128b576040517f08c379a000000000000000000000000000000000000000000000000000000000815260040161128290613e1b565b60405180910390fd5b600754600854146112d1576040517f08c379a00000000000000000000000000000000000000000000000000000000081526004016112c890613ead565b60405180910390fd5b80600760008282546112e39190613c53565b9250508190555050565b60075481565b6000600160008473ffffffffffffffffffffffffffffffffffffffff1673ffffffffffffffffffffffffffffffffffffffff16815260200190815260200160002060008373ffffffffffffffffffffffffffffffffffffffff1673ffffffffffffffffffffffffffffffffffffffff16815260200190815260200160002060009054906101000a900460ff16905092915050565b61138f611627565b73ffffffffffffffffffffffffffffffffffffffff168573ffffffffffffffffffffffffffffffffffffffff1614806113d557506113d4856113cf611627565b6112f3565b5b611414576040517f08c379a000000000000000000000000000000000000000000000000000000000815260040161140b90613d1b565b60405180910390fd5b611421858585858561211c565b5050505050565b611430611627565b73ffffffffffffffffffffffffffffffffffffffff1661144e6110d7565b73ffffffffffffffffffffffffffffffffffffffff16146114a4576040517f08c379a000000000000000000000000000000000000000000000000000000000815260040161149b90613857565b60405180910390fd5b600073ffffffffffffffffffffffffffffffffffffffff168173ffffffffffffffffffffffffffffffffffffffff161415611514576040517f08c379a000000000000000000000000000000000000000000000000000000000815260040161150b90613f3f565b60405180910390fd5b61151d81611e46565b50565b611528611627565b73ffffffffffffffffffffffffffffffffffffffff168373ffffffffffffffffffffffffffffffffffffffff16148061156e575061156d83611568611627565b6112f3565b5b6115ad576040517f08c379a00000000000000000000000000000000000000000000000000000000081526004016115a490613d1b565b60405180910390fd5b6115b883838361239e565b505050565b60007f01ffc9a7000000000000000000000000000000000000000000000000000000007bffffffffffffffffffffffffffffffffffffffffffffffffffffffff1916827bffffffffffffffffffffffffffffffffffffffffffffffffffffffff1916149050919050565b600033905090565b8060029080519060200190611645929190612bd8565b5050565b815183511461168d576040517f08c379a000000000000000000000000000000000000000000000000000000000815260040161168490613fd1565b60405180910390fd5b600073ffffffffffffffffffffffffffffffffffffffff168473ffffffffffffffffffffffffffffffffffffffff1614156116fd576040517f08c379a00000000000000000000000000000000000000000000000000000000081526004016116f490614063565b60405180910390fd5b6000611707611627565b90506117178187878787876125bb565b60005b84518110156118c8576000858281518110611738576117376139fc565b5b602002602001015190506000858381518110611757576117566139fc565b5b60200260200101519050600080600084815260200190815260200160002060008b73ffffffffffffffffffffffffffffffffffffffff1673ffffffffffffffffffffffffffffffffffffffff168152602001908152602001600020549050818110156117f8576040517f08c379a00000000000000000000000000000000000000000000000000000000081526004016117ef906140f5565b60405180910390fd5b81810360008085815260200190815260200160002060008c73ffffffffffffffffffffffffffffffffffffffff1673ffffffffffffffffffffffffffffffffffffffff168152602001908152602001600020819055508160008085815260200190815260200160002060008b73ffffffffffffffffffffffffffffffffffffffff1673ffffffffffffffffffffffffffffffffffffffff16815260200190815260200160002060008282546118ad9190613c53565b92505081905550505050806118c190613a5a565b905061171a565b508473ffffffffffffffffffffffffffffffffffffffff168673ffffffffffffffffffffffffffffffffffffffff168273ffffffffffffffffffffffffffffffffffffffff167f4a39dc06d4c0dbc64b70af90fd698a233a518aa5d07e595d983b8c0526c8f7fb878760405161193f929190614115565b60405180910390a4611955818787878787612619565b505050505050565b611965610c50565b6119a4576040517f08c379a000000000000000000000000000000000000000000000000000000000815260040161199b90614198565b60405180910390fd5b6000600360146101000a81548160ff0219169083151502179055507f5db9ee0a495bf2e6ff9c91a7834c1ba4fdd244a5e8aa4e537bd38aeae4b073aa6119e8611627565b6040516119f591906135c8565b60405180910390a1565b600073ffffffffffffffffffffffffffffffffffffffff168473ffffffffffffffffffffffffffffffffffffffff161415611a6f576040517f08c379a0000000000000000000000000000000000000000000000000000000008152600401611a669061422a565b60405180910390fd5b6000611a79611627565b9050611a9a81600087611a8b886127f1565b611a94886127f1565b876125bb565b8260008086815260200190815260200160002060008773ffffffffffffffffffffffffffffffffffffffff1673ffffffffffffffffffffffffffffffffffffffff1681526020019081526020016000206000828254611af99190613c53565b925050819055508473ffffffffffffffffffffffffffffffffffffffff16600073ffffffffffffffffffffffffffffffffffffffff168273ffffffffffffffffffffffffffffffffffffffff167fc3d58168c5ae7397731d063d5bbf3d657854427343f4c083240f7aacaa2d0f628787604051611b7792919061424a565b60405180910390a4611b8e8160008787878761286b565b5050505050565b600073ffffffffffffffffffffffffffffffffffffffff168373ffffffffffffffffffffffffffffffffffffffff161415611c05576040517f08c379a0000000000000000000000000000000000000000000000000000000008152600401611bfc906142e5565b60405180910390fd5b8051825114611c49576040517f08c379a0000000000000000000000000000000000000000000000000000000008152600401611c4090613fd1565b60405180910390fd5b6000611c53611627565b9050611c73818560008686604051806020016040528060008152506125bb565b60005b8351811015611dc0576000848281518110611c9457611c936139fc565b5b602002602001015190506000848381518110611cb357611cb26139fc565b5b60200260200101519050600080600084815260200190815260200160002060008973ffffffffffffffffffffffffffffffffffffffff1673ffffffffffffffffffffffffffffffffffffffff16815260200190815260200160002054905081811015611d54576040517f08c379a0000000000000000000000000000000000000000000000000000000008152600401611d4b90614377565b60405180910390fd5b81810360008085815260200190815260200160002060008a73ffffffffffffffffffffffffffffffffffffffff1673ffffffffffffffffffffffffffffffffffffffff168152602001908152602001600020819055505050508080611db890613a5a565b915050611c76565b50600073ffffffffffffffffffffffffffffffffffffffff168473ffffffffffffffffffffffffffffffffffffffff168273ffffffffffffffffffffffffffffffffffffffff167f4a39dc06d4c0dbc64b70af90fd698a233a518aa5d07e595d983b8c0526c8f7fb8686604051611e38929190614115565b60405180910390a450505050565b6000600360009054906101000a900473ffffffffffffffffffffffffffffffffffffffff16905081600360006101000a81548173ffffffffffffffffffffffffffffffffffffffff021916908373ffffffffffffffffffffffffffffffffffffffff1602179055508173ffffffffffffffffffffffffffffffffffffffff168173ffffffffffffffffffffffffffffffffffffffff167f8be0079c531659141344cd1fd0a4f28419497f9722a3daafe3b4186f6b6457e060405160405180910390a35050565b611f14610c50565b15611f54576040517f08c379a0000000000000000000000000000000000000000000000000000000008152600401611f4b906143e3565b60405180910390fd5b6001600360146101000a81548160ff0219169083151502179055507f62e78cea01bee320cd4e420270b5ea74000d11b0c9f74754ebdbfc544b05a258611f98611627565b604051611fa591906135c8565b60405180910390a1565b8173ffffffffffffffffffffffffffffffffffffffff168373ffffffffffffffffffffffffffffffffffffffff16141561201e576040517f08c379a000000000000000000000000000000000000000000000000000000000815260040161201590614475565b60405180910390fd5b80600160008573ffffffffffffffffffffffffffffffffffffffff1673ffffffffffffffffffffffffffffffffffffffff16815260200190815260200160002060008473ffffffffffffffffffffffffffffffffffffffff1673ffffffffffffffffffffffffffffffffffffffff16815260200190815260200160002060006101000a81548160ff0219169083151502179055508173ffffffffffffffffffffffffffffffffffffffff168373ffffffffffffffffffffffffffffffffffffffff167f17307eab39ab6107e8899845ad3d59bd9653f200f220920489ca2b5937696c318360405161210f9190612e2d565b60405180910390a3505050565b600073ffffffffffffffffffffffffffffffffffffffff168473ffffffffffffffffffffffffffffffffffffffff16141561218c576040517f08c379a000000000000000000000000000000000000000000000000000000000815260040161218390614063565b60405180910390fd5b6000612196611627565b90506121b68187876121a7886127f1565b6121b0886127f1565b876125bb565b600080600086815260200190815260200160002060008873ffffffffffffffffffffffffffffffffffffffff1673ffffffffffffffffffffffffffffffffffffffff1681526020019081526020016000205490508381101561224d576040517f08c379a0000000000000000000000000000000000000000000000000000000008152600401612244906140f5565b60405180910390fd5b83810360008087815260200190815260200160002060008973ffffffffffffffffffffffffffffffffffffffff1673ffffffffffffffffffffffffffffffffffffffff168152602001908152602001600020819055508360008087815260200190815260200160002060008873ffffffffffffffffffffffffffffffffffffffff1673ffffffffffffffffffffffffffffffffffffffff16815260200190815260200160002060008282546123029190613c53565b925050819055508573ffffffffffffffffffffffffffffffffffffffff168773ffffffffffffffffffffffffffffffffffffffff168373ffffffffffffffffffffffffffffffffffffffff167fc3d58168c5ae7397731d063d5bbf3d657854427343f4c083240f7aacaa2d0f62888860405161237f92919061424a565b60405180910390a461239582888888888861286b565b50505050505050565b600073ffffffffffffffffffffffffffffffffffffffff168373ffffffffffffffffffffffffffffffffffffffff16141561240e576040517f08c379a0000000000000000000000000000000000000000000000000000000008152600401612405906142e5565b60405180910390fd5b6000612418611627565b90506124488185600061242a876127f1565b612433876127f1565b604051806020016040528060008152506125bb565b600080600085815260200190815260200160002060008673ffffffffffffffffffffffffffffffffffffffff1673ffffffffffffffffffffffffffffffffffffffff168152602001908152602001600020549050828110156124df576040517f08c379a00000000000000000000000000000000000000000000000000000000081526004016124d690614377565b60405180910390fd5b82810360008086815260200190815260200160002060008773ffffffffffffffffffffffffffffffffffffffff1673ffffffffffffffffffffffffffffffffffffffff16815260200190815260200160002081905550600073ffffffffffffffffffffffffffffffffffffffff168573ffffffffffffffffffffffffffffffffffffffff168373ffffffffffffffffffffffffffffffffffffffff167fc3d58168c5ae7397731d063d5bbf3d657854427343f4c083240f7aacaa2d0f6287876040516125ac92919061424a565b60405180910390a45050505050565b6125c3610c50565b15612603576040517f08c379a00000000000000000000000000000000000000000000000000000000081526004016125fa906143e3565b60405180910390fd5b612611868686868686612a43565b505050505050565b6126388473ffffffffffffffffffffffffffffffffffffffff16612bbd565b156127e9578373ffffffffffffffffffffffffffffffffffffffff1663bc197c8187878686866040518663ffffffff1660e01b815260040161267e9594939291906144ea565b6020604051808303816000875af19250505080156126ba57506040513d601f19601f820116820180604052508101906126b79190614567565b60015b612760576126c66145a1565b806308c379a0141561272357506126db6145c3565b806126e65750612725565b806040517f08c379a000000000000000000000000000000000000000000000000000000000815260040161271a919061308c565b60405180910390fd5b505b6040517f08c379a0000000000000000000000000000000000000000000000000000000008152600401612757906146cb565b60405180910390fd5b63bc197c8160e01b7bffffffffffffffffffffffffffffffffffffffffffffffffffffffff1916817bffffffffffffffffffffffffffffffffffffffffffffffffffffffff1916146127e7576040517f08c379a00000000000000000000000000000000000000000000000000000000081526004016127de9061475d565b60405180910390fd5b505b505050505050565b60606000600167ffffffffffffffff8111156128105761280f612e63565b5b60405190808252806020026020018201604052801561283e5781602001602082028036833780820191505090505b5090508281600081518110612856576128556139fc565b5b60200260200101818152505080915050919050565b61288a8473ffffffffffffffffffffffffffffffffffffffff16612bbd565b15612a3b578373ffffffffffffffffffffffffffffffffffffffff1663f23a6e6187878686866040518663ffffffff1660e01b81526004016128d095949392919061477d565b6020604051808303816000875af192505050801561290c57506040513d601f19601f820116820180604052508101906129099190614567565b60015b6129b2576129186145a1565b806308c379a01415612975575061292d6145c3565b806129385750612977565b806040517f08c379a000000000000000000000000000000000000000000000000000000000815260040161296c919061308c565b60405180910390fd5b505b6040517f08c379a00000000000000000000000000000000000000000000000000000000081526004016129a9906146cb565b60405180910390fd5b63f23a6e6160e01b7bffffffffffffffffffffffffffffffffffffffffffffffffffffffff1916817bffffffffffffffffffffffffffffffffffffffffffffffffffffffff191614612a39576040517f08c379a0000000000000000000000000000000000000000000000000000000008152600401612a309061475d565b60405180910390fd5b505b505050505050565b612a51868686868686612bd0565b600073ffffffffffffffffffffffffffffffffffffffff168573ffffffffffffffffffffffffffffffffffffffff161415612b035760005b8351811015612b0157828181518110612aa557612aa46139fc565b5b602002602001015160046000868481518110612ac457612ac36139fc565b5b602002602001015181526020019081526020016000206000828254612ae99190613c53565b9250508190555080612afa90613a5a565b9050612a89565b505b600073ffffffffffffffffffffffffffffffffffffffff168473ffffffffffffffffffffffffffffffffffffffff161415612bb55760005b8351811015612bb357828181518110612b5757612b566139fc565b5b602002602001015160046000868481518110612b7657612b756139fc565b5b602002602001015181526020019081526020016000206000828254612b9b9190613d3b565b9250508190555080612bac90613a5a565b9050612b3b565b505b505050505050565b600080823b905060008111915050919050565b505050505050565b828054612be4906138a6565b90600052602060002090601f016020900481019282612c065760008555612c4d565b82601f10612c1f57805160ff1916838001178555612c4d565b82800160010185558215612c4d579182015b82811115612c4c578251825591602001919060010190612c31565b5b509050612c5a9190612c5e565b5090565b5b80821115612c77576000816000905550600101612c5f565b5090565b6000604051905090565b600080fd5b600080fd5b600073ffffffffffffffffffffffffffffffffffffffff82169050919050565b6000612cba82612c8f565b9050919050565b612cca81612caf565b8114612cd557600080fd5b50565b600081359050612ce781612cc1565b92915050565b6000819050919050565b612d0081612ced565b8114612d0b57600080fd5b50565b600081359050612d1d81612cf7565b92915050565b60008060408385031215612d3a57612d39612c85565b5b6000612d4885828601612cd8565b9250506020612d5985828601612d0e565b9150509250929050565b612d6c81612ced565b82525050565b6000602082019050612d876000830184612d63565b92915050565b60007fffffffff0000000000000000000000000000000000000000000000000000000082169050919050565b612dc281612d8d565b8114612dcd57600080fd5b50565b600081359050612ddf81612db9565b92915050565b600060208284031215612dfb57612dfa612c85565b5b6000612e0984828501612dd0565b91505092915050565b60008115159050919050565b612e2781612e12565b82525050565b6000602082019050612e426000830184612e1e565b92915050565b600080fd5b600080fd5b6000601f19601f8301169050919050565b7f4e487b7100000000000000000000000000000000000000000000000000000000600052604160045260246000fd5b612e9b82612e52565b810181811067ffffffffffffffff82111715612eba57612eb9612e63565b5b80604052505050565b6000612ecd612c7b565b9050612ed98282612e92565b919050565b600067ffffffffffffffff821115612ef957612ef8612e63565b5b612f0282612e52565b9050602081019050919050565b82818337600083830152505050565b6000612f31612f2c84612ede565b612ec3565b905082815260208101848484011115612f4d57612f4c612e4d565b5b612f58848285612f0f565b509392505050565b600082601f830112612f7557612f74612e48565b5b8135612f85848260208601612f1e565b91505092915050565b600060208284031215612fa457612fa3612c85565b5b600082013567ffffffffffffffff811115612fc257612fc1612c8a565b5b612fce84828501612f60565b91505092915050565b600060208284031215612fed57612fec612c85565b5b6000612ffb84828501612d0e565b91505092915050565b600081519050919050565b600082825260208201905092915050565b60005b8381101561303e578082015181840152602081019050613023565b8381111561304d576000848401525b50505050565b600061305e82613004565b613068818561300f565b9350613078818560208601613020565b61308181612e52565b840191505092915050565b600060208201905081810360008301526130a68184613053565b905092915050565b600067ffffffffffffffff8211156130c9576130c8612e63565b5b602082029050602081019050919050565b600080fd5b60006130f26130ed846130ae565b612ec3565b90508083825260208201905060208402830185811115613115576131146130da565b5b835b8181101561313e578061312a8882612d0e565b845260208401935050602081019050613117565b5050509392505050565b600082601f83011261315d5761315c612e48565b5b813561316d8482602086016130df565b91505092915050565b600067ffffffffffffffff82111561319157613190612e63565b5b61319a82612e52565b9050602081019050919050565b60006131ba6131b584613176565b612ec3565b9050828152602081018484840111156131d6576131d5612e4d565b5b6131e1848285612f0f565b509392505050565b600082601f8301126131fe576131fd612e48565b5b813561320e8482602086016131a7565b91505092915050565b600080600080600060a0868803121561323357613232612c85565b5b600061324188828901612cd8565b955050602061325288828901612cd8565b945050604086013567ffffffffffffffff81111561327357613272612c8a565b5b61327f88828901613148565b935050606086013567ffffffffffffffff8111156132a05761329f612c8a565b5b6132ac88828901613148565b925050608086013567ffffffffffffffff8111156132cd576132cc612c8a565b5b6132d9888289016131e9565b9150509295509295909350565b600067ffffffffffffffff82111561330157613300612e63565b5b602082029050602081019050919050565b6000613325613320846132e6565b612ec3565b90508083825260208201905060208402830185811115613348576133476130da565b5b835b81811015613371578061335d8882612cd8565b84526020840193505060208101905061334a565b5050509392505050565b600082601f8301126133905761338f612e48565b5b81356133a0848260208601613312565b91505092915050565b600080604083850312156133c0576133bf612c85565b5b600083013567ffffffffffffffff8111156133de576133dd612c8a565b5b6133ea8582860161337b565b925050602083013567ffffffffffffffff81111561340b5761340a612c8a565b5b61341785828601613148565b9150509250929050565b600081519050919050565b600082825260208201905092915050565b6000819050602082019050919050565b61345681612ced565b82525050565b6000613468838361344d565b60208301905092915050565b6000602082019050919050565b600061348c82613421565b613496818561342c565b93506134a18361343d565b8060005b838110156134d25781516134b9888261345c565b97506134c483613474565b9250506001810190506134a5565b5085935050505092915050565b600060208201905081810360008301526134f98184613481565b905092915050565b60006020828403121561351757613516612c85565b5b600061352584828501612cd8565b91505092915050565b60008060006060848603121561354757613546612c85565b5b600061355586828701612cd8565b935050602084013567ffffffffffffffff81111561357657613575612c8a565b5b61358286828701613148565b925050604084013567ffffffffffffffff8111156135a3576135a2612c8a565b5b6135af86828701613148565b9150509250925092565b6135c281612caf565b82525050565b60006020820190506135dd60008301846135b9565b92915050565b6135ec81612e12565b81146135f757600080fd5b50565b600081359050613609816135e3565b92915050565b6000806040838503121561362657613625612c85565b5b600061363485828601612cd8565b9250506020613645858286016135fa565b9150509250929050565b6000806040838503121561366657613665612c85565b5b600061367485828601612cd8565b925050602061368585828601612cd8565b9150509250929050565b600080600080600060a086880312156136ab576136aa612c85565b5b60006136b988828901612cd8565b95505060206136ca88828901612cd8565b94505060406136db88828901612d0e565b93505060606136ec88828901612d0e565b925050608086013567ffffffffffffffff81111561370d5761370c612c8a565b5b613719888289016131e9565b9150509295509295909350565b60008060006060848603121561373f5761373e612c85565b5b600061374d86828701612cd8565b935050602061375e86828701612d0e565b925050604061376f86828701612d0e565b9150509250925092565b7f455243313135353a2062616c616e636520717565727920666f7220746865207a60008201527f65726f2061646472657373000000000000000000000000000000000000000000602082015250565b60006137d5602b8361300f565b91506137e082613779565b604082019050919050565b60006020820190508181036000830152613804816137c8565b9050919050565b7f4f776e61626c653a2063616c6c6572206973206e6f7420746865206f776e6572600082015250565b600061384160208361300f565b915061384c8261380b565b602082019050919050565b6000602082019050818103600083015261387081613834565b9050919050565b7f4e487b7100000000000000000000000000000000000000000000000000000000600052602260045260246000fd5b600060028204905060018216806138be57607f821691505b602082108114156138d2576138d1613877565b5b50919050565b7f455243313135353a207472616e736665722063616c6c6572206973206e6f742060008201527f6f776e6572206e6f7220617070726f7665640000000000000000000000000000602082015250565b600061393460328361300f565b915061393f826138d8565b604082019050919050565b6000602082019050818103600083015261396381613927565b9050919050565b7f455243313135353a206163636f756e747320616e6420696473206c656e67746860008201527f206d69736d617463680000000000000000000000000000000000000000000000602082015250565b60006139c660298361300f565b91506139d18261396a565b604082019050919050565b600060208201905081810360008301526139f5816139b9565b9050919050565b7f4e487b7100000000000000000000000000000000000000000000000000000000600052603260045260246000fd5b7f4e487b7100000000000000000000000000000000000000000000000000000000600052601160045260246000fd5b6000613a6582612ced565b91507fffffffffffffffffffffffffffffffffffffffffffffffffffffffffffffffff821415613a9857613a97613a2b565b5b600182019050919050565b7f496e73756666696369656e742062616c616e636520746f204d696e7400000000600082015250565b6000613ad9601c8361300f565b9150613ae482613aa3565b602082019050919050565b60006020820190508181036000830152613b0881613acc565b9050919050565b7f4f7574206f6620546f6b656e7300000000000000000000000000000000000000600082015250565b6000613b45600d8361300f565b9150613b5082613b0f565b602082019050919050565b60006020820190508181036000830152613b7481613b38565b9050919050565b7f596f752063616e206d696e74206f6e6c79203300000000000000000000000000600082015250565b6000613bb160138361300f565b9150613bbc82613b7b565b602082019050919050565b60006020820190508181036000830152613be081613ba4565b9050919050565b7f596f752063616e206d696e74206f6e6c79203500000000000000000000000000600082015250565b6000613c1d60138361300f565b9150613c2882613be7565b602082019050919050565b60006020820190508181036000830152613c4c81613c10565b9050919050565b6000613c5e82612ced565b9150613c6983612ced565b9250827fffffffffffffffffffffffffffffffffffffffffffffffffffffffffffffffff03821115613c9e57613c9d613a2b565b5b828201905092915050565b7f455243313135353a2063616c6c6572206973206e6f74206f776e6572206e6f7260008201527f20617070726f7665640000000000000000000000000000000000000000000000602082015250565b6000613d0560298361300f565b9150613d1082613ca9565b604082019050919050565b60006020820190508181036000830152613d3481613cf8565b9050919050565b6000613d4682612ced565b9150613d5183612ced565b925082821015613d6457613d63613a2b565b5b828203905092915050565b7f4e487b7100000000000000000000000000000000000000000000000000000000600052601260045260246000fd5b6000613da982612ced565b9150613db483612ced565b925082613dc457613dc3613d6f565b5b828206905092915050565b7f526566696c6c206d757374206265206d756c7469706c65206f66203132000000600082015250565b6000613e05601d8361300f565b9150613e1082613dcf565b602082019050919050565b60006020820190508181036000830152613e3481613df8565b9050919050565b7f526566696c6c2063616e206f6e6c7920626520646f6e65207768656e20616c6c60008201527f20746f6b656e7320617265206d696e7465640000000000000000000000000000602082015250565b6000613e9760328361300f565b9150613ea282613e3b565b604082019050919050565b60006020820190508181036000830152613ec681613e8a565b9050919050565b7f4f776e61626c653a206e6577206f776e657220697320746865207a65726f206160008201527f6464726573730000000000000000000000000000000000000000000000000000602082015250565b6000613f2960268361300f565b9150613f3482613ecd565b604082019050919050565b60006020820190508181036000830152613f5881613f1c565b9050919050565b7f455243313135353a2069647320616e6420616d6f756e7473206c656e6774682060008201527f6d69736d61746368000000000000000000000000000000000000000000000000602082015250565b6000613fbb60288361300f565b9150613fc682613f5f565b604082019050919050565b60006020820190508181036000830152613fea81613fae565b9050919050565b7f455243313135353a207472616e7366657220746f20746865207a65726f20616460008201527f6472657373000000000000000000000000000000000000000000000000000000602082015250565b600061404d60258361300f565b915061405882613ff1565b604082019050919050565b6000602082019050818103600083015261407c81614040565b9050919050565b7f455243313135353a20696e73756666696369656e742062616c616e636520666f60008201527f72207472616e7366657200000000000000000000000000000000000000000000602082015250565b60006140df602a8361300f565b91506140ea82614083565b604082019050919050565b6000602082019050818103600083015261410e816140d2565b9050919050565b6000604082019050818103600083015261412f8185613481565b905081810360208301526141438184613481565b90509392505050565b7f5061757361626c653a206e6f7420706175736564000000000000000000000000600082015250565b600061418260148361300f565b915061418d8261414c565b602082019050919050565b600060208201905081810360008301526141b181614175565b9050919050565b7f455243313135353a206d696e7420746f20746865207a65726f2061646472657360008201527f7300000000000000000000000000000000000000000000000000000000000000602082015250565b600061421460218361300f565b915061421f826141b8565b604082019050919050565b6000602082019050818103600083015261424381614207565b9050919050565b600060408201905061425f6000830185612d63565b61426c6020830184612d63565b9392505050565b7f455243313135353a206275726e2066726f6d20746865207a65726f206164647260008201527f6573730000000000000000000000000000000000000000000000000000000000602082015250565b60006142cf60238361300f565b91506142da82614273565b604082019050919050565b600060208201905081810360008301526142fe816142c2565b9050919050565b7f455243313135353a206275726e20616d6f756e7420657863656564732062616c60008201527f616e636500000000000000000000000000000000000000000000000000000000602082015250565b600061436160248361300f565b915061436c82614305565b604082019050919050565b6000602082019050818103600083015261439081614354565b9050919050565b7f5061757361626c653a2070617573656400000000000000000000000000000000600082015250565b60006143cd60108361300f565b91506143d882614397565b602082019050919050565b600060208201905081810360008301526143fc816143c0565b9050919050565b7f455243313135353a2073657474696e6720617070726f76616c2073746174757360008201527f20666f722073656c660000000000000000000000000000000000000000000000602082015250565b600061445f60298361300f565b915061446a82614403565b604082019050919050565b6000602082019050818103600083015261448e81614452565b9050919050565b600081519050919050565b600082825260208201905092915050565b60006144bc82614495565b6144c681856144a0565b93506144d6818560208601613020565b6144df81612e52565b840191505092915050565b600060a0820190506144ff60008301886135b9565b61450c60208301876135b9565b818103604083015261451e8186613481565b905081810360608301526145328185613481565b9050818103608083015261454681846144b1565b90509695505050505050565b60008151905061456181612db9565b92915050565b60006020828403121561457d5761457c612c85565b5b600061458b84828501614552565b91505092915050565b60008160e01c9050919050565b600060033d11156145c05760046000803e6145bd600051614594565b90505b90565b600060443d10156145d357614656565b6145db612c7b565b60043d036004823e80513d602482011167ffffffffffffffff82111715614603575050614656565b808201805167ffffffffffffffff8111156146215750505050614656565b80602083010160043d03850181111561463e575050505050614656565b61464d82602001850186612e92565b82955050505050505b90565b7f455243313135353a207472616e7366657220746f206e6f6e204552433131353560008201527f526563656976657220696d706c656d656e746572000000000000000000000000602082015250565b60006146b560348361300f565b91506146c082614659565b604082019050919050565b600060208201905081810360008301526146e4816146a8565b9050919050565b7f455243313135353a204552433131353552656365697665722072656a6563746560008201527f6420746f6b656e73000000000000000000000000000000000000000000000000602082015250565b600061474760288361300f565b9150614752826146eb565b604082019050919050565b600060208201905081810360008301526147768161473a565b9050919050565b600060a08201905061479260008301886135b9565b61479f60208301876135b9565b6147ac6040830186612d63565b6147b96060830185612d63565b81810360808301526147cb81846144b1565b9050969550505050505056fea2646970667358221220a993ce58e4f0aaa289bb189f46d88210e9daa2b23150ae1b7e5e2aff0d41e3b964736f6c634300080a003320697066733a2f2f516d6174413273384b796f32717231526e7178346461314b674c7842616f6d534a784a6b614b6d396e6e33656b452f7b69647d2e6a736f6e",
  "immutableReferences": {},
  "source": "// SPDX-License-Identifier: MIT\npragma solidity ^0.8.7;\n\nimport \"@openzeppelin/contracts/token/ERC1155/ERC1155.sol\";\nimport \"@openzeppelin/contracts/access/Ownable.sol\";\nimport \"@openzeppelin/contracts/security/Pausable.sol\";\nimport \"@openzeppelin/contracts/token/ERC1155/extensions/ERC1155Burnable.sol\";\nimport \"@openzeppelin/contracts/token/ERC1155/extensions/ERC1155Supply.sol\";\n\n/// @custom:security-contact rahuljaguste@gmail.com\ncontract VendingMachine is\n    ERC1155,\n    Ownable,\n    Pausable,\n    ERC1155Burnable,\n    ERC1155Supply\n{\n    uint256 public price = 0 ether;\n\n    mapping(address => uint256) addressBalances;\n    uint256 public maxTokens = 60;\n    uint256 public tokenId = 0;\n\n    constructor()\n        ERC1155(\n            \" ipfs://QmatA2s8Kyo2qr1Rnqx4da1KgLxBaomSJxJkaKm9nn3ekE/{id}.json\"\n        )\n    {}\n\n    function setURI(string memory newuri) public onlyOwner {\n        _setURI(newuri);\n    }\n\n    function pause() public onlyOwner {\n        _pause();\n    }\n\n    function unpause() public onlyOwner {\n        _unpause();\n    }\n\n    function mint(address account) public payable {\n        require(msg.value >= price, \"Insufficient balance to Mint\");\n        require(tokenId < maxTokens, \"Out of Tokens\");\n        require(addressBalances[msg.sender] <= 3, \"You can mint only 3\");\n        require(totalSupply(tokenId) < 5, \"You can mint only 5\");\n\n        addressBalances[msg.sender] += 1;\n        tokenId++;\n        _mint(account, tokenId, 1, \"\");\n    }\n\n    function _beforeTokenTransfer(\n        address operator,\n        address from,\n        address to,\n        uint256[] memory ids,\n        uint256[] memory amounts,\n        bytes memory data\n    ) internal override(ERC1155, ERC1155Supply) whenNotPaused {\n        super._beforeTokenTransfer(operator, from, to, ids, amounts, data);\n    }\n\n    function setPrice(uint256 _price) public onlyOwner {\n        price = _price;\n    }\n\n    function withdraw(uint256 _amount) public payable onlyOwner {\n        require(payable(msg.sender).send(_amount));\n    }\n\n    function withdrawAll() public payable onlyOwner {\n        require(payable(msg.sender).send(address(this).balance));\n    }\n\n    function refill(uint256 _additionalTokens) public onlyOwner {\n        require(_additionalTokens % 12 == 0, \"Refill must be multiple of 12\");\n        require(\n            tokenId == maxTokens,\n            \"Refill can only be done when all tokens are minted\"\n        );\n        maxTokens += _additionalTokens;\n    }\n\n    function getTokenLeft(uint256 id) public view returns (uint256) {\n        return 5 - totalSupply(id);\n    }\n}\n",
  "sourcePath": "/Users/rj/2021Projects/blockchain/EthGlobal-Hackathon/Truffle/contracts/VendingMachine.sol",
  "compiler": {
    "name": "solc",
    "version": "0.8.10+commit.fc410830.Emscripten.clang"
  },
  "schemaVersion": "3.4.3",
  "updatedAt": "2022-01-14T13:48:33.291Z",
  "networkType": "ethereum",
  "devdoc": {
    "custom:security-contact": "rahuljaguste@gmail.com",
    "kind": "dev",
    "methods": {
      "balanceOf(address,uint256)": {
        "details": "See {IERC1155-balanceOf}. Requirements: - `account` cannot be the zero address."
      },
      "balanceOfBatch(address[],uint256[])": {
        "details": "See {IERC1155-balanceOfBatch}. Requirements: - `accounts` and `ids` must have the same length."
      },
      "exists(uint256)": {
        "details": "Indicates whether any token exist with a given id, or not."
      },
      "isApprovedForAll(address,address)": {
        "details": "See {IERC1155-isApprovedForAll}."
      },
      "owner()": {
        "details": "Returns the address of the current owner."
      },
      "paused()": {
        "details": "Returns true if the contract is paused, and false otherwise."
      },
      "renounceOwnership()": {
        "details": "Leaves the contract without owner. It will not be possible to call `onlyOwner` functions anymore. Can only be called by the current owner. NOTE: Renouncing ownership will leave the contract without an owner, thereby removing any functionality that is only available to the owner."
      },
      "safeBatchTransferFrom(address,address,uint256[],uint256[],bytes)": {
        "details": "See {IERC1155-safeBatchTransferFrom}."
      },
      "safeTransferFrom(address,address,uint256,uint256,bytes)": {
        "details": "See {IERC1155-safeTransferFrom}."
      },
      "setApprovalForAll(address,bool)": {
        "details": "See {IERC1155-setApprovalForAll}."
      },
      "supportsInterface(bytes4)": {
        "details": "See {IERC165-supportsInterface}."
      },
      "totalSupply(uint256)": {
        "details": "Total amount of tokens in with a given id."
      },
      "transferOwnership(address)": {
        "details": "Transfers ownership of the contract to a new account (`newOwner`). Can only be called by the current owner."
      },
      "uri(uint256)": {
        "details": "See {IERC1155MetadataURI-uri}. This implementation returns the same URI for *all* token types. It relies on the token type ID substitution mechanism https://eips.ethereum.org/EIPS/eip-1155#metadata[defined in the EIP]. Clients calling this function must replace the `\\{id\\}` substring with the actual token type ID."
      }
    },
    "version": 1
  },
  "userdoc": {
    "kind": "user",
    "methods": {},
    "version": 1
  }
}