{
  "contractName": "VendingMachine",
  "abi": [
    {
      "inputs": [],
      "stateMutability": "nonpayable",
      "type": "constructor"
    },
    {
      "anonymous": false,
      "inputs": [
        {
          "indexed": true,
          "internalType": "address",
          "name": "account",
          "type": "address"
        },
        {
          "indexed": true,
          "internalType": "address",
          "name": "operator",
          "type": "address"
        },
        {
          "indexed": false,
          "internalType": "bool",
          "name": "approved",
          "type": "bool"
        }
      ],
      "name": "ApprovalForAll",
      "type": "event"
    },
    {
      "anonymous": false,
      "inputs": [
        {
          "indexed": true,
          "internalType": "address",
          "name": "previousOwner",
          "type": "address"
        },
        {
          "indexed": true,
          "internalType": "address",
          "name": "newOwner",
          "type": "address"
        }
      ],
      "name": "OwnershipTransferred",
      "type": "event"
    },
    {
      "anonymous": false,
      "inputs": [
        {
          "indexed": false,
          "internalType": "address",
          "name": "account",
          "type": "address"
        }
      ],
      "name": "Paused",
      "type": "event"
    },
    {
      "anonymous": false,
      "inputs": [
        {
          "indexed": true,
          "internalType": "address",
          "name": "operator",
          "type": "address"
        },
        {
          "indexed": true,
          "internalType": "address",
          "name": "from",
          "type": "address"
        },
        {
          "indexed": true,
          "internalType": "address",
          "name": "to",
          "type": "address"
        },
        {
          "indexed": false,
          "internalType": "uint256[]",
          "name": "ids",
          "type": "uint256[]"
        },
        {
          "indexed": false,
          "internalType": "uint256[]",
          "name": "values",
          "type": "uint256[]"
        }
      ],
      "name": "TransferBatch",
      "type": "event"
    },
    {
      "anonymous": false,
      "inputs": [
        {
          "indexed": true,
          "internalType": "address",
          "name": "operator",
          "type": "address"
        },
        {
          "indexed": true,
          "internalType": "address",
          "name": "from",
          "type": "address"
        },
        {
          "indexed": true,
          "internalType": "address",
          "name": "to",
          "type": "address"
        },
        {
          "indexed": false,
          "internalType": "uint256",
          "name": "id",
          "type": "uint256"
        },
        {
          "indexed": false,
          "internalType": "uint256",
          "name": "value",
          "type": "uint256"
        }
      ],
      "name": "TransferSingle",
      "type": "event"
    },
    {
      "anonymous": false,
      "inputs": [
        {
          "indexed": false,
          "internalType": "string",
          "name": "value",
          "type": "string"
        },
        {
          "indexed": true,
          "internalType": "uint256",
          "name": "id",
          "type": "uint256"
        }
      ],
      "name": "URI",
      "type": "event"
    },
    {
      "anonymous": false,
      "inputs": [
        {
          "indexed": false,
          "internalType": "address",
          "name": "account",
          "type": "address"
        }
      ],
      "name": "Unpaused",
      "type": "event"
    },
    {
      "inputs": [
        {
          "internalType": "address",
          "name": "account",
          "type": "address"
        },
        {
          "internalType": "uint256",
          "name": "id",
          "type": "uint256"
        }
      ],
      "name": "balanceOf",
      "outputs": [
        {
          "internalType": "uint256",
          "name": "",
          "type": "uint256"
        }
      ],
      "stateMutability": "view",
      "type": "function",
      "constant": true
    },
    {
      "inputs": [
        {
          "internalType": "address[]",
          "name": "accounts",
          "type": "address[]"
        },
        {
          "internalType": "uint256[]",
          "name": "ids",
          "type": "uint256[]"
        }
      ],
      "name": "balanceOfBatch",
      "outputs": [
        {
          "internalType": "uint256[]",
          "name": "",
          "type": "uint256[]"
        }
      ],
      "stateMutability": "view",
      "type": "function",
      "constant": true
    },
    {
      "inputs": [
        {
          "internalType": "address",
          "name": "account",
          "type": "address"
        },
        {
          "internalType": "uint256",
          "name": "id",
          "type": "uint256"
        },
        {
          "internalType": "uint256",
          "name": "value",
          "type": "uint256"
        }
      ],
      "name": "burn",
      "outputs": [],
      "stateMutability": "nonpayable",
      "type": "function"
    },
    {
      "inputs": [
        {
          "internalType": "address",
          "name": "account",
          "type": "address"
        },
        {
          "internalType": "uint256[]",
          "name": "ids",
          "type": "uint256[]"
        },
        {
          "internalType": "uint256[]",
          "name": "values",
          "type": "uint256[]"
        }
      ],
      "name": "burnBatch",
      "outputs": [],
      "stateMutability": "nonpayable",
      "type": "function"
    },
    {
      "inputs": [],
      "name": "countPerSlot",
      "outputs": [
        {
          "internalType": "uint256",
          "name": "",
          "type": "uint256"
        }
      ],
      "stateMutability": "view",
      "type": "function",
      "constant": true
    },
    {
      "inputs": [
        {
          "internalType": "uint256",
          "name": "id",
          "type": "uint256"
        }
      ],
      "name": "exists",
      "outputs": [
        {
          "internalType": "bool",
          "name": "",
          "type": "bool"
        }
      ],
      "stateMutability": "view",
      "type": "function",
      "constant": true
    },
    {
      "inputs": [
        {
          "internalType": "address",
          "name": "account",
          "type": "address"
        },
        {
          "internalType": "address",
          "name": "operator",
          "type": "address"
        }
      ],
      "name": "isApprovedForAll",
      "outputs": [
        {
          "internalType": "bool",
          "name": "",
          "type": "bool"
        }
      ],
      "stateMutability": "view",
      "type": "function",
      "constant": true
    },
    {
      "inputs": [],
      "name": "maxTokens",
      "outputs": [
        {
          "internalType": "uint256",
          "name": "",
          "type": "uint256"
        }
      ],
      "stateMutability": "view",
      "type": "function",
      "constant": true
    },
    {
      "inputs": [],
      "name": "owner",
      "outputs": [
        {
          "internalType": "address",
          "name": "",
          "type": "address"
        }
      ],
      "stateMutability": "view",
      "type": "function",
      "constant": true
    },
    {
      "inputs": [],
      "name": "paused",
      "outputs": [
        {
          "internalType": "bool",
          "name": "",
          "type": "bool"
        }
      ],
      "stateMutability": "view",
      "type": "function",
      "constant": true
    },
    {
      "inputs": [],
      "name": "price",
      "outputs": [
        {
          "internalType": "uint256",
          "name": "",
          "type": "uint256"
        }
      ],
      "stateMutability": "view",
      "type": "function",
      "constant": true
    },
    {
      "inputs": [],
      "name": "renounceOwnership",
      "outputs": [],
      "stateMutability": "nonpayable",
      "type": "function"
    },
    {
      "inputs": [
        {
          "internalType": "address",
          "name": "from",
          "type": "address"
        },
        {
          "internalType": "address",
          "name": "to",
          "type": "address"
        },
        {
          "internalType": "uint256[]",
          "name": "ids",
          "type": "uint256[]"
        },
        {
          "internalType": "uint256[]",
          "name": "amounts",
          "type": "uint256[]"
        },
        {
          "internalType": "bytes",
          "name": "data",
          "type": "bytes"
        }
      ],
      "name": "safeBatchTransferFrom",
      "outputs": [],
      "stateMutability": "nonpayable",
      "type": "function"
    },
    {
      "inputs": [
        {
          "internalType": "address",
          "name": "from",
          "type": "address"
        },
        {
          "internalType": "address",
          "name": "to",
          "type": "address"
        },
        {
          "internalType": "uint256",
          "name": "id",
          "type": "uint256"
        },
        {
          "internalType": "uint256",
          "name": "amount",
          "type": "uint256"
        },
        {
          "internalType": "bytes",
          "name": "data",
          "type": "bytes"
        }
      ],
      "name": "safeTransferFrom",
      "outputs": [],
      "stateMutability": "nonpayable",
      "type": "function"
    },
    {
      "inputs": [
        {
          "internalType": "address",
          "name": "operator",
          "type": "address"
        },
        {
          "internalType": "bool",
          "name": "approved",
          "type": "bool"
        }
      ],
      "name": "setApprovalForAll",
      "outputs": [],
      "stateMutability": "nonpayable",
      "type": "function"
    },
    {
      "inputs": [
        {
          "internalType": "bytes4",
          "name": "interfaceId",
          "type": "bytes4"
        }
      ],
      "name": "supportsInterface",
      "outputs": [
        {
          "internalType": "bool",
          "name": "",
          "type": "bool"
        }
      ],
      "stateMutability": "view",
      "type": "function",
      "constant": true
    },
    {
      "inputs": [],
      "name": "tokenId",
      "outputs": [
        {
          "internalType": "uint256",
          "name": "",
          "type": "uint256"
        }
      ],
      "stateMutability": "view",
      "type": "function",
      "constant": true
    },
    {
      "inputs": [
        {
          "internalType": "uint256",
          "name": "id",
          "type": "uint256"
        }
      ],
      "name": "totalSupply",
      "outputs": [
        {
          "internalType": "uint256",
          "name": "",
          "type": "uint256"
        }
      ],
      "stateMutability": "view",
      "type": "function",
      "constant": true
    },
    {
      "inputs": [
        {
          "internalType": "address",
          "name": "newOwner",
          "type": "address"
        }
      ],
      "name": "transferOwnership",
      "outputs": [],
      "stateMutability": "nonpayable",
      "type": "function"
    },
    {
      "inputs": [
        {
          "internalType": "uint256",
          "name": "",
          "type": "uint256"
        }
      ],
      "name": "uri",
      "outputs": [
        {
          "internalType": "string",
          "name": "",
          "type": "string"
        }
      ],
      "stateMutability": "view",
      "type": "function",
      "constant": true
    },
    {
      "inputs": [
        {
          "internalType": "string",
          "name": "newuri",
          "type": "string"
        }
      ],
      "name": "setURI",
      "outputs": [],
      "stateMutability": "nonpayable",
      "type": "function"
    },
    {
      "inputs": [],
      "name": "pause",
      "outputs": [],
      "stateMutability": "nonpayable",
      "type": "function"
    },
    {
      "inputs": [],
      "name": "unpause",
      "outputs": [],
      "stateMutability": "nonpayable",
      "type": "function"
    },
    {
      "inputs": [
        {
          "internalType": "uint256",
          "name": "id",
          "type": "uint256"
        }
      ],
      "name": "mint",
      "outputs": [],
      "stateMutability": "payable",
      "type": "function",
      "payable": true
    },
    {
      "inputs": [
        {
          "internalType": "uint256",
          "name": "_price",
          "type": "uint256"
        }
      ],
      "name": "setPrice",
      "outputs": [],
      "stateMutability": "nonpayable",
      "type": "function"
    },
    {
      "inputs": [
        {
          "internalType": "uint256",
          "name": "_amount",
          "type": "uint256"
        }
      ],
      "name": "withdraw",
      "outputs": [],
      "stateMutability": "payable",
      "type": "function",
      "payable": true
    },
    {
      "inputs": [],
      "name": "withdrawAll",
      "outputs": [],
      "stateMutability": "payable",
      "type": "function",
      "payable": true
    },
    {
      "inputs": [
        {
          "internalType": "uint256",
          "name": "_additionalTokens",
          "type": "uint256"
        },
        {
          "internalType": "uint256",
          "name": "_countPerSlot",
          "type": "uint256"
        }
      ],
      "name": "refill",
      "outputs": [],
      "stateMutability": "nonpayable",
      "type": "function"
    },
    {
      "inputs": [],
      "name": "reset",
      "outputs": [],
      "stateMutability": "nonpayable",
      "type": "function"
    },
    {
      "inputs": [],
      "name": "isOutOfTokens",
      "outputs": [
        {
          "internalType": "bool",
          "name": "",
          "type": "bool"
        }
      ],
      "stateMutability": "view",
      "type": "function",
      "constant": true
    },
    {
      "inputs": [],
      "name": "getCurrentTokenCount",
      "outputs": [
        {
          "internalType": "uint256",
          "name": "",
          "type": "uint256"
        }
      ],
      "stateMutability": "view",
      "type": "function",
      "constant": true
    },
    {
      "inputs": [
        {
          "internalType": "uint256",
          "name": "id",
          "type": "uint256"
        }
      ],
      "name": "getTokenLeft",
      "outputs": [
        {
          "internalType": "uint256",
          "name": "",
          "type": "uint256"
        }
      ],
      "stateMutability": "view",
      "type": "function",
      "constant": true
    }
  ],
  "bytecode": "0x60806040526000600555603c600755600060085560056009553480156200002557600080fd5b506040518060600160405280603f815260200162004d2a603f913962000051816200009360201b60201c565b506200007262000066620000af60201b60201c565b620000b760201b60201c565b6000600360146101000a81548160ff02191690831515021790555062000292565b8060029080519060200190620000ab9291906200017d565b5050565b600033905090565b6000600360009054906101000a900473ffffffffffffffffffffffffffffffffffffffff16905081600360006101000a81548173ffffffffffffffffffffffffffffffffffffffff021916908373ffffffffffffffffffffffffffffffffffffffff1602179055508173ffffffffffffffffffffffffffffffffffffffff168173ffffffffffffffffffffffffffffffffffffffff167f8be0079c531659141344cd1fd0a4f28419497f9722a3daafe3b4186f6b6457e060405160405180910390a35050565b8280546200018b906200025c565b90600052602060002090601f016020900481019282620001af5760008555620001fb565b82601f10620001ca57805160ff1916838001178555620001fb565b82800160010185558215620001fb579182015b82811115620001fa578251825591602001919060010190620001dd565b5b5090506200020a91906200020e565b5090565b5b80821115620002295760008160009055506001016200020f565b5090565b7f4e487b7100000000000000000000000000000000000000000000000000000000600052602260045260246000fd5b600060028204905060018216806200027557607f821691505b602082108114156200028c576200028b6200022d565b5b50919050565b614a8880620002a26000396000f3fe6080604052600436106101e25760003560e01c8063853828b611610102578063bd85b03911610095578063e985e9c511610064578063e985e9c51461067e578063f242432a146106bb578063f2fde38b146106e4578063f5298aca1461070d576101e2565b8063bd85b039146105d4578063c6cf868a14610611578063d826f88f1461063c578063e831574214610653576101e2565b806398ebf85d116100d157806398ebf85d1461053b578063a035b1fe14610564578063a0712d681461058f578063a22cb465146105ab576101e2565b8063853828b6146104a057806387dbbb0e146104aa5780638da5cb5b146104e757806391b7f5ed14610512576101e2565b80633f4ba83a1161017a5780635c975abb116101495780635c975abb1461041e5780636b20c45414610449578063715018a6146104725780638456cb5914610489576101e2565b80633f4ba83a146103625780634e1273f4146103795780634f558e79146103b65780635b24fb6a146103f3576101e2565b806317d70f7c116101b657806317d70f7c146102c75780632e1a7d4d146102f25780632eb2c2d61461030e5780633845c48114610337576101e2565b8062fdd58e146101e757806301ffc9a71461022457806302fe5305146102615780630e89341c1461028a575b600080fd5b3480156101f357600080fd5b5061020e60048036038101906102099190612ef2565b610736565b60405161021b9190612f41565b60405180910390f35b34801561023057600080fd5b5061024b60048036038101906102469190612fb4565b6107ff565b6040516102589190612ffc565b60405180910390f35b34801561026d57600080fd5b506102886004803603810190610283919061315d565b6108e1565b005b34801561029657600080fd5b506102b160048036038101906102ac91906131a6565b610969565b6040516102be919061325b565b60405180910390f35b3480156102d357600080fd5b506102dc6109fd565b6040516102e99190612f41565b60405180910390f35b61030c600480360381019061030791906131a6565b610a03565b005b34801561031a57600080fd5b50610335600480360381019061033091906133e6565b610ac0565b005b34801561034357600080fd5b5061034c610b61565b6040516103599190612f41565b60405180910390f35b34801561036e57600080fd5b50610377610b67565b005b34801561038557600080fd5b506103a0600480360381019061039b9190613578565b610bed565b6040516103ad91906136ae565b60405180910390f35b3480156103c257600080fd5b506103dd60048036038101906103d891906131a6565b610d06565b6040516103ea9190612ffc565b60405180910390f35b3480156103ff57600080fd5b50610408610d1a565b6040516104159190612ffc565b60405180910390f35b34801561042a57600080fd5b50610433610d28565b6040516104409190612ffc565b60405180910390f35b34801561045557600080fd5b50610470600480360381019061046b91906136d0565b610d3f565b005b34801561047e57600080fd5b50610487610ddc565b005b34801561049557600080fd5b5061049e610e64565b005b6104a8610eea565b005b3480156104b657600080fd5b506104d160048036038101906104cc91906131a6565b610fa6565b6040516104de9190612f41565b60405180910390f35b3480156104f357600080fd5b506104fc610fc5565b604051610509919061376a565b60405180910390f35b34801561051e57600080fd5b50610539600480360381019061053491906131a6565b610fef565b005b34801561054757600080fd5b50610562600480360381019061055d9190613785565b611075565b005b34801561057057600080fd5b506105796111ed565b6040516105869190612f41565b60405180910390f35b6105a960048036038101906105a491906131a6565b6111f3565b005b3480156105b757600080fd5b506105d260048036038101906105cd91906137f1565b6113da565b005b3480156105e057600080fd5b506105fb60048036038101906105f691906131a6565b6113f0565b6040516106089190612f41565b60405180910390f35b34801561061d57600080fd5b5061062661140d565b6040516106339190612f41565b60405180910390f35b34801561064857600080fd5b50610651611417565b005b34801561065f57600080fd5b5061066861149e565b6040516106759190612f41565b60405180910390f35b34801561068a57600080fd5b506106a560048036038101906106a09190613831565b6114a4565b6040516106b29190612ffc565b60405180910390f35b3480156106c757600080fd5b506106e260048036038101906106dd9190613871565b611538565b005b3480156106f057600080fd5b5061070b60048036038101906107069190613908565b6115d9565b005b34801561071957600080fd5b50610734600480360381019061072f9190613935565b6116d1565b005b60008073ffffffffffffffffffffffffffffffffffffffff168373ffffffffffffffffffffffffffffffffffffffff1614156107a7576040517f08c379a000000000000000000000000000000000000000000000000000000000815260040161079e906139fa565b60405180910390fd5b60008083815260200190815260200160002060008473ffffffffffffffffffffffffffffffffffffffff1673ffffffffffffffffffffffffffffffffffffffff16815260200190815260200160002054905092915050565b60007fd9b67a26000000000000000000000000000000000000000000000000000000007bffffffffffffffffffffffffffffffffffffffffffffffffffffffff1916827bffffffffffffffffffffffffffffffffffffffffffffffffffffffff191614806108ca57507f0e89341c000000000000000000000000000000000000000000000000000000007bffffffffffffffffffffffffffffffffffffffffffffffffffffffff1916827bffffffffffffffffffffffffffffffffffffffffffffffffffffffff1916145b806108da57506108d98261176e565b5b9050919050565b6108e96117d8565b73ffffffffffffffffffffffffffffffffffffffff16610907610fc5565b73ffffffffffffffffffffffffffffffffffffffff161461095d576040517f08c379a000000000000000000000000000000000000000000000000000000000815260040161095490613a66565b60405180910390fd5b610966816117e0565b50565b60606002805461097890613ab5565b80601f01602080910402602001604051908101604052809291908181526020018280546109a490613ab5565b80156109f15780601f106109c6576101008083540402835291602001916109f1565b820191906000526020600020905b8154815290600101906020018083116109d457829003601f168201915b50505050509050919050565b60085481565b610a0b6117d8565b73ffffffffffffffffffffffffffffffffffffffff16610a29610fc5565b73ffffffffffffffffffffffffffffffffffffffff1614610a7f576040517f08c379a0000000000000000000000000000000000000000000000000000000008152600401610a7690613a66565b60405180910390fd5b3373ffffffffffffffffffffffffffffffffffffffff166108fc829081150290604051600060405180830381858888f19350505050610abd57600080fd5b50565b610ac86117d8565b73ffffffffffffffffffffffffffffffffffffffff168573ffffffffffffffffffffffffffffffffffffffff161480610b0e5750610b0d85610b086117d8565b6114a4565b5b610b4d576040517f08c379a0000000000000000000000000000000000000000000000000000000008152600401610b4490613b59565b60405180910390fd5b610b5a85858585856117fa565b5050505050565b60095481565b610b6f6117d8565b73ffffffffffffffffffffffffffffffffffffffff16610b8d610fc5565b73ffffffffffffffffffffffffffffffffffffffff1614610be3576040517f08c379a0000000000000000000000000000000000000000000000000000000008152600401610bda90613a66565b60405180910390fd5b610beb611b0e565b565b60608151835114610c33576040517f08c379a0000000000000000000000000000000000000000000000000000000008152600401610c2a90613beb565b60405180910390fd5b6000835167ffffffffffffffff811115610c5057610c4f613032565b5b604051908082528060200260200182016040528015610c7e5781602001602082028036833780820191505090505b50905060005b8451811015610cfb57610ccb858281518110610ca357610ca2613c0b565b5b6020026020010151858381518110610cbe57610cbd613c0b565b5b6020026020010151610736565b828281518110610cde57610cdd613c0b565b5b60200260200101818152505080610cf490613c69565b9050610c84565b508091505092915050565b600080610d12836113f0565b119050919050565b600060075460085414905090565b6000600360149054906101000a900460ff16905090565b610d476117d8565b73ffffffffffffffffffffffffffffffffffffffff168373ffffffffffffffffffffffffffffffffffffffff161480610d8d5750610d8c83610d876117d8565b6114a4565b5b610dcc576040517f08c379a0000000000000000000000000000000000000000000000000000000008152600401610dc390613d24565b60405180910390fd5b610dd7838383611bb0565b505050565b610de46117d8565b73ffffffffffffffffffffffffffffffffffffffff16610e02610fc5565b73ffffffffffffffffffffffffffffffffffffffff1614610e58576040517f08c379a0000000000000000000000000000000000000000000000000000000008152600401610e4f90613a66565b60405180910390fd5b610e626000611e61565b565b610e6c6117d8565b73ffffffffffffffffffffffffffffffffffffffff16610e8a610fc5565b73ffffffffffffffffffffffffffffffffffffffff1614610ee0576040517f08c379a0000000000000000000000000000000000000000000000000000000008152600401610ed790613a66565b60405180910390fd5b610ee8611f27565b565b610ef26117d8565b73ffffffffffffffffffffffffffffffffffffffff16610f10610fc5565b73ffffffffffffffffffffffffffffffffffffffff1614610f66576040517f08c379a0000000000000000000000000000000000000000000000000000000008152600401610f5d90613a66565b60405180910390fd5b3373ffffffffffffffffffffffffffffffffffffffff166108fc479081150290604051600060405180830381858888f19350505050610fa457600080fd5b565b6000610fb1826113f0565b600954610fbe9190613d44565b9050919050565b6000600360009054906101000a900473ffffffffffffffffffffffffffffffffffffffff16905090565b610ff76117d8565b73ffffffffffffffffffffffffffffffffffffffff16611015610fc5565b73ffffffffffffffffffffffffffffffffffffffff161461106b576040517f08c379a000000000000000000000000000000000000000000000000000000000815260040161106290613a66565b60405180910390fd5b8060058190555050565b61107d6117d8565b73ffffffffffffffffffffffffffffffffffffffff1661109b610fc5565b73ffffffffffffffffffffffffffffffffffffffff16146110f1576040517f08c379a00000000000000000000000000000000000000000000000000000000081526004016110e890613a66565b60405180910390fd5b6000600c836111009190613da7565b14611140576040517f08c379a000000000000000000000000000000000000000000000000000000000815260040161113790613e24565b60405180910390fd5b60075460085414611186576040517f08c379a000000000000000000000000000000000000000000000000000000000815260040161117d90613eb6565b60405180910390fd5b600081116111c9576040517f08c379a00000000000000000000000000000000000000000000000000000000081526004016111c090613f22565b60405180910390fd5b8060098190555081600760008282546111e29190613f42565b925050819055505050565b60055481565b600554341015611238576040517f08c379a000000000000000000000000000000000000000000000000000000000815260040161122f90613fe4565b60405180910390fd5b6007546008541061127e576040517f08c379a000000000000000000000000000000000000000000000000000000000815260040161127590614050565b60405180910390fd5b6003600660003373ffffffffffffffffffffffffffffffffffffffff1673ffffffffffffffffffffffffffffffffffffffff168152602001908152602001600020541115611301576040517f08c379a00000000000000000000000000000000000000000000000000000000081526004016112f8906140bc565b60405180910390fd5b600561130c826113f0565b1061134c576040517f08c379a000000000000000000000000000000000000000000000000000000000815260040161134390614128565b60405180910390fd5b6001600660003373ffffffffffffffffffffffffffffffffffffffff1673ffffffffffffffffffffffffffffffffffffffff168152602001908152602001600020600082825461139c9190613f42565b92505081905550600860008154809291906113b690613c69565b91905055506113d73382600160405180602001604052806000815250611fca565b50565b6113ec6113e56117d8565b8383612160565b5050565b600060046000838152602001908152602001600020549050919050565b6000600854905090565b61141f6117d8565b73ffffffffffffffffffffffffffffffffffffffff1661143d610fc5565b73ffffffffffffffffffffffffffffffffffffffff1614611493576040517f08c379a000000000000000000000000000000000000000000000000000000000815260040161148a90613a66565b60405180910390fd5b600754600881905550565b60075481565b6000600160008473ffffffffffffffffffffffffffffffffffffffff1673ffffffffffffffffffffffffffffffffffffffff16815260200190815260200160002060008373ffffffffffffffffffffffffffffffffffffffff1673ffffffffffffffffffffffffffffffffffffffff16815260200190815260200160002060009054906101000a900460ff16905092915050565b6115406117d8565b73ffffffffffffffffffffffffffffffffffffffff168573ffffffffffffffffffffffffffffffffffffffff1614806115865750611585856115806117d8565b6114a4565b5b6115c5576040517f08c379a00000000000000000000000000000000000000000000000000000000081526004016115bc90613d24565b60405180910390fd5b6115d285858585856122cd565b5050505050565b6115e16117d8565b73ffffffffffffffffffffffffffffffffffffffff166115ff610fc5565b73ffffffffffffffffffffffffffffffffffffffff1614611655576040517f08c379a000000000000000000000000000000000000000000000000000000000815260040161164c90613a66565b60405180910390fd5b600073ffffffffffffffffffffffffffffffffffffffff168173ffffffffffffffffffffffffffffffffffffffff1614156116c5576040517f08c379a00000000000000000000000000000000000000000000000000000000081526004016116bc906141ba565b60405180910390fd5b6116ce81611e61565b50565b6116d96117d8565b73ffffffffffffffffffffffffffffffffffffffff168373ffffffffffffffffffffffffffffffffffffffff16148061171f575061171e836117196117d8565b6114a4565b5b61175e576040517f08c379a000000000000000000000000000000000000000000000000000000000815260040161175590613d24565b60405180910390fd5b61176983838361254f565b505050565b60007f01ffc9a7000000000000000000000000000000000000000000000000000000007bffffffffffffffffffffffffffffffffffffffffffffffffffffffff1916827bffffffffffffffffffffffffffffffffffffffffffffffffffffffff1916149050919050565b600033905090565b80600290805190602001906117f6929190612da7565b5050565b815183511461183e576040517f08c379a00000000000000000000000000000000000000000000000000000000081526004016118359061424c565b60405180910390fd5b600073ffffffffffffffffffffffffffffffffffffffff168473ffffffffffffffffffffffffffffffffffffffff1614156118ae576040517f08c379a00000000000000000000000000000000000000000000000000000000081526004016118a5906142de565b60405180910390fd5b60006118b86117d8565b90506118c881878787878761276c565b60005b8451811015611a795760008582815181106118e9576118e8613c0b565b5b60200260200101519050600085838151811061190857611907613c0b565b5b60200260200101519050600080600084815260200190815260200160002060008b73ffffffffffffffffffffffffffffffffffffffff1673ffffffffffffffffffffffffffffffffffffffff168152602001908152602001600020549050818110156119a9576040517f08c379a00000000000000000000000000000000000000000000000000000000081526004016119a090614370565b60405180910390fd5b81810360008085815260200190815260200160002060008c73ffffffffffffffffffffffffffffffffffffffff1673ffffffffffffffffffffffffffffffffffffffff168152602001908152602001600020819055508160008085815260200190815260200160002060008b73ffffffffffffffffffffffffffffffffffffffff1673ffffffffffffffffffffffffffffffffffffffff1681526020019081526020016000206000828254611a5e9190613f42565b9250508190555050505080611a7290613c69565b90506118cb565b508473ffffffffffffffffffffffffffffffffffffffff168673ffffffffffffffffffffffffffffffffffffffff168273ffffffffffffffffffffffffffffffffffffffff167f4a39dc06d4c0dbc64b70af90fd698a233a518aa5d07e595d983b8c0526c8f7fb8787604051611af0929190614390565b60405180910390a4611b068187878787876127ca565b505050505050565b611b16610d28565b611b55576040517f08c379a0000000000000000000000000000000000000000000000000000000008152600401611b4c90614413565b60405180910390fd5b6000600360146101000a81548160ff0219169083151502179055507f5db9ee0a495bf2e6ff9c91a7834c1ba4fdd244a5e8aa4e537bd38aeae4b073aa611b996117d8565b604051611ba6919061376a565b60405180910390a1565b600073ffffffffffffffffffffffffffffffffffffffff168373ffffffffffffffffffffffffffffffffffffffff161415611c20576040517f08c379a0000000000000000000000000000000000000000000000000000000008152600401611c17906144a5565b60405180910390fd5b8051825114611c64576040517f08c379a0000000000000000000000000000000000000000000000000000000008152600401611c5b9061424c565b60405180910390fd5b6000611c6e6117d8565b9050611c8e8185600086866040518060200160405280600081525061276c565b60005b8351811015611ddb576000848281518110611caf57611cae613c0b565b5b602002602001015190506000848381518110611cce57611ccd613c0b565b5b60200260200101519050600080600084815260200190815260200160002060008973ffffffffffffffffffffffffffffffffffffffff1673ffffffffffffffffffffffffffffffffffffffff16815260200190815260200160002054905081811015611d6f576040517f08c379a0000000000000000000000000000000000000000000000000000000008152600401611d6690614537565b60405180910390fd5b81810360008085815260200190815260200160002060008a73ffffffffffffffffffffffffffffffffffffffff1673ffffffffffffffffffffffffffffffffffffffff168152602001908152602001600020819055505050508080611dd390613c69565b915050611c91565b50600073ffffffffffffffffffffffffffffffffffffffff168473ffffffffffffffffffffffffffffffffffffffff168273ffffffffffffffffffffffffffffffffffffffff167f4a39dc06d4c0dbc64b70af90fd698a233a518aa5d07e595d983b8c0526c8f7fb8686604051611e53929190614390565b60405180910390a450505050565b6000600360009054906101000a900473ffffffffffffffffffffffffffffffffffffffff16905081600360006101000a81548173ffffffffffffffffffffffffffffffffffffffff021916908373ffffffffffffffffffffffffffffffffffffffff1602179055508173ffffffffffffffffffffffffffffffffffffffff168173ffffffffffffffffffffffffffffffffffffffff167f8be0079c531659141344cd1fd0a4f28419497f9722a3daafe3b4186f6b6457e060405160405180910390a35050565b611f2f610d28565b15611f6f576040517f08c379a0000000000000000000000000000000000000000000000000000000008152600401611f66906145a3565b60405180910390fd5b6001600360146101000a81548160ff0219169083151502179055507f62e78cea01bee320cd4e420270b5ea74000d11b0c9f74754ebdbfc544b05a258611fb36117d8565b604051611fc0919061376a565b60405180910390a1565b600073ffffffffffffffffffffffffffffffffffffffff168473ffffffffffffffffffffffffffffffffffffffff16141561203a576040517f08c379a000000000000000000000000000000000000000000000000000000000815260040161203190614635565b60405180910390fd5b60006120446117d8565b905061206581600087612056886129b1565b61205f886129b1565b8761276c565b8260008086815260200190815260200160002060008773ffffffffffffffffffffffffffffffffffffffff1673ffffffffffffffffffffffffffffffffffffffff16815260200190815260200160002060008282546120c49190613f42565b925050819055508473ffffffffffffffffffffffffffffffffffffffff16600073ffffffffffffffffffffffffffffffffffffffff168273ffffffffffffffffffffffffffffffffffffffff167fc3d58168c5ae7397731d063d5bbf3d657854427343f4c083240f7aacaa2d0f628787604051612142929190614655565b60405180910390a461215981600087878787612a2b565b5050505050565b8173ffffffffffffffffffffffffffffffffffffffff168373ffffffffffffffffffffffffffffffffffffffff1614156121cf576040517f08c379a00000000000000000000000000000000000000000000000000000000081526004016121c6906146f0565b60405180910390fd5b80600160008573ffffffffffffffffffffffffffffffffffffffff1673ffffffffffffffffffffffffffffffffffffffff16815260200190815260200160002060008473ffffffffffffffffffffffffffffffffffffffff1673ffffffffffffffffffffffffffffffffffffffff16815260200190815260200160002060006101000a81548160ff0219169083151502179055508173ffffffffffffffffffffffffffffffffffffffff168373ffffffffffffffffffffffffffffffffffffffff167f17307eab39ab6107e8899845ad3d59bd9653f200f220920489ca2b5937696c31836040516122c09190612ffc565b60405180910390a3505050565b600073ffffffffffffffffffffffffffffffffffffffff168473ffffffffffffffffffffffffffffffffffffffff16141561233d576040517f08c379a0000000000000000000000000000000000000000000000000000000008152600401612334906142de565b60405180910390fd5b60006123476117d8565b9050612367818787612358886129b1565b612361886129b1565b8761276c565b600080600086815260200190815260200160002060008873ffffffffffffffffffffffffffffffffffffffff1673ffffffffffffffffffffffffffffffffffffffff168152602001908152602001600020549050838110156123fe576040517f08c379a00000000000000000000000000000000000000000000000000000000081526004016123f590614370565b60405180910390fd5b83810360008087815260200190815260200160002060008973ffffffffffffffffffffffffffffffffffffffff1673ffffffffffffffffffffffffffffffffffffffff168152602001908152602001600020819055508360008087815260200190815260200160002060008873ffffffffffffffffffffffffffffffffffffffff1673ffffffffffffffffffffffffffffffffffffffff16815260200190815260200160002060008282546124b39190613f42565b925050819055508573ffffffffffffffffffffffffffffffffffffffff168773ffffffffffffffffffffffffffffffffffffffff168373ffffffffffffffffffffffffffffffffffffffff167fc3d58168c5ae7397731d063d5bbf3d657854427343f4c083240f7aacaa2d0f628888604051612530929190614655565b60405180910390a4612546828888888888612a2b565b50505050505050565b600073ffffffffffffffffffffffffffffffffffffffff168373ffffffffffffffffffffffffffffffffffffffff1614156125bf576040517f08c379a00000000000000000000000000000000000000000000000000000000081526004016125b6906144a5565b60405180910390fd5b60006125c96117d8565b90506125f9818560006125db876129b1565b6125e4876129b1565b6040518060200160405280600081525061276c565b600080600085815260200190815260200160002060008673ffffffffffffffffffffffffffffffffffffffff1673ffffffffffffffffffffffffffffffffffffffff16815260200190815260200160002054905082811015612690576040517f08c379a000000000000000000000000000000000000000000000000000000000815260040161268790614537565b60405180910390fd5b82810360008086815260200190815260200160002060008773ffffffffffffffffffffffffffffffffffffffff1673ffffffffffffffffffffffffffffffffffffffff16815260200190815260200160002081905550600073ffffffffffffffffffffffffffffffffffffffff168573ffffffffffffffffffffffffffffffffffffffff168373ffffffffffffffffffffffffffffffffffffffff167fc3d58168c5ae7397731d063d5bbf3d657854427343f4c083240f7aacaa2d0f62878760405161275d929190614655565b60405180910390a45050505050565b612774610d28565b156127b4576040517f08c379a00000000000000000000000000000000000000000000000000000000081526004016127ab906145a3565b60405180910390fd5b6127c2868686868686612c12565b505050505050565b6127e98473ffffffffffffffffffffffffffffffffffffffff16612d8c565b156129a9578373ffffffffffffffffffffffffffffffffffffffff1663bc197c8187878686866040518663ffffffff1660e01b815260040161282f959493929190614765565b602060405180830381600087803b15801561284957600080fd5b505af192505050801561287a57506040513d601f19601f8201168201806040525081019061287791906147e2565b60015b6129205761288661481c565b806308c379a014156128e3575061289b61483e565b806128a657506128e5565b806040517f08c379a00000000000000000000000000000000000000000000000000000000081526004016128da919061325b565b60405180910390fd5b505b6040517f08c379a000000000000000000000000000000000000000000000000000000000815260040161291790614946565b60405180910390fd5b63bc197c8160e01b7bffffffffffffffffffffffffffffffffffffffffffffffffffffffff1916817bffffffffffffffffffffffffffffffffffffffffffffffffffffffff1916146129a7576040517f08c379a000000000000000000000000000000000000000000000000000000000815260040161299e906149d8565b60405180910390fd5b505b505050505050565b60606000600167ffffffffffffffff8111156129d0576129cf613032565b5b6040519080825280602002602001820160405280156129fe5781602001602082028036833780820191505090505b5090508281600081518110612a1657612a15613c0b565b5b60200260200101818152505080915050919050565b612a4a8473ffffffffffffffffffffffffffffffffffffffff16612d8c565b15612c0a578373ffffffffffffffffffffffffffffffffffffffff1663f23a6e6187878686866040518663ffffffff1660e01b8152600401612a909594939291906149f8565b602060405180830381600087803b158015612aaa57600080fd5b505af1925050508015612adb57506040513d601f19601f82011682018060405250810190612ad891906147e2565b60015b612b8157612ae761481c565b806308c379a01415612b445750612afc61483e565b80612b075750612b46565b806040517f08c379a0000000000000000000000000000000000000000000000000000000008152600401612b3b919061325b565b60405180910390fd5b505b6040517f08c379a0000000000000000000000000000000000000000000000000000000008152600401612b7890614946565b60405180910390fd5b63f23a6e6160e01b7bffffffffffffffffffffffffffffffffffffffffffffffffffffffff1916817bffffffffffffffffffffffffffffffffffffffffffffffffffffffff191614612c08576040517f08c379a0000000000000000000000000000000000000000000000000000000008152600401612bff906149d8565b60405180910390fd5b505b505050505050565b612c20868686868686612d9f565b600073ffffffffffffffffffffffffffffffffffffffff168573ffffffffffffffffffffffffffffffffffffffff161415612cd25760005b8351811015612cd057828181518110612c7457612c73613c0b565b5b602002602001015160046000868481518110612c9357612c92613c0b565b5b602002602001015181526020019081526020016000206000828254612cb89190613f42565b9250508190555080612cc990613c69565b9050612c58565b505b600073ffffffffffffffffffffffffffffffffffffffff168473ffffffffffffffffffffffffffffffffffffffff161415612d845760005b8351811015612d8257828181518110612d2657612d25613c0b565b5b602002602001015160046000868481518110612d4557612d44613c0b565b5b602002602001015181526020019081526020016000206000828254612d6a9190613d44565b9250508190555080612d7b90613c69565b9050612d0a565b505b505050505050565b600080823b905060008111915050919050565b505050505050565b828054612db390613ab5565b90600052602060002090601f016020900481019282612dd55760008555612e1c565b82601f10612dee57805160ff1916838001178555612e1c565b82800160010185558215612e1c579182015b82811115612e1b578251825591602001919060010190612e00565b5b509050612e299190612e2d565b5090565b5b80821115612e46576000816000905550600101612e2e565b5090565b6000604051905090565b600080fd5b600080fd5b600073ffffffffffffffffffffffffffffffffffffffff82169050919050565b6000612e8982612e5e565b9050919050565b612e9981612e7e565b8114612ea457600080fd5b50565b600081359050612eb681612e90565b92915050565b6000819050919050565b612ecf81612ebc565b8114612eda57600080fd5b50565b600081359050612eec81612ec6565b92915050565b60008060408385031215612f0957612f08612e54565b5b6000612f1785828601612ea7565b9250506020612f2885828601612edd565b9150509250929050565b612f3b81612ebc565b82525050565b6000602082019050612f566000830184612f32565b92915050565b60007fffffffff0000000000000000000000000000000000000000000000000000000082169050919050565b612f9181612f5c565b8114612f9c57600080fd5b50565b600081359050612fae81612f88565b92915050565b600060208284031215612fca57612fc9612e54565b5b6000612fd884828501612f9f565b91505092915050565b60008115159050919050565b612ff681612fe1565b82525050565b60006020820190506130116000830184612fed565b92915050565b600080fd5b600080fd5b6000601f19601f8301169050919050565b7f4e487b7100000000000000000000000000000000000000000000000000000000600052604160045260246000fd5b61306a82613021565b810181811067ffffffffffffffff8211171561308957613088613032565b5b80604052505050565b600061309c612e4a565b90506130a88282613061565b919050565b600067ffffffffffffffff8211156130c8576130c7613032565b5b6130d182613021565b9050602081019050919050565b82818337600083830152505050565b60006131006130fb846130ad565b613092565b90508281526020810184848401111561311c5761311b61301c565b5b6131278482856130de565b509392505050565b600082601f83011261314457613143613017565b5b81356131548482602086016130ed565b91505092915050565b60006020828403121561317357613172612e54565b5b600082013567ffffffffffffffff81111561319157613190612e59565b5b61319d8482850161312f565b91505092915050565b6000602082840312156131bc576131bb612e54565b5b60006131ca84828501612edd565b91505092915050565b600081519050919050565b600082825260208201905092915050565b60005b8381101561320d5780820151818401526020810190506131f2565b8381111561321c576000848401525b50505050565b600061322d826131d3565b61323781856131de565b93506132478185602086016131ef565b61325081613021565b840191505092915050565b600060208201905081810360008301526132758184613222565b905092915050565b600067ffffffffffffffff82111561329857613297613032565b5b602082029050602081019050919050565b600080fd5b60006132c16132bc8461327d565b613092565b905080838252602082019050602084028301858111156132e4576132e36132a9565b5b835b8181101561330d57806132f98882612edd565b8452602084019350506020810190506132e6565b5050509392505050565b600082601f83011261332c5761332b613017565b5b813561333c8482602086016132ae565b91505092915050565b600067ffffffffffffffff8211156133605761335f613032565b5b61336982613021565b9050602081019050919050565b600061338961338484613345565b613092565b9050828152602081018484840111156133a5576133a461301c565b5b6133b08482856130de565b509392505050565b600082601f8301126133cd576133cc613017565b5b81356133dd848260208601613376565b91505092915050565b600080600080600060a0868803121561340257613401612e54565b5b600061341088828901612ea7565b955050602061342188828901612ea7565b945050604086013567ffffffffffffffff81111561344257613441612e59565b5b61344e88828901613317565b935050606086013567ffffffffffffffff81111561346f5761346e612e59565b5b61347b88828901613317565b925050608086013567ffffffffffffffff81111561349c5761349b612e59565b5b6134a8888289016133b8565b9150509295509295909350565b600067ffffffffffffffff8211156134d0576134cf613032565b5b602082029050602081019050919050565b60006134f46134ef846134b5565b613092565b90508083825260208201905060208402830185811115613517576135166132a9565b5b835b81811015613540578061352c8882612ea7565b845260208401935050602081019050613519565b5050509392505050565b600082601f83011261355f5761355e613017565b5b813561356f8482602086016134e1565b91505092915050565b6000806040838503121561358f5761358e612e54565b5b600083013567ffffffffffffffff8111156135ad576135ac612e59565b5b6135b98582860161354a565b925050602083013567ffffffffffffffff8111156135da576135d9612e59565b5b6135e685828601613317565b9150509250929050565b600081519050919050565b600082825260208201905092915050565b6000819050602082019050919050565b61362581612ebc565b82525050565b6000613637838361361c565b60208301905092915050565b6000602082019050919050565b600061365b826135f0565b61366581856135fb565b93506136708361360c565b8060005b838110156136a1578151613688888261362b565b975061369383613643565b925050600181019050613674565b5085935050505092915050565b600060208201905081810360008301526136c88184613650565b905092915050565b6000806000606084860312156136e9576136e8612e54565b5b60006136f786828701612ea7565b935050602084013567ffffffffffffffff81111561371857613717612e59565b5b61372486828701613317565b925050604084013567ffffffffffffffff81111561374557613744612e59565b5b61375186828701613317565b9150509250925092565b61376481612e7e565b82525050565b600060208201905061377f600083018461375b565b92915050565b6000806040838503121561379c5761379b612e54565b5b60006137aa85828601612edd565b92505060206137bb85828601612edd565b9150509250929050565b6137ce81612fe1565b81146137d957600080fd5b50565b6000813590506137eb816137c5565b92915050565b6000806040838503121561380857613807612e54565b5b600061381685828601612ea7565b9250506020613827858286016137dc565b9150509250929050565b6000806040838503121561384857613847612e54565b5b600061385685828601612ea7565b925050602061386785828601612ea7565b9150509250929050565b600080600080600060a0868803121561388d5761388c612e54565b5b600061389b88828901612ea7565b95505060206138ac88828901612ea7565b94505060406138bd88828901612edd565b93505060606138ce88828901612edd565b925050608086013567ffffffffffffffff8111156138ef576138ee612e59565b5b6138fb888289016133b8565b9150509295509295909350565b60006020828403121561391e5761391d612e54565b5b600061392c84828501612ea7565b91505092915050565b60008060006060848603121561394e5761394d612e54565b5b600061395c86828701612ea7565b935050602061396d86828701612edd565b925050604061397e86828701612edd565b9150509250925092565b7f455243313135353a2062616c616e636520717565727920666f7220746865207a60008201527f65726f2061646472657373000000000000000000000000000000000000000000602082015250565b60006139e4602b836131de565b91506139ef82613988565b604082019050919050565b60006020820190508181036000830152613a13816139d7565b9050919050565b7f4f776e61626c653a2063616c6c6572206973206e6f7420746865206f776e6572600082015250565b6000613a506020836131de565b9150613a5b82613a1a565b602082019050919050565b60006020820190508181036000830152613a7f81613a43565b9050919050565b7f4e487b7100000000000000000000000000000000000000000000000000000000600052602260045260246000fd5b60006002820490506001821680613acd57607f821691505b60208210811415613ae157613ae0613a86565b5b50919050565b7f455243313135353a207472616e736665722063616c6c6572206973206e6f742060008201527f6f776e6572206e6f7220617070726f7665640000000000000000000000000000602082015250565b6000613b436032836131de565b9150613b4e82613ae7565b604082019050919050565b60006020820190508181036000830152613b7281613b36565b9050919050565b7f455243313135353a206163636f756e747320616e6420696473206c656e67746860008201527f206d69736d617463680000000000000000000000000000000000000000000000602082015250565b6000613bd56029836131de565b9150613be082613b79565b604082019050919050565b60006020820190508181036000830152613c0481613bc8565b9050919050565b7f4e487b7100000000000000000000000000000000000000000000000000000000600052603260045260246000fd5b7f4e487b7100000000000000000000000000000000000000000000000000000000600052601160045260246000fd5b6000613c7482612ebc565b91507fffffffffffffffffffffffffffffffffffffffffffffffffffffffffffffffff821415613ca757613ca6613c3a565b5b600182019050919050565b7f455243313135353a2063616c6c6572206973206e6f74206f776e6572206e6f7260008201527f20617070726f7665640000000000000000000000000000000000000000000000602082015250565b6000613d0e6029836131de565b9150613d1982613cb2565b604082019050919050565b60006020820190508181036000830152613d3d81613d01565b9050919050565b6000613d4f82612ebc565b9150613d5a83612ebc565b925082821015613d6d57613d6c613c3a565b5b828203905092915050565b7f4e487b7100000000000000000000000000000000000000000000000000000000600052601260045260246000fd5b6000613db282612ebc565b9150613dbd83612ebc565b925082613dcd57613dcc613d78565b5b828206905092915050565b7f526566696c6c206d757374206265206d756c7469706c65206f66203132000000600082015250565b6000613e0e601d836131de565b9150613e1982613dd8565b602082019050919050565b60006020820190508181036000830152613e3d81613e01565b9050919050565b7f526566696c6c2063616e206f6e6c7920626520646f6e65207768656e20616c6c60008201527f20746f6b656e7320617265206d696e7465640000000000000000000000000000602082015250565b6000613ea06032836131de565b9150613eab82613e44565b604082019050919050565b60006020820190508181036000830152613ecf81613e93565b9050919050565b7f4e6565642061746c65617374203120746f6b656e2070657220736c6f74000000600082015250565b6000613f0c601d836131de565b9150613f1782613ed6565b602082019050919050565b60006020820190508181036000830152613f3b81613eff565b9050919050565b6000613f4d82612ebc565b9150613f5883612ebc565b9250827fffffffffffffffffffffffffffffffffffffffffffffffffffffffffffffffff03821115613f8d57613f8c613c3a565b5b828201905092915050565b7f496e73756666696369656e742062616c616e636520746f204d696e7400000000600082015250565b6000613fce601c836131de565b9150613fd982613f98565b602082019050919050565b60006020820190508181036000830152613ffd81613fc1565b9050919050565b7f4f7574206f6620546f6b656e7300000000000000000000000000000000000000600082015250565b600061403a600d836131de565b915061404582614004565b602082019050919050565b600060208201905081810360008301526140698161402d565b9050919050565b7f596f752063616e206d696e74206f6e6c79203300000000000000000000000000600082015250565b60006140a66013836131de565b91506140b182614070565b602082019050919050565b600060208201905081810360008301526140d581614099565b9050919050565b7f596f752063616e206d696e74206f6e6c79203500000000000000000000000000600082015250565b60006141126013836131de565b915061411d826140dc565b602082019050919050565b6000602082019050818103600083015261414181614105565b9050919050565b7f4f776e61626c653a206e6577206f776e657220697320746865207a65726f206160008201527f6464726573730000000000000000000000000000000000000000000000000000602082015250565b60006141a46026836131de565b91506141af82614148565b604082019050919050565b600060208201905081810360008301526141d381614197565b9050919050565b7f455243313135353a2069647320616e6420616d6f756e7473206c656e6774682060008201527f6d69736d61746368000000000000000000000000000000000000000000000000602082015250565b60006142366028836131de565b9150614241826141da565b604082019050919050565b6000602082019050818103600083015261426581614229565b9050919050565b7f455243313135353a207472616e7366657220746f20746865207a65726f20616460008201527f6472657373000000000000000000000000000000000000000000000000000000602082015250565b60006142c86025836131de565b91506142d38261426c565b604082019050919050565b600060208201905081810360008301526142f7816142bb565b9050919050565b7f455243313135353a20696e73756666696369656e742062616c616e636520666f60008201527f72207472616e7366657200000000000000000000000000000000000000000000602082015250565b600061435a602a836131de565b9150614365826142fe565b604082019050919050565b600060208201905081810360008301526143898161434d565b9050919050565b600060408201905081810360008301526143aa8185613650565b905081810360208301526143be8184613650565b90509392505050565b7f5061757361626c653a206e6f7420706175736564000000000000000000000000600082015250565b60006143fd6014836131de565b9150614408826143c7565b602082019050919050565b6000602082019050818103600083015261442c816143f0565b9050919050565b7f455243313135353a206275726e2066726f6d20746865207a65726f206164647260008201527f6573730000000000000000000000000000000000000000000000000000000000602082015250565b600061448f6023836131de565b915061449a82614433565b604082019050919050565b600060208201905081810360008301526144be81614482565b9050919050565b7f455243313135353a206275726e20616d6f756e7420657863656564732062616c60008201527f616e636500000000000000000000000000000000000000000000000000000000602082015250565b60006145216024836131de565b915061452c826144c5565b604082019050919050565b6000602082019050818103600083015261455081614514565b9050919050565b7f5061757361626c653a2070617573656400000000000000000000000000000000600082015250565b600061458d6010836131de565b915061459882614557565b602082019050919050565b600060208201905081810360008301526145bc81614580565b9050919050565b7f455243313135353a206d696e7420746f20746865207a65726f2061646472657360008201527f7300000000000000000000000000000000000000000000000000000000000000602082015250565b600061461f6021836131de565b915061462a826145c3565b604082019050919050565b6000602082019050818103600083015261464e81614612565b9050919050565b600060408201905061466a6000830185612f32565b6146776020830184612f32565b9392505050565b7f455243313135353a2073657474696e6720617070726f76616c2073746174757360008201527f20666f722073656c660000000000000000000000000000000000000000000000602082015250565b60006146da6029836131de565b91506146e58261467e565b604082019050919050565b60006020820190508181036000830152614709816146cd565b9050919050565b600081519050919050565b600082825260208201905092915050565b600061473782614710565b614741818561471b565b93506147518185602086016131ef565b61475a81613021565b840191505092915050565b600060a08201905061477a600083018861375b565b614787602083018761375b565b81810360408301526147998186613650565b905081810360608301526147ad8185613650565b905081810360808301526147c1818461472c565b90509695505050505050565b6000815190506147dc81612f88565b92915050565b6000602082840312156147f8576147f7612e54565b5b6000614806848285016147cd565b91505092915050565b60008160e01c9050919050565b600060033d111561483b5760046000803e61483860005161480f565b90505b90565b600060443d101561484e576148d1565b614856612e4a565b60043d036004823e80513d602482011167ffffffffffffffff8211171561487e5750506148d1565b808201805167ffffffffffffffff81111561489c57505050506148d1565b80602083010160043d0385018111156148b95750505050506148d1565b6148c882602001850186613061565b82955050505050505b90565b7f455243313135353a207472616e7366657220746f206e6f6e204552433131353560008201527f526563656976657220696d706c656d656e746572000000000000000000000000602082015250565b60006149306034836131de565b915061493b826148d4565b604082019050919050565b6000602082019050818103600083015261495f81614923565b9050919050565b7f455243313135353a204552433131353552656365697665722072656a6563746560008201527f6420746f6b656e73000000000000000000000000000000000000000000000000602082015250565b60006149c26028836131de565b91506149cd82614966565b604082019050919050565b600060208201905081810360008301526149f1816149b5565b9050919050565b600060a082019050614a0d600083018861375b565b614a1a602083018761375b565b614a276040830186612f32565b614a346060830185612f32565b8181036080830152614a46818461472c565b9050969550505050505056fea2646970667358221220da41fcd6b6cec4fc9e0744f9953eba1b3448edc24443f1b55a3a0ac7b1c116af64736f6c63430008090033697066733a2f2f516d575952655466684d656e76413166545a357443613766596a4d676f3637326a396358415a397332786d7769652f7b69647d2e6a736f6e",
  "immutableReferences": {},
  "source": "// SPDX-License-Identifier: MIT\npragma solidity ^0.8.7;\n\nimport \"@openzeppelin/contracts/token/ERC1155/ERC1155.sol\";\nimport \"@openzeppelin/contracts/access/Ownable.sol\";\nimport \"@openzeppelin/contracts/security/Pausable.sol\";\nimport \"@openzeppelin/contracts/token/ERC1155/extensions/ERC1155Burnable.sol\";\nimport \"@openzeppelin/contracts/token/ERC1155/extensions/ERC1155Supply.sol\";\n\n/// @custom:security-contact rahuljaguste@gmail.com\ncontract VendingMachine is\n    ERC1155,\n    Ownable,\n    Pausable,\n    ERC1155Burnable,\n    ERC1155Supply\n{\n    uint256 public price = 0 ether;\n\n    mapping(address => uint256) addressBalances;\n    uint256 public maxTokens = 60;\n    uint256 public tokenId = 0;\n    uint256 public countPerSlot = 5;\n\n    constructor()\n        ERC1155(\n            \"ipfs://QmWYReTfhMenvA1fTZ5tCa7fYjMgo672j9cXAZ9s2xmwie/{id}.json\"\n        )\n    {}\n\n    function setURI(string memory newuri) public onlyOwner {\n        _setURI(newuri);\n    }\n\n    function pause() public onlyOwner {\n        _pause();\n    }\n\n    function unpause() public onlyOwner {\n        _unpause();\n    }\n\n    function mint(uint256 id) public payable {\n        require(msg.value >= price, \"Insufficient balance to Mint\");\n        require(tokenId < maxTokens, \"Out of Tokens\");\n        require(addressBalances[msg.sender] <= 3, \"You can mint only 3\");\n        require(totalSupply(id) < 5, \"You can mint only 5\");\n\n        addressBalances[msg.sender] += 1;\n        tokenId++;\n        _mint(msg.sender, id, 1, \"\");\n    }\n\n    function _beforeTokenTransfer(\n        address operator,\n        address from,\n        address to,\n        uint256[] memory ids,\n        uint256[] memory amounts,\n        bytes memory data\n    ) internal override(ERC1155, ERC1155Supply) whenNotPaused {\n        super._beforeTokenTransfer(operator, from, to, ids, amounts, data);\n    }\n\n    function setPrice(uint256 _price) public onlyOwner {\n        price = _price;\n    }\n\n    function withdraw(uint256 _amount) public payable onlyOwner {\n        require(payable(msg.sender).send(_amount));\n    }\n\n    function withdrawAll() public payable onlyOwner {\n        require(payable(msg.sender).send(address(this).balance));\n    }\n\n    function refill(uint256 _additionalTokens, uint256 _countPerSlot)\n        public\n        onlyOwner\n    {\n        require(_additionalTokens % 12 == 0, \"Refill must be multiple of 12\");\n        require(\n            tokenId == maxTokens,\n            \"Refill can only be done when all tokens are minted\"\n        );\n        require(_countPerSlot > 0, \"Need atleast 1 token per slot\");\n        countPerSlot = _countPerSlot;\n        maxTokens += _additionalTokens;\n    }\n\n    function reset() public onlyOwner {\n        tokenId = maxTokens;\n    }\n\n    function isOutOfTokens() public view returns (bool) {\n        return tokenId == maxTokens;\n    }\n\n    function getCurrentTokenCount() public view returns (uint256) {\n        return tokenId;\n    }\n\n    function getTokenLeft(uint256 id) public view returns (uint256) {\n        return countPerSlot - totalSupply(id);\n    }\n}\n",
  "sourcePath": "/Users/rj/2021Projects/blockchain/EthGlobal-Hackathon/Truffle/contracts/VendingMachine.sol",
  "compiler": {
    "name": "solc",
    "version": "0.8.9+commit.e5eed63a.Emscripten.clang"
  },
  "schemaVersion": "3.4.4",
  "updatedAt": "2022-01-16T04:21:30.079Z",
  "networkType": "ethereum",
  "devdoc": {
    "custom:security-contact": "rahuljaguste@gmail.com",
    "kind": "dev",
    "methods": {
      "balanceOf(address,uint256)": {
        "details": "See {IERC1155-balanceOf}. Requirements: - `account` cannot be the zero address."
      },
      "balanceOfBatch(address[],uint256[])": {
        "details": "See {IERC1155-balanceOfBatch}. Requirements: - `accounts` and `ids` must have the same length."
      },
      "exists(uint256)": {
        "details": "Indicates whether any token exist with a given id, or not."
      },
      "isApprovedForAll(address,address)": {
        "details": "See {IERC1155-isApprovedForAll}."
      },
      "owner()": {
        "details": "Returns the address of the current owner."
      },
      "paused()": {
        "details": "Returns true if the contract is paused, and false otherwise."
      },
      "renounceOwnership()": {
        "details": "Leaves the contract without owner. It will not be possible to call `onlyOwner` functions anymore. Can only be called by the current owner. NOTE: Renouncing ownership will leave the contract without an owner, thereby removing any functionality that is only available to the owner."
      },
      "safeBatchTransferFrom(address,address,uint256[],uint256[],bytes)": {
        "details": "See {IERC1155-safeBatchTransferFrom}."
      },
      "safeTransferFrom(address,address,uint256,uint256,bytes)": {
        "details": "See {IERC1155-safeTransferFrom}."
      },
      "setApprovalForAll(address,bool)": {
        "details": "See {IERC1155-setApprovalForAll}."
      },
      "supportsInterface(bytes4)": {
        "details": "See {IERC165-supportsInterface}."
      },
      "totalSupply(uint256)": {
        "details": "Total amount of tokens in with a given id."
      },
      "transferOwnership(address)": {
        "details": "Transfers ownership of the contract to a new account (`newOwner`). Can only be called by the current owner."
      },
      "uri(uint256)": {
        "details": "See {IERC1155MetadataURI-uri}. This implementation returns the same URI for *all* token types. It relies on the token type ID substitution mechanism https://eips.ethereum.org/EIPS/eip-1155#metadata[defined in the EIP]. Clients calling this function must replace the `\\{id\\}` substring with the actual token type ID."
      }
    },
    "version": 1
  },
  "userdoc": {
    "kind": "user",
    "methods": {},
    "version": 1
  }
}