{
  "contractName": "VendingMachine",
  "abi": [
    {
      "inputs": [],
      "stateMutability": "nonpayable",
      "type": "constructor"
    },
    {
      "anonymous": false,
      "inputs": [
        {
          "indexed": true,
          "internalType": "address",
          "name": "account",
          "type": "address"
        },
        {
          "indexed": true,
          "internalType": "address",
          "name": "operator",
          "type": "address"
        },
        {
          "indexed": false,
          "internalType": "bool",
          "name": "approved",
          "type": "bool"
        }
      ],
      "name": "ApprovalForAll",
      "type": "event"
    },
    {
      "anonymous": false,
      "inputs": [
        {
          "indexed": true,
          "internalType": "address",
          "name": "previousOwner",
          "type": "address"
        },
        {
          "indexed": true,
          "internalType": "address",
          "name": "newOwner",
          "type": "address"
        }
      ],
      "name": "OwnershipTransferred",
      "type": "event"
    },
    {
      "anonymous": false,
      "inputs": [
        {
          "indexed": false,
          "internalType": "address",
          "name": "account",
          "type": "address"
        }
      ],
      "name": "Paused",
      "type": "event"
    },
    {
      "anonymous": false,
      "inputs": [
        {
          "indexed": true,
          "internalType": "address",
          "name": "operator",
          "type": "address"
        },
        {
          "indexed": true,
          "internalType": "address",
          "name": "from",
          "type": "address"
        },
        {
          "indexed": true,
          "internalType": "address",
          "name": "to",
          "type": "address"
        },
        {
          "indexed": false,
          "internalType": "uint256[]",
          "name": "ids",
          "type": "uint256[]"
        },
        {
          "indexed": false,
          "internalType": "uint256[]",
          "name": "values",
          "type": "uint256[]"
        }
      ],
      "name": "TransferBatch",
      "type": "event"
    },
    {
      "anonymous": false,
      "inputs": [
        {
          "indexed": true,
          "internalType": "address",
          "name": "operator",
          "type": "address"
        },
        {
          "indexed": true,
          "internalType": "address",
          "name": "from",
          "type": "address"
        },
        {
          "indexed": true,
          "internalType": "address",
          "name": "to",
          "type": "address"
        },
        {
          "indexed": false,
          "internalType": "uint256",
          "name": "id",
          "type": "uint256"
        },
        {
          "indexed": false,
          "internalType": "uint256",
          "name": "value",
          "type": "uint256"
        }
      ],
      "name": "TransferSingle",
      "type": "event"
    },
    {
      "anonymous": false,
      "inputs": [
        {
          "indexed": false,
          "internalType": "string",
          "name": "value",
          "type": "string"
        },
        {
          "indexed": true,
          "internalType": "uint256",
          "name": "id",
          "type": "uint256"
        }
      ],
      "name": "URI",
      "type": "event"
    },
    {
      "anonymous": false,
      "inputs": [
        {
          "indexed": false,
          "internalType": "address",
          "name": "account",
          "type": "address"
        }
      ],
      "name": "Unpaused",
      "type": "event"
    },
    {
      "inputs": [
        {
          "internalType": "address",
          "name": "account",
          "type": "address"
        },
        {
          "internalType": "uint256",
          "name": "id",
          "type": "uint256"
        }
      ],
      "name": "balanceOf",
      "outputs": [
        {
          "internalType": "uint256",
          "name": "",
          "type": "uint256"
        }
      ],
      "stateMutability": "view",
      "type": "function",
      "constant": true
    },
    {
      "inputs": [
        {
          "internalType": "address[]",
          "name": "accounts",
          "type": "address[]"
        },
        {
          "internalType": "uint256[]",
          "name": "ids",
          "type": "uint256[]"
        }
      ],
      "name": "balanceOfBatch",
      "outputs": [
        {
          "internalType": "uint256[]",
          "name": "",
          "type": "uint256[]"
        }
      ],
      "stateMutability": "view",
      "type": "function",
      "constant": true
    },
    {
      "inputs": [
        {
          "internalType": "address",
          "name": "account",
          "type": "address"
        },
        {
          "internalType": "uint256",
          "name": "id",
          "type": "uint256"
        },
        {
          "internalType": "uint256",
          "name": "value",
          "type": "uint256"
        }
      ],
      "name": "burn",
      "outputs": [],
      "stateMutability": "nonpayable",
      "type": "function"
    },
    {
      "inputs": [
        {
          "internalType": "address",
          "name": "account",
          "type": "address"
        },
        {
          "internalType": "uint256[]",
          "name": "ids",
          "type": "uint256[]"
        },
        {
          "internalType": "uint256[]",
          "name": "values",
          "type": "uint256[]"
        }
      ],
      "name": "burnBatch",
      "outputs": [],
      "stateMutability": "nonpayable",
      "type": "function"
    },
    {
      "inputs": [
        {
          "internalType": "uint256",
          "name": "id",
          "type": "uint256"
        }
      ],
      "name": "exists",
      "outputs": [
        {
          "internalType": "bool",
          "name": "",
          "type": "bool"
        }
      ],
      "stateMutability": "view",
      "type": "function",
      "constant": true
    },
    {
      "inputs": [
        {
          "internalType": "address",
          "name": "account",
          "type": "address"
        },
        {
          "internalType": "address",
          "name": "operator",
          "type": "address"
        }
      ],
      "name": "isApprovedForAll",
      "outputs": [
        {
          "internalType": "bool",
          "name": "",
          "type": "bool"
        }
      ],
      "stateMutability": "view",
      "type": "function",
      "constant": true
    },
    {
      "inputs": [],
      "name": "maxTokens",
      "outputs": [
        {
          "internalType": "uint256",
          "name": "",
          "type": "uint256"
        }
      ],
      "stateMutability": "view",
      "type": "function",
      "constant": true
    },
    {
      "inputs": [],
      "name": "owner",
      "outputs": [
        {
          "internalType": "address",
          "name": "",
          "type": "address"
        }
      ],
      "stateMutability": "view",
      "type": "function",
      "constant": true
    },
    {
      "inputs": [],
      "name": "paused",
      "outputs": [
        {
          "internalType": "bool",
          "name": "",
          "type": "bool"
        }
      ],
      "stateMutability": "view",
      "type": "function",
      "constant": true
    },
    {
      "inputs": [],
      "name": "price",
      "outputs": [
        {
          "internalType": "uint256",
          "name": "",
          "type": "uint256"
        }
      ],
      "stateMutability": "view",
      "type": "function",
      "constant": true
    },
    {
      "inputs": [],
      "name": "renounceOwnership",
      "outputs": [],
      "stateMutability": "nonpayable",
      "type": "function"
    },
    {
      "inputs": [
        {
          "internalType": "address",
          "name": "from",
          "type": "address"
        },
        {
          "internalType": "address",
          "name": "to",
          "type": "address"
        },
        {
          "internalType": "uint256[]",
          "name": "ids",
          "type": "uint256[]"
        },
        {
          "internalType": "uint256[]",
          "name": "amounts",
          "type": "uint256[]"
        },
        {
          "internalType": "bytes",
          "name": "data",
          "type": "bytes"
        }
      ],
      "name": "safeBatchTransferFrom",
      "outputs": [],
      "stateMutability": "nonpayable",
      "type": "function"
    },
    {
      "inputs": [
        {
          "internalType": "address",
          "name": "from",
          "type": "address"
        },
        {
          "internalType": "address",
          "name": "to",
          "type": "address"
        },
        {
          "internalType": "uint256",
          "name": "id",
          "type": "uint256"
        },
        {
          "internalType": "uint256",
          "name": "amount",
          "type": "uint256"
        },
        {
          "internalType": "bytes",
          "name": "data",
          "type": "bytes"
        }
      ],
      "name": "safeTransferFrom",
      "outputs": [],
      "stateMutability": "nonpayable",
      "type": "function"
    },
    {
      "inputs": [
        {
          "internalType": "address",
          "name": "operator",
          "type": "address"
        },
        {
          "internalType": "bool",
          "name": "approved",
          "type": "bool"
        }
      ],
      "name": "setApprovalForAll",
      "outputs": [],
      "stateMutability": "nonpayable",
      "type": "function"
    },
    {
      "inputs": [
        {
          "internalType": "bytes4",
          "name": "interfaceId",
          "type": "bytes4"
        }
      ],
      "name": "supportsInterface",
      "outputs": [
        {
          "internalType": "bool",
          "name": "",
          "type": "bool"
        }
      ],
      "stateMutability": "view",
      "type": "function",
      "constant": true
    },
    {
      "inputs": [],
      "name": "tokenId",
      "outputs": [
        {
          "internalType": "uint256",
          "name": "",
          "type": "uint256"
        }
      ],
      "stateMutability": "view",
      "type": "function",
      "constant": true
    },
    {
      "inputs": [
        {
          "internalType": "uint256",
          "name": "id",
          "type": "uint256"
        }
      ],
      "name": "totalSupply",
      "outputs": [
        {
          "internalType": "uint256",
          "name": "",
          "type": "uint256"
        }
      ],
      "stateMutability": "view",
      "type": "function",
      "constant": true
    },
    {
      "inputs": [
        {
          "internalType": "address",
          "name": "newOwner",
          "type": "address"
        }
      ],
      "name": "transferOwnership",
      "outputs": [],
      "stateMutability": "nonpayable",
      "type": "function"
    },
    {
      "inputs": [
        {
          "internalType": "uint256",
          "name": "",
          "type": "uint256"
        }
      ],
      "name": "uri",
      "outputs": [
        {
          "internalType": "string",
          "name": "",
          "type": "string"
        }
      ],
      "stateMutability": "view",
      "type": "function",
      "constant": true
    },
    {
      "inputs": [
        {
          "internalType": "string",
          "name": "newuri",
          "type": "string"
        }
      ],
      "name": "setURI",
      "outputs": [],
      "stateMutability": "nonpayable",
      "type": "function"
    },
    {
      "inputs": [],
      "name": "pause",
      "outputs": [],
      "stateMutability": "nonpayable",
      "type": "function"
    },
    {
      "inputs": [],
      "name": "unpause",
      "outputs": [],
      "stateMutability": "nonpayable",
      "type": "function"
    },
    {
      "inputs": [
        {
          "internalType": "address",
          "name": "account",
          "type": "address"
        },
        {
          "internalType": "uint256",
          "name": "id",
          "type": "uint256"
        }
      ],
      "name": "mint",
      "outputs": [],
      "stateMutability": "payable",
      "type": "function",
      "payable": true
    },
    {
      "inputs": [
        {
          "internalType": "uint256",
          "name": "_price",
          "type": "uint256"
        }
      ],
      "name": "setPrice",
      "outputs": [],
      "stateMutability": "nonpayable",
      "type": "function"
    },
    {
      "inputs": [
        {
          "internalType": "uint256",
          "name": "_amount",
          "type": "uint256"
        }
      ],
      "name": "withdraw",
      "outputs": [],
      "stateMutability": "payable",
      "type": "function",
      "payable": true
    },
    {
      "inputs": [],
      "name": "withdrawAll",
      "outputs": [],
      "stateMutability": "payable",
      "type": "function",
      "payable": true
    },
    {
      "inputs": [
        {
          "internalType": "uint256",
          "name": "_additionalTokens",
          "type": "uint256"
        }
      ],
      "name": "refill",
      "outputs": [],
      "stateMutability": "nonpayable",
      "type": "function"
    },
    {
      "inputs": [
        {
          "internalType": "uint256",
          "name": "id",
          "type": "uint256"
        }
      ],
      "name": "getTokenLeft",
      "outputs": [
        {
          "internalType": "uint256",
          "name": "",
          "type": "uint256"
        }
      ],
      "stateMutability": "view",
      "type": "function",
      "constant": true
    }
  ],
  "bytecode": "0x60806040526000600555603c60075560006008553480156200002057600080fd5b5060405180606001604052806040815260200162004ac5604091396200004c816200008e60201b60201c565b506200006d62000061620000aa60201b60201c565b620000b260201b60201c565b6000600360146101000a81548160ff0219169083151502179055506200028d565b8060029080519060200190620000a692919062000178565b5050565b600033905090565b6000600360009054906101000a900473ffffffffffffffffffffffffffffffffffffffff16905081600360006101000a81548173ffffffffffffffffffffffffffffffffffffffff021916908373ffffffffffffffffffffffffffffffffffffffff1602179055508173ffffffffffffffffffffffffffffffffffffffff168173ffffffffffffffffffffffffffffffffffffffff167f8be0079c531659141344cd1fd0a4f28419497f9722a3daafe3b4186f6b6457e060405160405180910390a35050565b828054620001869062000257565b90600052602060002090601f016020900481019282620001aa5760008555620001f6565b82601f10620001c557805160ff1916838001178555620001f6565b82800160010185558215620001f6579182015b82811115620001f5578251825591602001919060010190620001d8565b5b50905062000205919062000209565b5090565b5b80821115620002245760008160009055506001016200020a565b5090565b7f4e487b7100000000000000000000000000000000000000000000000000000000600052602260045260246000fd5b600060028204905060018216806200027057607f821691505b6020821081141562000287576200028662000228565b5b50919050565b614828806200029d6000396000f3fe6080604052600436106101b65760003560e01c80638456cb59116100ec578063bd85b0391161008a578063e985e9c511610064578063e985e9c5146105ba578063f242432a146105f7578063f2fde38b14610620578063f5298aca14610649576101b6565b8063bd85b03914610529578063ca9d07ba14610566578063e83157421461058f576101b6565b80638da5cb5b116100c65780638da5cb5b1461048157806391b7f5ed146104ac578063a035b1fe146104d5578063a22cb46514610500576101b6565b80638456cb5914610423578063853828b61461043a57806387dbbb0e14610444576101b6565b80633f4ba83a116101595780634f558e79116101335780634f558e791461037b5780635c975abb146103b85780636b20c454146103e3578063715018a61461040c576101b6565b80633f4ba83a1461030b57806340c10f19146103225780634e1273f41461033e576101b6565b80630e89341c116101955780630e89341c1461025e57806317d70f7c1461029b5780632e1a7d4d146102c65780632eb2c2d6146102e2576101b6565b8062fdd58e146101bb57806301ffc9a7146101f857806302fe530514610235575b600080fd5b3480156101c757600080fd5b506101e260048036038101906101dd9190612d3e565b610672565b6040516101ef9190612d8d565b60405180910390f35b34801561020457600080fd5b5061021f600480360381019061021a9190612e00565b61073b565b60405161022c9190612e48565b60405180910390f35b34801561024157600080fd5b5061025c60048036038101906102579190612fa9565b61081d565b005b34801561026a57600080fd5b5061028560048036038101906102809190612ff2565b6108a5565b60405161029291906130a7565b60405180910390f35b3480156102a757600080fd5b506102b0610939565b6040516102bd9190612d8d565b60405180910390f35b6102e060048036038101906102db9190612ff2565b61093f565b005b3480156102ee57600080fd5b5061030960048036038101906103049190613232565b6109fc565b005b34801561031757600080fd5b50610320610a9d565b005b61033c60048036038101906103379190612d3e565b610b23565b005b34801561034a57600080fd5b50610365600480360381019061036091906133c4565b610d0b565b60405161037291906134fa565b60405180910390f35b34801561038757600080fd5b506103a2600480360381019061039d9190612ff2565b610e24565b6040516103af9190612e48565b60405180910390f35b3480156103c457600080fd5b506103cd610e38565b6040516103da9190612e48565b60405180910390f35b3480156103ef57600080fd5b5061040a6004803603810190610405919061351c565b610e4f565b005b34801561041857600080fd5b50610421610eec565b005b34801561042f57600080fd5b50610438610f74565b005b610442610ffa565b005b34801561045057600080fd5b5061046b60048036038101906104669190612ff2565b6110b6565b6040516104789190612d8d565b60405180910390f35b34801561048d57600080fd5b506104966110d4565b6040516104a391906135b6565b60405180910390f35b3480156104b857600080fd5b506104d360048036038101906104ce9190612ff2565b6110fe565b005b3480156104e157600080fd5b506104ea611184565b6040516104f79190612d8d565b60405180910390f35b34801561050c57600080fd5b50610527600480360381019061052291906135fd565b61118a565b005b34801561053557600080fd5b50610550600480360381019061054b9190612ff2565b6111a0565b60405161055d9190612d8d565b60405180910390f35b34801561057257600080fd5b5061058d60048036038101906105889190612ff2565b6111bd565b005b34801561059b57600080fd5b506105a46112ea565b6040516105b19190612d8d565b60405180910390f35b3480156105c657600080fd5b506105e160048036038101906105dc919061363d565b6112f0565b6040516105ee9190612e48565b60405180910390f35b34801561060357600080fd5b5061061e6004803603810190610619919061367d565b611384565b005b34801561062c57600080fd5b5061064760048036038101906106429190613714565b611425565b005b34801561065557600080fd5b50610670600480360381019061066b9190613741565b61151d565b005b60008073ffffffffffffffffffffffffffffffffffffffff168373ffffffffffffffffffffffffffffffffffffffff1614156106e3576040517f08c379a00000000000000000000000000000000000000000000000000000000081526004016106da90613806565b60405180910390fd5b60008083815260200190815260200160002060008473ffffffffffffffffffffffffffffffffffffffff1673ffffffffffffffffffffffffffffffffffffffff16815260200190815260200160002054905092915050565b60007fd9b67a26000000000000000000000000000000000000000000000000000000007bffffffffffffffffffffffffffffffffffffffffffffffffffffffff1916827bffffffffffffffffffffffffffffffffffffffffffffffffffffffff1916148061080657507f0e89341c000000000000000000000000000000000000000000000000000000007bffffffffffffffffffffffffffffffffffffffffffffffffffffffff1916827bffffffffffffffffffffffffffffffffffffffffffffffffffffffff1916145b806108165750610815826115ba565b5b9050919050565b610825611624565b73ffffffffffffffffffffffffffffffffffffffff166108436110d4565b73ffffffffffffffffffffffffffffffffffffffff1614610899576040517f08c379a000000000000000000000000000000000000000000000000000000000815260040161089090613872565b60405180910390fd5b6108a28161162c565b50565b6060600280546108b4906138c1565b80601f01602080910402602001604051908101604052809291908181526020018280546108e0906138c1565b801561092d5780601f106109025761010080835404028352916020019161092d565b820191906000526020600020905b81548152906001019060200180831161091057829003601f168201915b50505050509050919050565b60085481565b610947611624565b73ffffffffffffffffffffffffffffffffffffffff166109656110d4565b73ffffffffffffffffffffffffffffffffffffffff16146109bb576040517f08c379a00000000000000000000000000000000000000000000000000000000081526004016109b290613872565b60405180910390fd5b3373ffffffffffffffffffffffffffffffffffffffff166108fc829081150290604051600060405180830381858888f193505050506109f957600080fd5b50565b610a04611624565b73ffffffffffffffffffffffffffffffffffffffff168573ffffffffffffffffffffffffffffffffffffffff161480610a4a5750610a4985610a44611624565b6112f0565b5b610a89576040517f08c379a0000000000000000000000000000000000000000000000000000000008152600401610a8090613965565b60405180910390fd5b610a968585858585611646565b5050505050565b610aa5611624565b73ffffffffffffffffffffffffffffffffffffffff16610ac36110d4565b73ffffffffffffffffffffffffffffffffffffffff1614610b19576040517f08c379a0000000000000000000000000000000000000000000000000000000008152600401610b1090613872565b60405180910390fd5b610b2161195a565b565b600554341015610b68576040517f08c379a0000000000000000000000000000000000000000000000000000000008152600401610b5f906139d1565b60405180910390fd5b60075460085410610bae576040517f08c379a0000000000000000000000000000000000000000000000000000000008152600401610ba590613a3d565b60405180910390fd5b6003600660003373ffffffffffffffffffffffffffffffffffffffff1673ffffffffffffffffffffffffffffffffffffffff168152602001908152602001600020541115610c31576040517f08c379a0000000000000000000000000000000000000000000000000000000008152600401610c2890613aa9565b60405180910390fd5b6005610c3c826111a0565b10610c7c576040517f08c379a0000000000000000000000000000000000000000000000000000000008152600401610c7390613b15565b60405180910390fd5b6001600660003373ffffffffffffffffffffffffffffffffffffffff1673ffffffffffffffffffffffffffffffffffffffff1681526020019081526020016000206000828254610ccc9190613b64565b9250508190555060086000815480929190610ce690613bba565b9190505550610d0782826001604051806020016040528060008152506119fc565b5050565b60608151835114610d51576040517f08c379a0000000000000000000000000000000000000000000000000000000008152600401610d4890613c75565b60405180910390fd5b6000835167ffffffffffffffff811115610d6e57610d6d612e7e565b5b604051908082528060200260200182016040528015610d9c5781602001602082028036833780820191505090505b50905060005b8451811015610e1957610de9858281518110610dc157610dc0613c95565b5b6020026020010151858381518110610ddc57610ddb613c95565b5b6020026020010151610672565b828281518110610dfc57610dfb613c95565b5b60200260200101818152505080610e1290613bba565b9050610da2565b508091505092915050565b600080610e30836111a0565b119050919050565b6000600360149054906101000a900460ff16905090565b610e57611624565b73ffffffffffffffffffffffffffffffffffffffff168373ffffffffffffffffffffffffffffffffffffffff161480610e9d5750610e9c83610e97611624565b6112f0565b5b610edc576040517f08c379a0000000000000000000000000000000000000000000000000000000008152600401610ed390613d36565b60405180910390fd5b610ee7838383611b92565b505050565b610ef4611624565b73ffffffffffffffffffffffffffffffffffffffff16610f126110d4565b73ffffffffffffffffffffffffffffffffffffffff1614610f68576040517f08c379a0000000000000000000000000000000000000000000000000000000008152600401610f5f90613872565b60405180910390fd5b610f726000611e43565b565b610f7c611624565b73ffffffffffffffffffffffffffffffffffffffff16610f9a6110d4565b73ffffffffffffffffffffffffffffffffffffffff1614610ff0576040517f08c379a0000000000000000000000000000000000000000000000000000000008152600401610fe790613872565b60405180910390fd5b610ff8611f09565b565b611002611624565b73ffffffffffffffffffffffffffffffffffffffff166110206110d4565b73ffffffffffffffffffffffffffffffffffffffff1614611076576040517f08c379a000000000000000000000000000000000000000000000000000000000815260040161106d90613872565b60405180910390fd5b3373ffffffffffffffffffffffffffffffffffffffff166108fc479081150290604051600060405180830381858888f193505050506110b457600080fd5b565b60006110c1826111a0565b60056110cd9190613d56565b9050919050565b6000600360009054906101000a900473ffffffffffffffffffffffffffffffffffffffff16905090565b611106611624565b73ffffffffffffffffffffffffffffffffffffffff166111246110d4565b73ffffffffffffffffffffffffffffffffffffffff161461117a576040517f08c379a000000000000000000000000000000000000000000000000000000000815260040161117190613872565b60405180910390fd5b8060058190555050565b60055481565b61119c611195611624565b8383611fac565b5050565b600060046000838152602001908152602001600020549050919050565b6111c5611624565b73ffffffffffffffffffffffffffffffffffffffff166111e36110d4565b73ffffffffffffffffffffffffffffffffffffffff1614611239576040517f08c379a000000000000000000000000000000000000000000000000000000000815260040161123090613872565b60405180910390fd5b6000600c826112489190613db9565b14611288576040517f08c379a000000000000000000000000000000000000000000000000000000000815260040161127f90613e36565b60405180910390fd5b600754600854146112ce576040517f08c379a00000000000000000000000000000000000000000000000000000000081526004016112c590613ec8565b60405180910390fd5b80600760008282546112e09190613b64565b9250508190555050565b60075481565b6000600160008473ffffffffffffffffffffffffffffffffffffffff1673ffffffffffffffffffffffffffffffffffffffff16815260200190815260200160002060008373ffffffffffffffffffffffffffffffffffffffff1673ffffffffffffffffffffffffffffffffffffffff16815260200190815260200160002060009054906101000a900460ff16905092915050565b61138c611624565b73ffffffffffffffffffffffffffffffffffffffff168573ffffffffffffffffffffffffffffffffffffffff1614806113d257506113d1856113cc611624565b6112f0565b5b611411576040517f08c379a000000000000000000000000000000000000000000000000000000000815260040161140890613d36565b60405180910390fd5b61141e8585858585612119565b5050505050565b61142d611624565b73ffffffffffffffffffffffffffffffffffffffff1661144b6110d4565b73ffffffffffffffffffffffffffffffffffffffff16146114a1576040517f08c379a000000000000000000000000000000000000000000000000000000000815260040161149890613872565b60405180910390fd5b600073ffffffffffffffffffffffffffffffffffffffff168173ffffffffffffffffffffffffffffffffffffffff161415611511576040517f08c379a000000000000000000000000000000000000000000000000000000000815260040161150890613f5a565b60405180910390fd5b61151a81611e43565b50565b611525611624565b73ffffffffffffffffffffffffffffffffffffffff168373ffffffffffffffffffffffffffffffffffffffff16148061156b575061156a83611565611624565b6112f0565b5b6115aa576040517f08c379a00000000000000000000000000000000000000000000000000000000081526004016115a190613d36565b60405180910390fd5b6115b583838361239b565b505050565b60007f01ffc9a7000000000000000000000000000000000000000000000000000000007bffffffffffffffffffffffffffffffffffffffffffffffffffffffff1916827bffffffffffffffffffffffffffffffffffffffffffffffffffffffff1916149050919050565b600033905090565b8060029080519060200190611642929190612bf3565b5050565b815183511461168a576040517f08c379a000000000000000000000000000000000000000000000000000000000815260040161168190613fec565b60405180910390fd5b600073ffffffffffffffffffffffffffffffffffffffff168473ffffffffffffffffffffffffffffffffffffffff1614156116fa576040517f08c379a00000000000000000000000000000000000000000000000000000000081526004016116f19061407e565b60405180910390fd5b6000611704611624565b90506117148187878787876125b8565b60005b84518110156118c557600085828151811061173557611734613c95565b5b60200260200101519050600085838151811061175457611753613c95565b5b60200260200101519050600080600084815260200190815260200160002060008b73ffffffffffffffffffffffffffffffffffffffff1673ffffffffffffffffffffffffffffffffffffffff168152602001908152602001600020549050818110156117f5576040517f08c379a00000000000000000000000000000000000000000000000000000000081526004016117ec90614110565b60405180910390fd5b81810360008085815260200190815260200160002060008c73ffffffffffffffffffffffffffffffffffffffff1673ffffffffffffffffffffffffffffffffffffffff168152602001908152602001600020819055508160008085815260200190815260200160002060008b73ffffffffffffffffffffffffffffffffffffffff1673ffffffffffffffffffffffffffffffffffffffff16815260200190815260200160002060008282546118aa9190613b64565b92505081905550505050806118be90613bba565b9050611717565b508473ffffffffffffffffffffffffffffffffffffffff168673ffffffffffffffffffffffffffffffffffffffff168273ffffffffffffffffffffffffffffffffffffffff167f4a39dc06d4c0dbc64b70af90fd698a233a518aa5d07e595d983b8c0526c8f7fb878760405161193c929190614130565b60405180910390a4611952818787878787612616565b505050505050565b611962610e38565b6119a1576040517f08c379a0000000000000000000000000000000000000000000000000000000008152600401611998906141b3565b60405180910390fd5b6000600360146101000a81548160ff0219169083151502179055507f5db9ee0a495bf2e6ff9c91a7834c1ba4fdd244a5e8aa4e537bd38aeae4b073aa6119e5611624565b6040516119f291906135b6565b60405180910390a1565b600073ffffffffffffffffffffffffffffffffffffffff168473ffffffffffffffffffffffffffffffffffffffff161415611a6c576040517f08c379a0000000000000000000000000000000000000000000000000000000008152600401611a6390614245565b60405180910390fd5b6000611a76611624565b9050611a9781600087611a88886127fd565b611a91886127fd565b876125b8565b8260008086815260200190815260200160002060008773ffffffffffffffffffffffffffffffffffffffff1673ffffffffffffffffffffffffffffffffffffffff1681526020019081526020016000206000828254611af69190613b64565b925050819055508473ffffffffffffffffffffffffffffffffffffffff16600073ffffffffffffffffffffffffffffffffffffffff168273ffffffffffffffffffffffffffffffffffffffff167fc3d58168c5ae7397731d063d5bbf3d657854427343f4c083240f7aacaa2d0f628787604051611b74929190614265565b60405180910390a4611b8b81600087878787612877565b5050505050565b600073ffffffffffffffffffffffffffffffffffffffff168373ffffffffffffffffffffffffffffffffffffffff161415611c02576040517f08c379a0000000000000000000000000000000000000000000000000000000008152600401611bf990614300565b60405180910390fd5b8051825114611c46576040517f08c379a0000000000000000000000000000000000000000000000000000000008152600401611c3d90613fec565b60405180910390fd5b6000611c50611624565b9050611c70818560008686604051806020016040528060008152506125b8565b60005b8351811015611dbd576000848281518110611c9157611c90613c95565b5b602002602001015190506000848381518110611cb057611caf613c95565b5b60200260200101519050600080600084815260200190815260200160002060008973ffffffffffffffffffffffffffffffffffffffff1673ffffffffffffffffffffffffffffffffffffffff16815260200190815260200160002054905081811015611d51576040517f08c379a0000000000000000000000000000000000000000000000000000000008152600401611d4890614392565b60405180910390fd5b81810360008085815260200190815260200160002060008a73ffffffffffffffffffffffffffffffffffffffff1673ffffffffffffffffffffffffffffffffffffffff168152602001908152602001600020819055505050508080611db590613bba565b915050611c73565b50600073ffffffffffffffffffffffffffffffffffffffff168473ffffffffffffffffffffffffffffffffffffffff168273ffffffffffffffffffffffffffffffffffffffff167f4a39dc06d4c0dbc64b70af90fd698a233a518aa5d07e595d983b8c0526c8f7fb8686604051611e35929190614130565b60405180910390a450505050565b6000600360009054906101000a900473ffffffffffffffffffffffffffffffffffffffff16905081600360006101000a81548173ffffffffffffffffffffffffffffffffffffffff021916908373ffffffffffffffffffffffffffffffffffffffff1602179055508173ffffffffffffffffffffffffffffffffffffffff168173ffffffffffffffffffffffffffffffffffffffff167f8be0079c531659141344cd1fd0a4f28419497f9722a3daafe3b4186f6b6457e060405160405180910390a35050565b611f11610e38565b15611f51576040517f08c379a0000000000000000000000000000000000000000000000000000000008152600401611f48906143fe565b60405180910390fd5b6001600360146101000a81548160ff0219169083151502179055507f62e78cea01bee320cd4e420270b5ea74000d11b0c9f74754ebdbfc544b05a258611f95611624565b604051611fa291906135b6565b60405180910390a1565b8173ffffffffffffffffffffffffffffffffffffffff168373ffffffffffffffffffffffffffffffffffffffff16141561201b576040517f08c379a000000000000000000000000000000000000000000000000000000000815260040161201290614490565b60405180910390fd5b80600160008573ffffffffffffffffffffffffffffffffffffffff1673ffffffffffffffffffffffffffffffffffffffff16815260200190815260200160002060008473ffffffffffffffffffffffffffffffffffffffff1673ffffffffffffffffffffffffffffffffffffffff16815260200190815260200160002060006101000a81548160ff0219169083151502179055508173ffffffffffffffffffffffffffffffffffffffff168373ffffffffffffffffffffffffffffffffffffffff167f17307eab39ab6107e8899845ad3d59bd9653f200f220920489ca2b5937696c318360405161210c9190612e48565b60405180910390a3505050565b600073ffffffffffffffffffffffffffffffffffffffff168473ffffffffffffffffffffffffffffffffffffffff161415612189576040517f08c379a00000000000000000000000000000000000000000000000000000000081526004016121809061407e565b60405180910390fd5b6000612193611624565b90506121b38187876121a4886127fd565b6121ad886127fd565b876125b8565b600080600086815260200190815260200160002060008873ffffffffffffffffffffffffffffffffffffffff1673ffffffffffffffffffffffffffffffffffffffff1681526020019081526020016000205490508381101561224a576040517f08c379a000000000000000000000000000000000000000000000000000000000815260040161224190614110565b60405180910390fd5b83810360008087815260200190815260200160002060008973ffffffffffffffffffffffffffffffffffffffff1673ffffffffffffffffffffffffffffffffffffffff168152602001908152602001600020819055508360008087815260200190815260200160002060008873ffffffffffffffffffffffffffffffffffffffff1673ffffffffffffffffffffffffffffffffffffffff16815260200190815260200160002060008282546122ff9190613b64565b925050819055508573ffffffffffffffffffffffffffffffffffffffff168773ffffffffffffffffffffffffffffffffffffffff168373ffffffffffffffffffffffffffffffffffffffff167fc3d58168c5ae7397731d063d5bbf3d657854427343f4c083240f7aacaa2d0f62888860405161237c929190614265565b60405180910390a4612392828888888888612877565b50505050505050565b600073ffffffffffffffffffffffffffffffffffffffff168373ffffffffffffffffffffffffffffffffffffffff16141561240b576040517f08c379a000000000000000000000000000000000000000000000000000000000815260040161240290614300565b60405180910390fd5b6000612415611624565b905061244581856000612427876127fd565b612430876127fd565b604051806020016040528060008152506125b8565b600080600085815260200190815260200160002060008673ffffffffffffffffffffffffffffffffffffffff1673ffffffffffffffffffffffffffffffffffffffff168152602001908152602001600020549050828110156124dc576040517f08c379a00000000000000000000000000000000000000000000000000000000081526004016124d390614392565b60405180910390fd5b82810360008086815260200190815260200160002060008773ffffffffffffffffffffffffffffffffffffffff1673ffffffffffffffffffffffffffffffffffffffff16815260200190815260200160002081905550600073ffffffffffffffffffffffffffffffffffffffff168573ffffffffffffffffffffffffffffffffffffffff168373ffffffffffffffffffffffffffffffffffffffff167fc3d58168c5ae7397731d063d5bbf3d657854427343f4c083240f7aacaa2d0f6287876040516125a9929190614265565b60405180910390a45050505050565b6125c0610e38565b15612600576040517f08c379a00000000000000000000000000000000000000000000000000000000081526004016125f7906143fe565b60405180910390fd5b61260e868686868686612a5e565b505050505050565b6126358473ffffffffffffffffffffffffffffffffffffffff16612bd8565b156127f5578373ffffffffffffffffffffffffffffffffffffffff1663bc197c8187878686866040518663ffffffff1660e01b815260040161267b959493929190614505565b602060405180830381600087803b15801561269557600080fd5b505af19250505080156126c657506040513d601f19601f820116820180604052508101906126c39190614582565b60015b61276c576126d26145bc565b806308c379a0141561272f57506126e76145de565b806126f25750612731565b806040517f08c379a000000000000000000000000000000000000000000000000000000000815260040161272691906130a7565b60405180910390fd5b505b6040517f08c379a0000000000000000000000000000000000000000000000000000000008152600401612763906146e6565b60405180910390fd5b63bc197c8160e01b7bffffffffffffffffffffffffffffffffffffffffffffffffffffffff1916817bffffffffffffffffffffffffffffffffffffffffffffffffffffffff1916146127f3576040517f08c379a00000000000000000000000000000000000000000000000000000000081526004016127ea90614778565b60405180910390fd5b505b505050505050565b60606000600167ffffffffffffffff81111561281c5761281b612e7e565b5b60405190808252806020026020018201604052801561284a5781602001602082028036833780820191505090505b509050828160008151811061286257612861613c95565b5b60200260200101818152505080915050919050565b6128968473ffffffffffffffffffffffffffffffffffffffff16612bd8565b15612a56578373ffffffffffffffffffffffffffffffffffffffff1663f23a6e6187878686866040518663ffffffff1660e01b81526004016128dc959493929190614798565b602060405180830381600087803b1580156128f657600080fd5b505af192505050801561292757506040513d601f19601f820116820180604052508101906129249190614582565b60015b6129cd576129336145bc565b806308c379a0141561299057506129486145de565b806129535750612992565b806040517f08c379a000000000000000000000000000000000000000000000000000000000815260040161298791906130a7565b60405180910390fd5b505b6040517f08c379a00000000000000000000000000000000000000000000000000000000081526004016129c4906146e6565b60405180910390fd5b63f23a6e6160e01b7bffffffffffffffffffffffffffffffffffffffffffffffffffffffff1916817bffffffffffffffffffffffffffffffffffffffffffffffffffffffff191614612a54576040517f08c379a0000000000000000000000000000000000000000000000000000000008152600401612a4b90614778565b60405180910390fd5b505b505050505050565b612a6c868686868686612beb565b600073ffffffffffffffffffffffffffffffffffffffff168573ffffffffffffffffffffffffffffffffffffffff161415612b1e5760005b8351811015612b1c57828181518110612ac057612abf613c95565b5b602002602001015160046000868481518110612adf57612ade613c95565b5b602002602001015181526020019081526020016000206000828254612b049190613b64565b9250508190555080612b1590613bba565b9050612aa4565b505b600073ffffffffffffffffffffffffffffffffffffffff168473ffffffffffffffffffffffffffffffffffffffff161415612bd05760005b8351811015612bce57828181518110612b7257612b71613c95565b5b602002602001015160046000868481518110612b9157612b90613c95565b5b602002602001015181526020019081526020016000206000828254612bb69190613d56565b9250508190555080612bc790613bba565b9050612b56565b505b505050505050565b600080823b905060008111915050919050565b505050505050565b828054612bff906138c1565b90600052602060002090601f016020900481019282612c215760008555612c68565b82601f10612c3a57805160ff1916838001178555612c68565b82800160010185558215612c68579182015b82811115612c67578251825591602001919060010190612c4c565b5b509050612c759190612c79565b5090565b5b80821115612c92576000816000905550600101612c7a565b5090565b6000604051905090565b600080fd5b600080fd5b600073ffffffffffffffffffffffffffffffffffffffff82169050919050565b6000612cd582612caa565b9050919050565b612ce581612cca565b8114612cf057600080fd5b50565b600081359050612d0281612cdc565b92915050565b6000819050919050565b612d1b81612d08565b8114612d2657600080fd5b50565b600081359050612d3881612d12565b92915050565b60008060408385031215612d5557612d54612ca0565b5b6000612d6385828601612cf3565b9250506020612d7485828601612d29565b9150509250929050565b612d8781612d08565b82525050565b6000602082019050612da26000830184612d7e565b92915050565b60007fffffffff0000000000000000000000000000000000000000000000000000000082169050919050565b612ddd81612da8565b8114612de857600080fd5b50565b600081359050612dfa81612dd4565b92915050565b600060208284031215612e1657612e15612ca0565b5b6000612e2484828501612deb565b91505092915050565b60008115159050919050565b612e4281612e2d565b82525050565b6000602082019050612e5d6000830184612e39565b92915050565b600080fd5b600080fd5b6000601f19601f8301169050919050565b7f4e487b7100000000000000000000000000000000000000000000000000000000600052604160045260246000fd5b612eb682612e6d565b810181811067ffffffffffffffff82111715612ed557612ed4612e7e565b5b80604052505050565b6000612ee8612c96565b9050612ef48282612ead565b919050565b600067ffffffffffffffff821115612f1457612f13612e7e565b5b612f1d82612e6d565b9050602081019050919050565b82818337600083830152505050565b6000612f4c612f4784612ef9565b612ede565b905082815260208101848484011115612f6857612f67612e68565b5b612f73848285612f2a565b509392505050565b600082601f830112612f9057612f8f612e63565b5b8135612fa0848260208601612f39565b91505092915050565b600060208284031215612fbf57612fbe612ca0565b5b600082013567ffffffffffffffff811115612fdd57612fdc612ca5565b5b612fe984828501612f7b565b91505092915050565b60006020828403121561300857613007612ca0565b5b600061301684828501612d29565b91505092915050565b600081519050919050565b600082825260208201905092915050565b60005b8381101561305957808201518184015260208101905061303e565b83811115613068576000848401525b50505050565b60006130798261301f565b613083818561302a565b935061309381856020860161303b565b61309c81612e6d565b840191505092915050565b600060208201905081810360008301526130c1818461306e565b905092915050565b600067ffffffffffffffff8211156130e4576130e3612e7e565b5b602082029050602081019050919050565b600080fd5b600061310d613108846130c9565b612ede565b905080838252602082019050602084028301858111156131305761312f6130f5565b5b835b8181101561315957806131458882612d29565b845260208401935050602081019050613132565b5050509392505050565b600082601f83011261317857613177612e63565b5b81356131888482602086016130fa565b91505092915050565b600067ffffffffffffffff8211156131ac576131ab612e7e565b5b6131b582612e6d565b9050602081019050919050565b60006131d56131d084613191565b612ede565b9050828152602081018484840111156131f1576131f0612e68565b5b6131fc848285612f2a565b509392505050565b600082601f83011261321957613218612e63565b5b81356132298482602086016131c2565b91505092915050565b600080600080600060a0868803121561324e5761324d612ca0565b5b600061325c88828901612cf3565b955050602061326d88828901612cf3565b945050604086013567ffffffffffffffff81111561328e5761328d612ca5565b5b61329a88828901613163565b935050606086013567ffffffffffffffff8111156132bb576132ba612ca5565b5b6132c788828901613163565b925050608086013567ffffffffffffffff8111156132e8576132e7612ca5565b5b6132f488828901613204565b9150509295509295909350565b600067ffffffffffffffff82111561331c5761331b612e7e565b5b602082029050602081019050919050565b600061334061333b84613301565b612ede565b90508083825260208201905060208402830185811115613363576133626130f5565b5b835b8181101561338c57806133788882612cf3565b845260208401935050602081019050613365565b5050509392505050565b600082601f8301126133ab576133aa612e63565b5b81356133bb84826020860161332d565b91505092915050565b600080604083850312156133db576133da612ca0565b5b600083013567ffffffffffffffff8111156133f9576133f8612ca5565b5b61340585828601613396565b925050602083013567ffffffffffffffff81111561342657613425612ca5565b5b61343285828601613163565b9150509250929050565b600081519050919050565b600082825260208201905092915050565b6000819050602082019050919050565b61347181612d08565b82525050565b60006134838383613468565b60208301905092915050565b6000602082019050919050565b60006134a78261343c565b6134b18185613447565b93506134bc83613458565b8060005b838110156134ed5781516134d48882613477565b97506134df8361348f565b9250506001810190506134c0565b5085935050505092915050565b60006020820190508181036000830152613514818461349c565b905092915050565b60008060006060848603121561353557613534612ca0565b5b600061354386828701612cf3565b935050602084013567ffffffffffffffff81111561356457613563612ca5565b5b61357086828701613163565b925050604084013567ffffffffffffffff81111561359157613590612ca5565b5b61359d86828701613163565b9150509250925092565b6135b081612cca565b82525050565b60006020820190506135cb60008301846135a7565b92915050565b6135da81612e2d565b81146135e557600080fd5b50565b6000813590506135f7816135d1565b92915050565b6000806040838503121561361457613613612ca0565b5b600061362285828601612cf3565b9250506020613633858286016135e8565b9150509250929050565b6000806040838503121561365457613653612ca0565b5b600061366285828601612cf3565b925050602061367385828601612cf3565b9150509250929050565b600080600080600060a0868803121561369957613698612ca0565b5b60006136a788828901612cf3565b95505060206136b888828901612cf3565b94505060406136c988828901612d29565b93505060606136da88828901612d29565b925050608086013567ffffffffffffffff8111156136fb576136fa612ca5565b5b61370788828901613204565b9150509295509295909350565b60006020828403121561372a57613729612ca0565b5b600061373884828501612cf3565b91505092915050565b60008060006060848603121561375a57613759612ca0565b5b600061376886828701612cf3565b935050602061377986828701612d29565b925050604061378a86828701612d29565b9150509250925092565b7f455243313135353a2062616c616e636520717565727920666f7220746865207a60008201527f65726f2061646472657373000000000000000000000000000000000000000000602082015250565b60006137f0602b8361302a565b91506137fb82613794565b604082019050919050565b6000602082019050818103600083015261381f816137e3565b9050919050565b7f4f776e61626c653a2063616c6c6572206973206e6f7420746865206f776e6572600082015250565b600061385c60208361302a565b915061386782613826565b602082019050919050565b6000602082019050818103600083015261388b8161384f565b9050919050565b7f4e487b7100000000000000000000000000000000000000000000000000000000600052602260045260246000fd5b600060028204905060018216806138d957607f821691505b602082108114156138ed576138ec613892565b5b50919050565b7f455243313135353a207472616e736665722063616c6c6572206973206e6f742060008201527f6f776e6572206e6f7220617070726f7665640000000000000000000000000000602082015250565b600061394f60328361302a565b915061395a826138f3565b604082019050919050565b6000602082019050818103600083015261397e81613942565b9050919050565b7f496e73756666696369656e742062616c616e636520746f204d696e7400000000600082015250565b60006139bb601c8361302a565b91506139c682613985565b602082019050919050565b600060208201905081810360008301526139ea816139ae565b9050919050565b7f4f7574206f6620546f6b656e7300000000000000000000000000000000000000600082015250565b6000613a27600d8361302a565b9150613a32826139f1565b602082019050919050565b60006020820190508181036000830152613a5681613a1a565b9050919050565b7f596f752063616e206d696e74206f6e6c79203300000000000000000000000000600082015250565b6000613a9360138361302a565b9150613a9e82613a5d565b602082019050919050565b60006020820190508181036000830152613ac281613a86565b9050919050565b7f596f752063616e206d696e74206f6e6c79203500000000000000000000000000600082015250565b6000613aff60138361302a565b9150613b0a82613ac9565b602082019050919050565b60006020820190508181036000830152613b2e81613af2565b9050919050565b7f4e487b7100000000000000000000000000000000000000000000000000000000600052601160045260246000fd5b6000613b6f82612d08565b9150613b7a83612d08565b9250827fffffffffffffffffffffffffffffffffffffffffffffffffffffffffffffffff03821115613baf57613bae613b35565b5b828201905092915050565b6000613bc582612d08565b91507fffffffffffffffffffffffffffffffffffffffffffffffffffffffffffffffff821415613bf857613bf7613b35565b5b600182019050919050565b7f455243313135353a206163636f756e747320616e6420696473206c656e67746860008201527f206d69736d617463680000000000000000000000000000000000000000000000602082015250565b6000613c5f60298361302a565b9150613c6a82613c03565b604082019050919050565b60006020820190508181036000830152613c8e81613c52565b9050919050565b7f4e487b7100000000000000000000000000000000000000000000000000000000600052603260045260246000fd5b7f455243313135353a2063616c6c6572206973206e6f74206f776e6572206e6f7260008201527f20617070726f7665640000000000000000000000000000000000000000000000602082015250565b6000613d2060298361302a565b9150613d2b82613cc4565b604082019050919050565b60006020820190508181036000830152613d4f81613d13565b9050919050565b6000613d6182612d08565b9150613d6c83612d08565b925082821015613d7f57613d7e613b35565b5b828203905092915050565b7f4e487b7100000000000000000000000000000000000000000000000000000000600052601260045260246000fd5b6000613dc482612d08565b9150613dcf83612d08565b925082613ddf57613dde613d8a565b5b828206905092915050565b7f526566696c6c206d757374206265206d756c7469706c65206f66203132000000600082015250565b6000613e20601d8361302a565b9150613e2b82613dea565b602082019050919050565b60006020820190508181036000830152613e4f81613e13565b9050919050565b7f526566696c6c2063616e206f6e6c7920626520646f6e65207768656e20616c6c60008201527f20746f6b656e7320617265206d696e7465640000000000000000000000000000602082015250565b6000613eb260328361302a565b9150613ebd82613e56565b604082019050919050565b60006020820190508181036000830152613ee181613ea5565b9050919050565b7f4f776e61626c653a206e6577206f776e657220697320746865207a65726f206160008201527f6464726573730000000000000000000000000000000000000000000000000000602082015250565b6000613f4460268361302a565b9150613f4f82613ee8565b604082019050919050565b60006020820190508181036000830152613f7381613f37565b9050919050565b7f455243313135353a2069647320616e6420616d6f756e7473206c656e6774682060008201527f6d69736d61746368000000000000000000000000000000000000000000000000602082015250565b6000613fd660288361302a565b9150613fe182613f7a565b604082019050919050565b6000602082019050818103600083015261400581613fc9565b9050919050565b7f455243313135353a207472616e7366657220746f20746865207a65726f20616460008201527f6472657373000000000000000000000000000000000000000000000000000000602082015250565b600061406860258361302a565b91506140738261400c565b604082019050919050565b600060208201905081810360008301526140978161405b565b9050919050565b7f455243313135353a20696e73756666696369656e742062616c616e636520666f60008201527f72207472616e7366657200000000000000000000000000000000000000000000602082015250565b60006140fa602a8361302a565b91506141058261409e565b604082019050919050565b60006020820190508181036000830152614129816140ed565b9050919050565b6000604082019050818103600083015261414a818561349c565b9050818103602083015261415e818461349c565b90509392505050565b7f5061757361626c653a206e6f7420706175736564000000000000000000000000600082015250565b600061419d60148361302a565b91506141a882614167565b602082019050919050565b600060208201905081810360008301526141cc81614190565b9050919050565b7f455243313135353a206d696e7420746f20746865207a65726f2061646472657360008201527f7300000000000000000000000000000000000000000000000000000000000000602082015250565b600061422f60218361302a565b915061423a826141d3565b604082019050919050565b6000602082019050818103600083015261425e81614222565b9050919050565b600060408201905061427a6000830185612d7e565b6142876020830184612d7e565b9392505050565b7f455243313135353a206275726e2066726f6d20746865207a65726f206164647260008201527f6573730000000000000000000000000000000000000000000000000000000000602082015250565b60006142ea60238361302a565b91506142f58261428e565b604082019050919050565b60006020820190508181036000830152614319816142dd565b9050919050565b7f455243313135353a206275726e20616d6f756e7420657863656564732062616c60008201527f616e636500000000000000000000000000000000000000000000000000000000602082015250565b600061437c60248361302a565b915061438782614320565b604082019050919050565b600060208201905081810360008301526143ab8161436f565b9050919050565b7f5061757361626c653a2070617573656400000000000000000000000000000000600082015250565b60006143e860108361302a565b91506143f3826143b2565b602082019050919050565b60006020820190508181036000830152614417816143db565b9050919050565b7f455243313135353a2073657474696e6720617070726f76616c2073746174757360008201527f20666f722073656c660000000000000000000000000000000000000000000000602082015250565b600061447a60298361302a565b91506144858261441e565b604082019050919050565b600060208201905081810360008301526144a98161446d565b9050919050565b600081519050919050565b600082825260208201905092915050565b60006144d7826144b0565b6144e181856144bb565b93506144f181856020860161303b565b6144fa81612e6d565b840191505092915050565b600060a08201905061451a60008301886135a7565b61452760208301876135a7565b8181036040830152614539818661349c565b9050818103606083015261454d818561349c565b9050818103608083015261456181846144cc565b90509695505050505050565b60008151905061457c81612dd4565b92915050565b60006020828403121561459857614597612ca0565b5b60006145a68482850161456d565b91505092915050565b60008160e01c9050919050565b600060033d11156145db5760046000803e6145d86000516145af565b90505b90565b600060443d10156145ee57614671565b6145f6612c96565b60043d036004823e80513d602482011167ffffffffffffffff8211171561461e575050614671565b808201805167ffffffffffffffff81111561463c5750505050614671565b80602083010160043d038501811115614659575050505050614671565b61466882602001850186612ead565b82955050505050505b90565b7f455243313135353a207472616e7366657220746f206e6f6e204552433131353560008201527f526563656976657220696d706c656d656e746572000000000000000000000000602082015250565b60006146d060348361302a565b91506146db82614674565b604082019050919050565b600060208201905081810360008301526146ff816146c3565b9050919050565b7f455243313135353a204552433131353552656365697665722072656a6563746560008201527f6420746f6b656e73000000000000000000000000000000000000000000000000602082015250565b600061476260288361302a565b915061476d82614706565b604082019050919050565b6000602082019050818103600083015261479181614755565b9050919050565b600060a0820190506147ad60008301886135a7565b6147ba60208301876135a7565b6147c76040830186612d7e565b6147d46060830185612d7e565b81810360808301526147e681846144cc565b9050969550505050505056fea2646970667358221220b0fcee53707bb900061279a00719da910b4a7d55968a0647e43b703308ee906264736f6c6343000809003320697066733a2f2f516d524a4e4751776f57737077386e4b4c79624172666d6268674e614455366d6b5068523975676f454d4d367a342f7b69647d2e6a736f6e",
  "immutableReferences": {},
  "source": "// SPDX-License-Identifier: MIT\npragma solidity ^0.8.7;\n\nimport \"@openzeppelin/contracts/token/ERC1155/ERC1155.sol\";\nimport \"@openzeppelin/contracts/access/Ownable.sol\";\nimport \"@openzeppelin/contracts/security/Pausable.sol\";\nimport \"@openzeppelin/contracts/token/ERC1155/extensions/ERC1155Burnable.sol\";\nimport \"@openzeppelin/contracts/token/ERC1155/extensions/ERC1155Supply.sol\";\n\n/// @custom:security-contact rahuljaguste@gmail.com\ncontract VendingMachine is\n    ERC1155,\n    Ownable,\n    Pausable,\n    ERC1155Burnable,\n    ERC1155Supply\n{\n    uint256 public price = 0 ether;\n\n    mapping(address => uint256) addressBalances;\n    uint256 public maxTokens = 60;\n    uint256 public tokenId = 0;\n\n    constructor()\n        ERC1155(\n            \" ipfs://QmRJNGQwoWspw8nKLybArfmbhgNaDU6mkPhR9ugoEMM6z4/{id}.json\"\n        )\n    {}\n\n    function setURI(string memory newuri) public onlyOwner {\n        _setURI(newuri);\n    }\n\n    function pause() public onlyOwner {\n        _pause();\n    }\n\n    function unpause() public onlyOwner {\n        _unpause();\n    }\n\n    function mint(address account, uint256 id) public payable {\n        require(msg.value >= price, \"Insufficient balance to Mint\");\n        require(tokenId < maxTokens, \"Out of Tokens\");\n        require(addressBalances[msg.sender] <= 3, \"You can mint only 3\");\n        require(totalSupply(id) < 5, \"You can mint only 5\");\n\n        addressBalances[msg.sender] += 1;\n        tokenId++;\n        _mint(account, id, 1, \"\");\n    }\n\n    function _beforeTokenTransfer(\n        address operator,\n        address from,\n        address to,\n        uint256[] memory ids,\n        uint256[] memory amounts,\n        bytes memory data\n    ) internal override(ERC1155, ERC1155Supply) whenNotPaused {\n        super._beforeTokenTransfer(operator, from, to, ids, amounts, data);\n    }\n\n    function setPrice(uint256 _price) public onlyOwner {\n        price = _price;\n    }\n\n    function withdraw(uint256 _amount) public payable onlyOwner {\n        require(payable(msg.sender).send(_amount));\n    }\n\n    function withdrawAll() public payable onlyOwner {\n        require(payable(msg.sender).send(address(this).balance));\n    }\n\n    function refill(uint256 _additionalTokens) public onlyOwner {\n        require(_additionalTokens % 12 == 0, \"Refill must be multiple of 12\");\n        require(\n            tokenId == maxTokens,\n            \"Refill can only be done when all tokens are minted\"\n        );\n        maxTokens += _additionalTokens;\n    }\n\n    function getTokenLeft(uint256 id) public view returns (uint256) {\n        return 5 - totalSupply(id);\n    }\n}\n",
  "sourcePath": "/Users/rj/2021Projects/blockchain/EthGlobal-Hackathon/Truffle/contracts/VendingMachine.sol",
  "compiler": {
    "name": "solc",
    "version": "0.8.9+commit.e5eed63a.Emscripten.clang"
  },
  "schemaVersion": "3.4.4",
  "updatedAt": "2022-01-15T08:45:39.286Z",
  "networkType": "ethereum",
  "devdoc": {
    "custom:security-contact": "rahuljaguste@gmail.com",
    "kind": "dev",
    "methods": {
      "balanceOf(address,uint256)": {
        "details": "See {IERC1155-balanceOf}. Requirements: - `account` cannot be the zero address."
      },
      "balanceOfBatch(address[],uint256[])": {
        "details": "See {IERC1155-balanceOfBatch}. Requirements: - `accounts` and `ids` must have the same length."
      },
      "exists(uint256)": {
        "details": "Indicates whether any token exist with a given id, or not."
      },
      "isApprovedForAll(address,address)": {
        "details": "See {IERC1155-isApprovedForAll}."
      },
      "owner()": {
        "details": "Returns the address of the current owner."
      },
      "paused()": {
        "details": "Returns true if the contract is paused, and false otherwise."
      },
      "renounceOwnership()": {
        "details": "Leaves the contract without owner. It will not be possible to call `onlyOwner` functions anymore. Can only be called by the current owner. NOTE: Renouncing ownership will leave the contract without an owner, thereby removing any functionality that is only available to the owner."
      },
      "safeBatchTransferFrom(address,address,uint256[],uint256[],bytes)": {
        "details": "See {IERC1155-safeBatchTransferFrom}."
      },
      "safeTransferFrom(address,address,uint256,uint256,bytes)": {
        "details": "See {IERC1155-safeTransferFrom}."
      },
      "setApprovalForAll(address,bool)": {
        "details": "See {IERC1155-setApprovalForAll}."
      },
      "supportsInterface(bytes4)": {
        "details": "See {IERC165-supportsInterface}."
      },
      "totalSupply(uint256)": {
        "details": "Total amount of tokens in with a given id."
      },
      "transferOwnership(address)": {
        "details": "Transfers ownership of the contract to a new account (`newOwner`). Can only be called by the current owner."
      },
      "uri(uint256)": {
        "details": "See {IERC1155MetadataURI-uri}. This implementation returns the same URI for *all* token types. It relies on the token type ID substitution mechanism https://eips.ethereum.org/EIPS/eip-1155#metadata[defined in the EIP]. Clients calling this function must replace the `\\{id\\}` substring with the actual token type ID."
      }
    },
    "version": 1
  },
  "userdoc": {
    "kind": "user",
    "methods": {},
    "version": 1
  }
}